:020000040000fa
:080000000002040000000000f2
:020000040000fa
:04000800c20600002c
:020000040000fa
:04000c00c206000028
:020000040000fa
:04001000c206000024
:020000040000fa
:04001400c206000020
:020000040000fa
:04001800c20600001c
:020000040000fa
:04001c00c206000018
:020000040000fa
:04002000c206000014
:020000040000fa
:04002400c206000010
:020000040000fa
:04002800c20600000c
:020000040000fa
:04002c00da050000f1
:020000040000fa
:04003000c206000004
:020000040000fa
:04003400c206000000
:020000040000fa
:04003800c2060000fc
:020000040000fa
:04003c00c2060000f8
:020000040000fa
:04004000c2060000f4
:020000040000fa
:04004400c2060000f0
:020000040000fa
:04004800c2060000ec
:020000040000fa
:04004c00c2060000e8
:020000040000fa
:04005000c2060000e4
:020000040000fa
:04005400c2060000e0
:020000040000fa
:04005800c2060000dc
:020000040000fa
:04005c00c2060000d8
:020000040000fa
:04006000c2060000d4
:020000040000fa
:04006400c2060000d0
:020000040000fa
:04006800c2060000cc
:020000040000fa
:04006c003a05000051
:020000040000fa
:04007000c2060000c4
:020000040000fa
:04007400c2060000c0
:020000040000fa
:04007800c2060000bc
:020000040000fa
:04007c00c2060000b8
:020000040000fa
:04008000c2060000b4
:020000040000fa
:04008400c2060000b0
:020000040000fa
:04008800c2060000ac
:020000040000fa
:04008c00c2060000a8
:020000040000fa
:04009000c2060000a4
:020000040000fa
:04009400c2060000a0
:020000040000fa
:04009800c20600009c
:020000040000fa
:04009c00c206000098
:020000040000fa
:0400a000c206000094
:020000040000fa
:0400a400c206000090
:020000040000fa
:0400a800c20600008c
:020000040000fa
:0400ac00c206000088
:020000040000fa
:0400b000c206000084
:020000040000fa
:0400b400c206000080
:020000040000fa
:0400b800ba05000085
:020000040000fa
:0400bc00c206000078
:020000040000fa
:0400c000c206000074
:020000040000fa
:0400c400c206000070
:020000040000fa
:0400c800c20600006c
:020000040000fa
:0400cc00c206000068
:020000040000fa
:0400d000c206000064
:020000040000fa
:0400d400c206000060
:020000040000fa
:0400d800c20600005c
:020000040000fa
:0400dc00a206000078
:020000040000fa
:0400e000c206000054
:020000040000fa
:0400e400c206000050
:020000040000fa
:0400e800c20600004c
:020000040000fa
:0400ec00c206000048
:020000040000fa
:0400f000c206000044
:020000040000fa
:0400f400c206000040
:020000040000fa
:0400f800c20600003c
:020000040000fa
:0400fc00c206000038
:020000040000fa
:04010000c206000033
:020000040000fa
:04010400c20600002f
:020000040000fa
:04010800c20600002b
:020000040000fa
:04010c00c206000027
:020000040000fa
:04011000c206000023
:020000040000fa
:04011400c20600001f
:020000040000fa
:04011800c20600001b
:020000040000fa
:04011c00c206000017
:020000040000fa
:04012000c206000013
:020000040000fa
:04012400c20600000f
:020000040000fa
:040128007a05000054
:020000040000fa
:04012c00c206000007
:020000040000fa
:04013000c206000003
:020000040000fa
:04013400c2060000ff
:020000040000fa
:04013800c2060000fb
:020000040000fa
:04013c00c2060000f7
:020000040000fa
:04014000c2060000f3
:020000040000fa
:04014400c2060000ef
:020000040000fa
:04014800c2060000eb
:020000040000fa
:04014c00c2060000e7
:020000040000fa
:04015000c2060000e3
:020000040000fa
:04015400c2060000df
:020000040000fa
:04015800c2060000db
:020000040000fa
:04015c00c2060000d7
:020000040000fa
:04016000c2060000d3
:020000040000fa
:04016400c2060000cf
:020000040000fa
:04016800c2060000cb
:020000040000fa
:04016c00c2060000c7
:020000040000fa
:04017000c2060000c3
:020000040000fa
:04017400c2060000bf
:020000040000fa
:04017800c2060000bb
:020000040000fa
:04017c00c2060000b7
:020000040000fa
:04018000c2060000b3
:020000040000fa
:04018400c2060000af
:020000040000fa
:04018800c2060000ab
:020000040000fa
:04018c00c2060000a7
:020000040000fa
:04019000c2060000a3
:020000040000fa
:04019400c20600009f
:020000040000fa
:04019800c20600009b
:020000040000fa
:04019c00c206000097
:020000040000fa
:0401a000fa0500005c
:020000040000fa
:0401a400320600001f
:020000040000fa
:0401a800c20600008b
:020000040000fa
:0401ac00c206000087
:020000040000fa
:0401b000c206000083
:020000040000fa
:0401b4006a060000d7
:020000040000fa
:0401b800c20600007b
:020000040000fa
:0401bc00c206000077
:020000040000fa
:0401c000c206000073
:020000040000fa
:0401c400c20600006f
:020000040000fa
:0401c800c20600006b
:020000040000fa
:0401cc00c206000067
:020000040000fa
:0401d000c206000063
:020000040000fa
:0401d400c20600005f
:020000040000fa
:0401d800c20600005b
:020000040000fa
:0401dc00c206000057
:020000040000fa
:0401e000c206000053
:020000040000fa
:0401e400c20600004f
:020000040000fa
:0401e800c20600004b
:020000040000fa
:0401ec00c206000047
:020000040000fa
:0401f000c206000043
:020000040000fa
:0401f400c20600003f
:020000040000fa
:0401f800c20600003b
:020000040000fa
:0401fc00c206000037
:020000040000fa
:04020000c206000032
:020000040000fa
:04020400c20600002e
:020000040000fa
:04020800c20600002a
:020000040000fa
:04020c00c206000026
:020000040000fa
:04021000c206000022
:020000040000fa
:04021400c20600001e
:020000040000fa
:04021800c20600001a
:020000040000fa
:04021c00c206000016
:020000040000fa
:04022000c206000012
:020000040000fa
:04022400c20600000e
:020000040000fa
:04022800c20600000a
:020000040000fa
:04022c00c206000006
:020000040000fa
:04023000c206000002
:020000040000fa
:04023400c2060000fe
:020000040000fa
:04023800c2060000fa
:020000040000fa
:04023c00c2060000f6
:020000040000fa
:04024000c2060000f2
:020000040000fa
:04024400c2060000ee
:020000040000fa
:04024800c2060000ea
:020000040000fa
:04024c00c2060000e6
:020000040000fa
:04025000c2060000e2
:020000040000fa
:04025400c2060000de
:020000040000fa
:04025800c2060000da
:020000040000fa
:04025c00c2060000d6
:020000040000fa
:04026000c2060000d2
:020000040000fa
:04026400c2060000ce
:020000040000fa
:04026800c2060000ca
:020000040000fa
:04026c00c2060000c6
:020000040000fa
:04027000c2060000c2
:020000040000fa
:04027400c2060000be
:020000040000fa
:04027800c2060000ba
:020000040000fa
:04027c00c2060000b6
:020000040000fa
:04028000c2060000b2
:020000040000fa
:04028400c2060000ae
:020000040000fa
:04028800c2060000aa
:020000040000fa
:04028c00c2060000a6
:020000040000fa
:04029000c2060000a2
:020000040000fa
:04029400c20600009e
:020000040000fa
:04029800c20600009a
:020000040000fa
:04029c00c206000096
:020000040000fa
:0402a000c206000092
:020000040000fa
:0402a400c20600008e
:020000040000fa
:0402a800c20600008a
:020000040000fa
:0402ac00c206000086
:020000040000fa
:0402b000c206000082
:020000040000fa
:0402b400c20600007e
:020000040000fa
:0402b800c20600007a
:020000040000fa
:0402bc00c206000076
:020000040000fa
:0402c000c206000072
:020000040000fa
:0402c400c20600006e
:020000040000fa
:0402c800c20600006a
:020000040000fa
:0402cc00c206000066
:020000040000fa
:0402d000c206000062
:020000040000fa
:0402d400c20600005e
:020000040000fa
:0402d800c20600005a
:020000040000fa
:0402dc00c206000056
:020000040000fa
:0402e000c206000052
:020000040000fa
:0402e400c20600004e
:020000040000fa
:0402e800c20600004a
:020000040000fa
:0402ec00c206000046
:020000040000fa
:0402f000c206000042
:020000040000fa
:0402f400c20600003e
:020000040000fa
:0402f800c20600003a
:020000040000fa
:0402fc00c206000036
:020000040000fa
:04030000c206000031
:020000040000fa
:04030400c20600002d
:020000040000fa
:04030800c206000029
:020000040000fa
:04030c00c206000025
:020000040000fa
:04031000c206000021
:020000040000fa
:04031400c20600001d
:020000040000fa
:04031800c206000019
:020000040000fa
:04031c00c206000015
:020000040000fa
:04032000c206000011
:020000040000fa
:04032400c20600000d
:020000040000fa
:100400000fc021000eff22000e0188000000000036
:10041000000020000000e000020032000001200087
:100420002002880014000700580207000000e000c6
:1004300003003a00e0ba2400010020000200370067
:100440000000200001002000810f70000100320038
:100450000f000700000020000000e0000200320052
:1004600000000200000000006a1d02000000000001
:100470000040da000000fe00a00c20000000e000b8
:1004800002003200002020009001880000000600d9
:10049000a1028800800478000000eb001f003700f4
:1004a000e284440054a0b4009905ba00e2844400f8
:1004b00054a0b4009906ba00e284440054a0b400e9
:1004c0000006eb00476fde00fd07b200ae018800ba
:1004d000636ce10003003a000ad801000000eb0061
:1004e0000e003700606ce10008003a00004deb00a0
:1004f0000a05e800020039003420ec000af0a000f0
:100500008b05e900f9ff3e00040037006168e10057
:10051000010032000086eb000b00070019c7ba008b
:100520001905ba000e04e00003003a000a00e000da
:10053000dbff3a0000000600fe07b200ae028800b2
:100540008a047800f5ff37000cd0a300e20f4d00bd
:100550001c003b0089027800354dba000a05e8000e
:10056000020039003420ec000af0a0008b05e900fd
:100570000f003200254dba000a05e80002003900dc
:100580003420ec000af0a0008b05e90008003200de
:100590000c00e0000600320015cdba000a05e800a4
:1005a000020039003420ec000af0a0008b05e900bd
:1005b0008984e80054a0b4000b00e000e2ff3a0098
:1005c000000006009902ba00055d78008b05e9007d
:1005d000f7ff3200c82ade00055d78008b05e900d0
:1005e000f3ff32000c00e000f1ff320019ddba0029
:1005f000eeff3700000000000000000000000000d7
:1006000000000000000000000000000000000000ea
:1006100000000000000000000000000000000000da
:1006200000000000000000000000000000000000ca
:1006300000000000000000000000000000000000ba
:100a7000000000003600f800809fbe00829fbe008c
:100a8000849fbe00869fbe000000fa000228a900d5
:100a90002110800000082000008060000000e000bd
:100aa0000c00320004e2a9000000eb0070df8800b7
:100ab0000000eb0080df88000000eb0040df8800d2
:100ac0000000eb0050df88000000eb0030df880002
:100ad00001003700df1307000080fa004f03be005b
:100ae0004f02be004f01be004f00be003600f900ad
:100af000004006003600f800809fbe00829fbe00c6
:100b0000849fbe00869fbe000000fa000000eb003c
:100b100070df88000000eb0080df88000000eb0041
:100b200040df88000000eb0050df88000000eb0091
:100b300030df88002000200020df88000542a90067
:100b4000e09180000000e00002003200e0918000af
:100b5000000001000808a9000080fa004f03be0051
:100b60004f02be004f01be004f00be003600f9002c
:100b7000004006003600f800809fbe00829fbe0045
:100b8000849fbe00869fbe000000fa006092800035
:100b9000000001000488a9000080fa004f03be0095
:100ba0004f02be004f01be004f00be003600f900ec
:100bb000004006003600f800809fbe00829fbe0005
:100bc000849fbe00869fbe000000fa0070928000e5
:100bd000000001000028a9000080fa004f03be00b9
:100be0004f02be004f01be004f00be003600f900ac
:100bf000004006003600f800809fbe00829fbe00c5
:100c0000849fbe00869fbe003200f8003400f800ca
:100c100010002000a00188000020200000d0fe006d
:100c20000200fa0091608000010f7800929180002c
:100c30009e0078000000eb00020001000bc8a90034
:100c40000080fa003400f9003200f9004f03be00c2
:100c50004f02be004f01be004f00be003600f9003b
:100c6000004006003600f800809fbe00829fbe0054
:100c7000849fbe00869fbe003200f8003400f8005a
:100c800010002000a00188000020200000d0fe00fd
:100c90000200fa00a1608000010f780092918000ac
:100ca0009e00780010002000020001000be8a9005f
:100cb0000080fa003400f9003200f9004f03be0052
:100cc0004f02be004f01be004f00be003600f900cb
:100cd000004006003600f800809fbe00829fbe00e4
:100ce000849fbe00869fbe003200f8003400f800ea
:100cf00010002000a00188000020200000d0fe008d
:100d00000200fa00e1608000010f780092918000fb
:100d10009e00780020002000020001000c68a9005d
:100d20000080fa003400f9003200f9004f03be00e1
:100d30004f02be004f01be004f00be003600f9005a
:100d4000004006003600f800809fbe00829fbe0073
:100d5000849fbe00869fbe000000fa004091800084
:100d60000000010005a8a9000080fa004f03be00a2
:100d70004f02be004f01be004f00be003600f9001a
:100d8000004006000040da000000fe000000050000
:100d900014002000af033700f4ff2f00ad0337002d
:100da0000001be00410007000470a70003f0a1008d
:100db0006509b100160032000d0035006828e10019
:100dc00006003500f0ff2f00f1ff27000300e000d0
:100dd00013003b0001002800000005000000400057
:100de000818048008502e900fcff3a0008003700d6
:100df000f88f420002003c008000eb00000005007c
:100e00008100d1000080d3008502e800fcff3a0099
:100e10000300e00002003b0060001000e0801800ca
:100e2000000006000001be00200007000470a700bb
:100e300003f0a10003f8a30013003a006509b10014
:100e400010003200090035006928e1000200350079
:100e500001002800000005000000400081804800db
:100e60008502e900fcff3a0000000600f88f42000e
:100e7000050035008100d1000080d3008502e80024
:100e8000fcff3a00000006008000eb0000000500b7
:100e90004f89de0082017800890337006011b800b5
:100ea00097033700040020006a033700c70ade00fa
:100eb000f107b200f50fb20008003200e1cf4200a6
:100ec000020032000170a00024000500810f7000b4
:100ed000010032000408050044000500810f700085
:100ee00002003a00140005008502e90000004000fd
:100ef00081c04800fcff3b000170a00024000500f9
:100f000007f82700078361000638e10004003a0073
:100f1000f7072000878361008703710001003a0012
:100f200003f0a200889fbe008a9fbe008c9fbe0077
:100f3000470ade000480a100c71ade000580a10078
:100f4000070028000785600087856100f70f2000f3
:100f50000720e1009e0032000728e1009c003200db
:100f6000010678000400e000b4003200f70720001a
:100f7000878060000170a0000500e000c000320022
:100f8000f7072000878161000370a000050652006a
:100f90000f003a000b50e1000b0032000308e100a3
:100fa00002003a000200e1007e003200020450001c
:100fb00083845800040031000001fd008101fd0020
:100fc0008402fd008a05fd006044b800210037005e
:100fd0000520e10005003d000001fd008101fd004c
:100fe0008402fd008a05fd00050652007a60e100da
:100ff000050035000170a1004722dd0084807000eb
:101000008a807000630037006044b800ef02660019
:1010100007ff2f00070666000500e0000600340009
:10102000f08312008714dd000511de00071bdd00d0
:10103000060171008519de007060e10005003500d1
:101040000904780082047800030178008001eb0035
:10105000700656000b50e10003003a000200400009
:10106000838048000400370060041400e0841c0002
:1010700002005800838058000188a3000600320057
:101080008100d1000080d3008984d3000884d3007c
:101090000402e800270037000178a30025003a0089
:1010a0000100e000030032008186cf00698656000f
:1010b0000a0037008c0020000000e00004003a0025
:1010c00009007800880478000004eb0070025200e8
:1010d0008086cf000d0646000c06e9007060e10036
:1010e0000600350080007800090078008804780048
:1010f0000004eb0070065600700252000c00e00085
:101100000c0034008c08dd00f00316000703de003d
:10111000868070000c00dd00074bde0006007000ca
:101120008c4cdd000743de00868474000c44dd0037
:101130000c0252006120e1002000350061016000d6
:101140000700280087816400f7ff27008783640079
:10115000070374000300e0000600320082037300fe
:10116000040032000000e800e08048000188a3008d
:101170000e003a00f70f20000720e1004a003d0072
:101180000170a1004722dd00810072008a8070009a
:101190000000be004f06be004f05be004f04be005b
:1011a000000006006000b800faff37008100d1009f
:1011b0000080d3000402e800eeff3700040178004d
:1011c00089017400a10107008a807000f1ff3700d7
:1011d000f7010700070278000001fd008101fd0012
:1011e000f301070087027800850372000778a300e7
:1011f000040032000001fd008101fd00060207002d
:10120000e4ff3700850362000768a300080032008e
:101210000b50e10003003200f0ff2f00f1ff270028
:10122000dcff37000001fd008101fd00d9ff370020
:101230000468a300d7ff3200faff3700f8ff270049
:10124000888360000b003a000000e00009003a00cb
:101250008303640082837300020032000200be0038
:10126000ccff37000b50e100ceff3a000200be0079
:10127000c8ff370014002000810064003eff3700e3
:10128000f8ff27008883610004003a000200e000b4
:1012900002003a008c007800beff370015002000e5
:1012a0008301640039ff370001f8270000002000a7
:1012b00081007500b7ff3700889fbe008a9fbe007f
:1012c0008c9fbe001b0020000202be000586680045
:1012d00006002800060666004709de00f20fb2008d
:1012e000820032000243e80080003200c729de009d
:1012f000f30fb2007d0032000343e8007b003200b0
:10130000f107b2000170a000f507b2000570a0005f
:10131000c708dd004903de00868070004700dd005d
:10132000c72add004923de00868272004722dd00e5
:101330000305510004035000858358000300310069
:1013400000004000818048000a05e9008c1f7800f9
:101350008a9fbe00040050008580580004024200ad
:1013600085824a0000004000818048000005eb00b3
:101370000004be006033b8000406be000d48e10062
:1013800056003100050009004dccd8000c01b80012
:101390000d02b8008481410060824a0082835300bc
:1013a00003045c0084845c0060055d000a00e000ca
:1013b00025003a00800578000d40e1004900310029
:1013c0008800780007007800050009004d88d800e3
:1013d0000c01b8000d02b8008481410060824a000f
:1013e0006003110083835b0004045c00e0845c0004
:1013f0000900e00021003a004f01be000300e000b8
:101400002b003200e3016000070673008c8171003d
:1014100001003200640070004200de004e5edd001c
:101420000c007000c258de0001e0a000830107003c
:10143000cf017800818071004f06be004f05be00cd
:101440004f04be00000006008c8343000d044c00d6
:10145000e0844c0060054d000000e9000a00e00057
:10146000d4ff32008c8343000d044c00e0844c0018
:1014700060054d000000e900ceff37000c0343007b
:101480008d834b0060044c00e0844c000000e900b8
:101490000900e000d8ff32000c0343008d834b00ad
:1014a00060044c00e0844c000000e900d2ff3700eb
:1014b0004200de004e5edd000c007000c258de000f
:1014c00001e0a000cf0178000300e000daff320065
:1014d00060001000e0801800d7ff3700f0ff2f00f9
:1014e000aaff3700f0ff2f00b9ff37000404be0049
:1014f0002f010700870678000004fd008104fd002d
:101500002b010700078366000678a3000300320062
:101510000960a7000800be002c0037000d78a3006a
:10152000020032000800be00280037000778a30040
:1015300026003a0001f0a10009f0a1000668a3000e
:1015400003003200f1ff2700f0ff2f00baff370041
:101550000d68a300030032000800be008c807000fc
:10156000b5ff37000768a30007003a000648a3004c
:1015700003003200f1ff2700f0ff2f00aeff37001d
:101580000d48a300030032006000b8008c8070009a
:10159000a9ff37000748a3000400320001f8270024
:1015a000000020008c807000a3ff37007601070048
:1015b0000004fd008104fd000205780072010700af
:1015c0000802be008a01780059ff37000160a000c0
:1015d000120220008292880097ff37000100e0008d
:1015e000120032000500e00010003200889fbe00ab
:1015f0008a9fbe008c9fbe000006eb0001f8a3008e
:101600000300320060001000e08018000cf0a00021
:1016100005f8a3000300320060021200e0821a0005
:101620000cf0a2008005eb0041ff37006000b8001d
:101630000200050003836800070028000703630019
:10164000470ade000480a100c71ade000580a10061
:10165000f70f20000720e100420032000728e100d8
:1016600040003200889fbe008a9fbe008c1f780019
:10167000f107b200f307b2000400e000640032009a
:101680000170a0000500e000680032000370a000b7
:1016900085054200eb07b1000204b8000302b80060
:1016a0008484440060854a00020ab80084844400af
:1016b0000a854a00030ab800040545000400330007
:1016c0000804d0008984d2000a85d2008b05e90085
:1016d0006158e1003d003500021020000901610061
:1016e0000308200089816100f707200087836400d8
:1016f00008867300c84cde00c853dd008784740080
:101700004855de000300e000060032008203760048
:10171000040032008904e80060054d000a88a30037
:101720000c003a00f70f20000758e10044003d008c
:101730000a70a100c75ddd000a8575008a0073008c
:10174000090078004f0678004f05be004f04be0028
:10175000000006000a05d1008984d3008b05e8004b
:10176000f0ff3700881f780006047800900007001b
:10177000070278000001fd008101fd008c000700d8
:1017800087027800850372000778a3000500320005
:101790000001fd008101fd009f0007004f0478005b
:1017a00000000600850372000748a3000300320012
:1017b000f0ff2f00f1ff2700f8ff370000002000a6
:1017c00001f8270088807000f4ff37008801780056
:1017d0004848dd00808171004848de00c850dd00c7
:1017e00001007000c850de00060478000b0178008c
:1017f0001600070088807000d2ff37000500e00067
:1018000005003200170020003a0007009dff370056
:1018100081037000f9ff3a00860078004f067800d7
:101820004f05be004f04be00000005008303710099
:10183000f9ff3200270020002e00070094ff370038
:1018400001f8270086807000f4ff37000100e000f7
:1018500026003200610111007810e10023003c00f5
:101860006022b8007010e1000400350080027800aa
:10187000010078008000eb00700151000200e000e0
:101880000900340070031100062add00822ade0000
:101890008603dd00878272000200de00860bdd0019
:1018a000070070008208de0084817100f4ff2700c9
:1018b0000482620084817100040028008482620036
:1018c0006102600005f0a6000000060004827100bd
:1018d000070032000000e800e08048000000060039
:1018e0000002be006000b800efff37006000b800e3
:1018f00000000600889fbe000004eb006138e10094
:1019000016003a000100e00008003a00c800de00be
:101910004800dd00880020000100e00003003a00dc
:10192000c800de004800dd00680444008184cf0068
:10193000e9845400060034008908dd00f0831400b7
:101940008703de00878070000900dd000904440081
:10195000610214004f04be00000006000300e00016
:1019600008003a00c811de004811dd0088002000a0
:101970000300e00003003a00c811de004811dd005a
:10198000680444008384cf00e984540006003400d6
:101990008919dd00f08314008713de008781710050
:1019a0000911dd0009044400e1021400e9ff3700d9
:1019b0002700200001f0a70017002000470bde00e1
:1019c000f60fb200040032000643e8000a003200bd
:1019d0004702b3000000060001037800f607b200da
:1019e0000603700002003a000703b300000006007f
:1019f0008702b3000000060001037800f607b2007a
:101a000006037000020032000770a000000006000c
:101a10000760a000000006000478a3000400320064
:101a20000578a300030032000168a30001003a001a
:101a30000200be000160a0000000060081017000ed
:101a4000270032008002eb0001f8a30003003200ff
:101a500060001000e080180015002000f40720004e
:101a60000202420020003400f703200087036000d8
:101a7000060420000003630002082000000161004a
:101a80004700de00c909dd0000807100c708de00e4
:101a90000600e000080032008703710006003200f3
:101aa0001000b0000180b0000188a30002003200e5
:101ab000c108de000402e800f107b200f30f2000c5
:101ac0000320e10003003d004722dd008100720099
:101ad0002900370001f827000000eb00260037003e
:101ae0006000b80000000600680212007f20e100dc
:101af000020034006000b8001f0037006011b80019
:101b00007020e100040035008001780001007800b9
:101b10008000eb00700252000400e0000900340075
:101b2000f00312000719dd008419de000703dd0051
:101b3000868171000400de00070bdd0006007000e6
:101b40008408de00f7ff27008383630087037100aa
:101b50000600280003036300070032000700e000ce
:101b600003003a006101600002817300020032004c
:101b70001000b0000180b0000500a60000000600c3
:101b800001f0a000000006004f0ade004709de0059
:101b9000f107b200f20fb2000b003200f207b10001
:101ba0000170a000c708dd00c901de00838070005d
:101bb0004700dd000400a6000000060060001000e1
:101bc000e080180000000600810f700001003a005c
:101bd000000006008182cf000500e00010003e00fa
:101be0008082cf00ee8242007028e10004003900bc
:101bf00007003e00800078000000eb000e00370078
:101c0000708312008600de000500dd000a00370048
:101c1000708352008600dd000000eb0006003700f4
:101c2000e28252008508dd00708312000603de00a8
:101c3000868070000500dd007507b0000501ea0030
:101c40000400a6000000060060001000e0801800fc
:101c500000000600889fbe008a9fbe00841f780097
:101c60007c0007004f00780011003300f0ff2f00c8
:101c7000838f6c0006003b00040565000a00a70086
:101c80000800370009f0a600100020000800370007
:101c9000820f5400838f5c00030039001000200085
:101ca00001003e000000200009f0a7000000ea004b
:101cb0004f05be004f04be000000e000000006001b
:101cc000881f7800030478000300e00007003d004f
:101cd00060001000e080180060011900e081190028
:101ce00002003b0001f02d00030037000400070054
:101cf00008f0a70001f0a0004f04780000000600e3
:101d0000889fbe008a9fbe0000827000040271009e
:101d100004827100260032000004be000200be00f2
:101d20006011b8006b092000950220000182cf00ed
:101d30000a0039000541b1000082cf0007003900d8
:101d40000541b1000982cf00040039000541b1000e
:101d50000882cf00010039000541b1000542520060
:101d6000120032000a003b008281710061016400b0
:101d70008100d1000080d3008984d3000884d3007f
:101d80008b05e8000442e800f7ff3a00070037003f
:101d90000804440089844c00000048008180480009
:101da0008b05e9000442e900f9ff3a00030007004f
:101db0004f05be004f04be00000006008100200059
:101dc000618055000b003d000b00200061fe2f00dc
:101dd0000100e1001d003400828171006101640096
:101de0008904d1000884d3000000e800faff3a001b
:101df00071002000610064000300700002006000b8
:101e00000900320061044400e0844c000988a50008
:101e1000050032008b05e8006808e10002003a0086
:101e20008904d1000884d300f20f20000258e10099
:101e300005003d00c75ddd00f907b200898075002f
:101e400008007800000006000bf827008b007800df
:101e5000000005000004be0014fc07000003be00e3
:101e60000405be000200be0010fc0700844f750090
:101e700000000600889fbe008a9fbe00300442001a
:101e8000b0844a0030054b0090854b006000b100e3
:101e90000898be000a90be000440e10005c8e100b9
:101ea00006d0e10007d8e1000200310068004000e0
:101eb0001008e8004f05be004f04be0000000600f9
:101ec000889fbe008a9fbe003004be002005be0071
:101ed0000418540005985c0006185d0007985d0022
:101ee000110020000440e10005c8e10006d0e10037
:101ef00007d8e100010039008000eb0010881000d5
:101f00004f05be004f04be0000000600f4874700e6
:101f1000889fbe008a9fbe008c9fbe008e1f7800e7
:101f2000d0b79f00e1b79f00f2b79f0083bf9f002b
:101f30000605be000404be00cfae97000000eb0013
:101f4000c0b79f00b0b79f00a0b79f0090b79f0099
:101f500080b79f00000678004fb097000001400056
:101f60000000e00006003d003c0007000f074700ae
:101f7000450007000f004000beff070005003700c6
:101f8000360007000f0747003f0007000f00400022
:101f9000cbff07004fb797000e00e0000c003500a4
:101fa0005fb29700efb297007fb397008fbb9700a7
:101fb00010002000010020006011b8000002720033
:101fc0008182720002037300838373001c00070088
:101fd0000c06e80001042000810f5600deff3a00e5
:101fe0000e00e00005003d000802be000a03be002e
:101ff00000fe2f000f0040009eff07000d00e000d4
:1020000005003a000fb297009fb297002fb39700d8
:10201000bfb397000a0007005fb09700efb09700ca
:102020007fb197008fb997004f0778004f06be0029
:102030004f05be004f04be004f01b1000000060076
:10204000010007000000060094b79f00a5b79f009d
:10205000b6b79f00c7b79f00000006009fb097006b
:102060004f08de0002017000a2b79f000fb097007a
:102070004f01de00818040008100710091b79f0018
:102080000efe2f0000000600de0078004f09de0083
:10209000000040000000710080b79f006fa897000b
:1020a0004f01de0081804000010f71000e0007002b
:1020b0004f3ade000000400004007000e0af9f00d7
:1020c000090007000402420085824a0006034b0013
:1020d00087834b00dcff07000802be000a03be0036
:1020e00000fe2f00000006001fb29700afb297005d
:1020f0003fb39700cfb3970000000600881f780019
:1021000018002000881f780080ff07008f87e900f3
:102110004f04780000000600801feb007bff0700e3
:102120008f87e90000000600889fbe008a9fbe00de
:10213000e00f5000e08f5800e00f5900e08f590089
:102140000c003d006044b8006055b8000000540029
:1021500081805c0002015d0083815d001800200029
:102160001500070008003d00180007000004eb0000
:10217000050037000004eb000f00070002003d00df
:102180001200070018002000dcff07000800e00034
:10219000060032006022b8006033b8000000520030
:1021a00081805a0002015b0083815b004f05be0005
:1021b0004f04be0000000600e00f5200e08f5a00fe
:1021c000e00f5b00e08f5b00000006006044b80099
:1021d0006055b8000402540085825c0006035d006f
:1021e00087835d0000000600889fbe008a9fbe00b6
:1021f0008c1f7800e00f5000e08f5800e00f59006e
:10220000e08f59000d003d006044b8006055b800f3
:102210000000540081805c0002015d0083815d004c
:102220001c0020000820e10009a8e1000ab0e1003c
:102230000bb8e1000d003d00080037000006eb0080
:10224000e00f5200e08f5a00e00f5b00e08f5b0070
:1022500006003d006044b8006055b8000402540018
:1022600085825c0006035d0087835d00aaff07008e
:102270000c00e000060032006022b8006033b800b5
:102280000000520081805a0002015b0083815b00e4
:102290004f0678004f05be004f04be000000060048
:1022a000889fbe008a9fbe008c1f78000006eb004e
:1022b000e00f5000e08f5800e00f5900e08f590008
:1022c00007003d006044b8006055b80000005400ad
:1022d00081805c0002015d0083815d001c002000a4
:1022e000e00f5200e08f5a00e00f5b00e08f5b00d0
:1022f00007003d006044b8006055b8000402540077
:1023000085825c0006035d0087835d000c00a200ef
:102310000c0007000c00e000060032006022b8004c
:102320006033b8000000520081805a0002015b0057
:1023300083815b004f0678004f05be004f04be004e
:1023400000000600889fbe008a9fbe008c9fbe00d2
:102350000404b8000506b8008904460060854e00f4
:102360000606b8000a054600e0854e000706b800dc
:102370008b054600040eb800890446000a854e000d
:10238000e0854d00050eb8000a0546008b854e001d
:10239000060eb8008b0546000416b8000a05460074
:1023a0008b854e000516b8008b054600041eb8004c
:1023b0008b0546000800be000a01be004f06be00a5
:1023c0004f05be004f04be00000006000800fa00e2
:1023d0000002be008501780003f0a1000001780032
:1023e000a6fd200097f42300860f5100878f590027
:1023f00006003e00f4ff2f00f5972300840f5100e4
:10240000858f5900640036005d0037004f0ade00fa
:1024100005002000163d2500b7072400860f510057
:10242000878f590019003e0036be2c00670124003a
:10243000860f5100878f59000a003e000400e0001b
:1024400004003200b2fd200093fc2300b5fa07001f
:102450004f003700b2fd200093fc2300a8fa0700cc
:10246000420037000400e00004003200b2fd20000a
:1024700093042400abfa070040003700b2fd2000af
:10248000930424009efa07003c003700561d2300e9
:10249000270e2400860f5100878f590019003e0037
:1024a000f6dd2e00f70a2400860f5100878f5900b1
:1024b0000a003e000400e0000400320042be2c008e
:1024c0006309240097fa07002800370042be2c0059
:1024d000630924008afa07002d0037000400e00099
:1024e00004003200b2fd2000930c24008dfa070096
:1024f00023003700b2fd2000930c240080fa07006f
:102500001f003700f4ff2f00f5f72700840f51005c
:10251000858f5900030036000001be0078fa0700dd
:102520001d003700688157004b0007006011b8009c
:1025300063016000e10f5100e08f59000900320093
:10254000e20f5100e08f59000a003200e00f510005
:10255000e08f59000c003a004fb89700dfb89700a1
:10256000070037004fb89700dfb897000c0007004e
:10257000090037004fb89700dfb8970001f0a200bc
:1025800090000700040037004fb89700dfb89700ad
:102590000300070001f0a2000080fa00000006001e
:1025a000889fbe008a9fbe008c9fbe000001be00b7
:1025b00020fc07000004be000001be001dfc070057
:1025c0000005be000200200003f02b000800be0042
:1025d00018fc07000200200003f8230051fa07004e
:1025e0000006be00f2a92a00a3d223000a00be0002
:1025f00010fc07000001be000c00be0049fa0700f5
:102600000006be000801be000a00be0009fc07006b
:102610000005be0072a12900c37c23000800be0093
:1026200004fc0700f243200063ab230034fa0700e8
:102630000001be000a00be00fefb07000001be0054
:102640000c00be0037fa07004f06be004f05be0063
:102650004f04be0000000600ea874700889fbe00c6
:102660008a9fbe008c9fbe008e1f78000006be00b1
:10267000020478000005be008b01780003f0a10081
:1026800000017800a0fd200091dc2400800f5100a3
:10269000818f59001e003e0032982f0023f2230044
:1026a0000c00be00e3fb07000200200003b424007e
:1026b0001cfa07000200200003b4240010fa0700ef
:1026c0000005be00b6f9070080047800a2fd2000d6
:1026d00093fc23000a00be00d6fb07000001be00e9
:1026e0000c00be0006fa07000006be00325a2800a1
:1026f000832823000a00be00cefb07000001be00b5
:102700000c00be00fef90700008cbe00260037005a
:10271000f0ff2f00f1f72700800f5100818f590043
:10272000060036000c01be000c00be00f4f90700e4
:10273000008cbe008004eb001b0037004718de0051
:10274000010020006009b1000180b100c702dd0076
:10275000040020000401510085815900768757004c
:10276000029fbe000002eb00130020000001780071
:102770008e007800768057004200070080047800c1
:10278000e00f5600e08f5e0005003d001e00be0019
:1027900001f0a200008cbe008904ea0002003700ac
:1027a0003e1c78002e147800090078004f0778004e
:1027b0004f06be004f05be004f04be00af00b10083
:1027c00000000600889fbe008a9fbe008c9fbe004e
:1027d0000005be000001be0096fb07000004be001d
:1027e0000a01be0093fb07000006be0042882800d5
:1027f00083c023000800be008efb0700b2aa2a0097
:10280000a3e22300bef907000001be000c00be00d9
:1028100088fb07000001be000a00be00c1f90700e6
:102820000005be000801be000800be0081fb0700d5
:102830000001be000c00be007efb07000006be00cb
:10284000c2c32600636323000800be0079fb0700b3
:10285000f27c200003952300a9f907000001be00c7
:102860000c00be0073fb07000001be000a00be00a2
:10287000acf907004f06be004f05be004f04be0076
:1028800000000600af17b000889fbe008a9fbe0000
:102890008c9fbe008e1f7800b0a79f0081af9f0065
:1028a0000204780003057800f4a79f0004004200aa
:1028b000a18e210000804000100078006101b90065
:1028c000b2af9f00c3af9f000a00e9006102b900e8
:1028d00094af9f00a5af9f006300540082012000c9
:1028e000050009000200d8006103b900d6a79f00c7
:1028f000e7a79f00e00f5300e08f5b0003003d005f
:102900006000b800d0a79f00e1a79f005fa19700db
:10291000efa197000280ea008380ea008201200094
:102920000300200000040700cfc1de0000044400c3
:10293000818449005fa29700efa297001fab970028
:10294000afab97000606520087865a003fa8970053
:10295000cfa897000002430081824b006eec2f004d
:102960000f074700c265dd00208f210080854500ec
:102970006011b8000803be000a04be000205be00d4
:10298000140037006000b800e00f5600e08f5e00d2
:102990000a0035001900be00d4b79f00e5b79f00bc
:1029a000f6b79f0087bf9f0039f907008fbb9700dc
:1029b0007fb39700efb297005fb2970000afbe0001
:1029c00061054500e0854d0061064600e0864e0049
:1029d000e4844400840f5500858f5d00e9ff3400d6
:1029e0000805780064f62f000f0242006011b8005d
:1029f000b2b79f00c3b79f00840678001e0037005f
:102a00003c00be004b01be00d4b79f00e5b79f005d
:102a1000f6b79f0087bf9f0006fb07000001be00be
:102a20000800be003ff907000004be005fb2970037
:102a3000efb2970061024200e0824a008fbb97002c
:102a40007fb397001fa89700afa89700800f520090
:102a5000818f5a00eaff340088aebe003fb1970074
:102a6000cfb1970061014100e0814900b2b79f00fa
:102a7000c3b79f000a05e8003fb29700cfb29700a6
:102a80003fa89700cfa89700800f5200818f5a006f
:102a900008003c003fa69700c255dd00a1ec2f00c6
:102aa0008f8040008b8540006044b8006022b800f1
:102ab000e4ff37003fa99700cfa99700b2b79f0066
:102ac000c3b79f0096b79f00a7b79f00bfb29700fc
:102ad0004228dd00a6e72f000f034300000043005b
:102ae00000bc900090bc90006de72f008f864600e0
:102af0003fb09700cfb0970061005000e0805800d1
:102b0000f0af9f0081b79f00c205dd00a1f62f0046
:102b10008f8040008b8540000d0578003fb3970003
:102b2000cfb397000d07780019003700020020008e
:102b3000033823000800be00f6b79f0087bf9f0040
:102b4000bcfa070096f80700d1f807000006be009f
:102b50000200200003b82400b6fa07000001be00fe
:102b60000800be00e6f807008df8070000adbe00c3
:102b70002b00be000c01be00eaf807000004be00f6
:102b80007fb397008fbb970061035300e0835b0026
:102b9000e00f5300e08f5b00e4ff3c008e067800fe
:102ba0001fb697000c0178000800be003403070030
:102bb0000004be000200200003e023009dfa07008d
:102bc000d0020700020020000310240099fa070039
:102bd0000001be000800be00c9f807000005be00e5
:102be0006ff807000004be00a9f807000001be004e
:102bf0000a00be00c2f807000005be001fb1970022
:102c0000afb19700e00f5100e08f5900220034006f
:102c1000ffa997004218dd00a4e72f000f02420031
:102c2000000042001002be00f80016000401be00c1
:102c3000010378000603e900030033008381d1001b
:102c40000281d300fbff370008044100898449005a
:102c50008100e90003003300020141008381490043
:102c6000fbff37000201520083815a000288be0038
:102c7000770016000202be000000e90003003300e6
:102c80008582d1000482d300fbff3700d4af9f00c0
:102c9000e5af9f001d0037001fb39700afb397004b
:102ca000e00f5300e08f5b000b003a00ffab970092
:102cb0004238dd00a1e72f008f80400000804000f7
:102cc0001000be004789de00d2af9f00cf89de0032
:102cd000e3af9f000d0037000200200003f0230047
:102ce0002df807002400200005002000d4af9f002d
:102cf000e5af9f000000e00009003d006033b80030
:102d0000d6af9f00e7af9f00620037005fa8970033
:102d1000efa89700e00f5000e08f58005d003400ee
:102d200061044400e0844c006000b8006022b800f8
:102d3000120037005d01be00e00f5200e08f5a0024
:102d400006003a00e00f5100e08f59000900320000
:102d5000040020000510200002003700f4ff2f00bf
:102d6000f50f2000821e520083965a0014002000a6
:102d70000500200061004000e08048003fb197005e
:102d8000cfb19700820f5000838f5800e9ff3500c4
:102d90001fb39700afb39700e00f5300e08f5b00c5
:102da00023003400e10f5300e08f5b000400320089
:102db000e20f5300e08f5b001d003a000e00370069
:102dc000ffab97004238dd00a1e72f008f80400065
:102dd000008040001001be0003037800f607b20037
:102de000a6a79f008203780097a79f001fa19700c6
:102df000afa197000d003700ffa997004218dd0032
:102e0000a6e72f000f034300000043001001be009f
:102e100083037800f703b20087a79f008200780041
:102e2000f19f9f007f9997008fa197000288be00b5
:102e30005fab9700efab9700e20f5300e08f5b00b2
:102e400014003a000a01be000000200001f823002f
:102e5000d4b79f00e5b79f0029f807000005be0022
:102e60005fb29700efb29700e00f5200e08f5a0078
:102e7000080032000c0178000000200001f8230057
:102e80007f0207000001be000a00be001cf8070018
:102e90000005be006011b8000a00be00bcf70700c4
:102ea0000000e00082003a003fb09700cfb09700ea
:102eb000ffab9700423add00a2e72f000f0141006f
:102ec000040241006011b800030037002403be0073
:102ed000060171008781710061005000e080580098
:102ee0003fab9700cfab9700860f5000878f5800fd
:102ef000f6ff3d00e00f5100e08f59007a003a00e4
:102f000061005300e0805b004200dd00a7e72f0076
:102f10008f83430000804300120020000300200044
:102f2000f2af9f0083b79f00120020000300200033
:102f30000200370061014100e08149002002be002b
:102f4000e00f5200e08f5a00faff3200f2af9f000c
:102f500083b79f003fb39700cfb397006102430050
:102f6000e0824b004226dd00a7f62f008f8343004e
:102f70000c8643005fa19700efa19700610041001c
:102f8000e08049003fb39700cfb3970000004300b3
:102f900081804b00c204dd00208f2100808444002a
:102fa0001fa99700afa9970061004100e080490088
:102fb0000000430081804b004201dd00a3ec2f00a4
:102fc0008f81410082814100c3a79f000004e80077
:102fd00009077800880678000404be00280037003e
:102fe0003e00be00aaf707004fa29700009abe005d
:102ff000c4a79f003fa29700c26add00a6ec2f0085
:103000000f034300850243006033b8006055b800e9
:10301000d89f9f00e99f9f000404be000d00370069
:103020003800be004901be00f6b79f0087bf9f0071
:1030300080f907000001be000a00be00b9f70700d2
:103040000005be007fb397008fbb9700610343006c
:10305000e0834b001fa99700afa99700820f530090
:10306000838f5b00eeff34005f9c9700ef9c97001e
:103070000a9ebe0061044400e0844c008d06e80016
:103080007faa97008fb297003fb39700cfb3970006
:103090000400430085804b00800f5400818f5c004a
:1030a000cfff3400b0b79f00c1b79f0087fe370045
:1030b00098af9f00a9af9f001fb49700afb49700cf
:1030c0000c01ea000a00be00ed0107000005be0089
:1030d0000200200003b824002ff707000000e000e2
:1030e00020003d004300370098af9f00a9af9f002c
:1030f0001fb49700afb497003fb09700cfb09700d0
:1031000061005000e0805800b0b79f00c1b79f0039
:1031100078045400e0845c00bfb097004208dd00f2
:10312000a2e72f000f014100000041003fb19700ce
:10313000cfb197000400370061015100e0815900d0
:1031400078045400e0845c002002be00e00f5200ce
:10315000e08f5a00f8ff3200b2b79f00c3b79f005c
:103160002c00370002002000033823000a00be00b4
:1031700030f907000af7070045f707000006be0010
:10318000bfb29700422fdd00a6e72f000f034300d8
:103190000e0743000200200003b8240025f90700b1
:1031a0000001be000a00be0055f70700fcf607004c
:1031b000008fbe003fb09700cfb097006100400085
:1031c000e0804800b0b79f00c1b79f00780444007a
:1031d000e0844c004205dd00a1e72f008f80400015
:1031e0000a8540000c00be00edf60700008dbe0011
:1031f000080037003fb197004216dd00a3e72f001b
:103200008f8141000c8641000a00be00e4f60700f1
:10321000008ebe00080178000000200001f82300a5
:10322000970107000004be003fb29700f4af9f0073
:103230008402e80095b79f00c22ddd00a6e72f00ad
:103240000f0343000b054300a7f62f008f834300b5
:103250008b8543003fb69700cfb697000d0037002f
:103260004a00be000af707000001be000800be00c9
:10327000f0f8070080a5be000200200003382300fc
:103280000800be00ebf807000004be00610656000f
:10329000e0865e00e00f5600e08f5e00f0ff3d002c
:1032a0006df12f008f8646003fb59700cfb5970090
:1032b0001c0037005c01be005e00be00d4b79f005a
:1032c000e5b79f00dbf807000001be000800be0064
:1032d00014f707000004be0061054500e0854d00bd
:1032e000efb297005fb297003fa89700cfa8970072
:1032f000800f5500818f5d0007003c003fb19700b3
:10330000cfb197000400510085805900800f55000f
:10331000818f5d00e7ff340088aebe00610552007a
:10332000e0855a00e00f5500e08f5d000b0035008e
:103330006e9f21000a06e9004266dd00a3f62f0019
:103340008f8141000c8641006044b8006000b800e5
:103350000a02be000005be00e3ff37007fa297000f
:10336000e20f520005003c00e10f520010003d004a
:103370000400e00017003200da003700ffa29700d7
:10338000e38f5200d7003a003fb397004232dd008e
:10339000a7f12f008f8343000482430004077800c5
:1033a0003fb39700cfb39700b4af9f0070003700d2
:1033b0001fb097004205dd00a1f12f008f80400073
:1033c0000a8540003fb49700cfb497006000b80072
:1033d0001d0037001fb197004214dd00a3f12f003c
:1033e0008f814100088441003fb59700cfb5970019
:1033f0006000b800040037004801be00c9f60700ad
:1034000061055500e0855d00e00f5500e08f5d002f
:10341000f9ff3d005faa9700efaa9700e00f520066
:10342000e08f5a000100320001f0a2008faa97003d
:10343000808abe00ab0037004a01be00b9f6070023
:1034400061045400e0845c00e00f5400e08f5c00f5
:10345000f9ff3d000001be005fab9700efab9700a6
:10346000e00f5300e08f5b000100320001f0a2008a
:103470008fab9700808bbe005f089700ef08970026
:103480009ff60700aaf12f000f0545001800200045
:1034900009002000040037005a01be00a1f6070011
:1034a00061044400e0844c003fb19700cfb1970025
:1034b000820f5400838f5c00f7ff34008fa99700c0
:1034c000648141005faa9700efaa9700e00f5200c5
:1034d000e08f5a000100320001f0a2000089be0016
:1034e00080003700c0ff2f00ffaa970080a8b90016
:1034f000000047003fb29700cfb297006101520031
:10350000e0815a004211dd00820240005506be00f3
:103510000e0278005405be000a01be000c00be0079
:10352000d4b79f00e5b79f00f6b79f0087bf9f0005
:103530007cf607000004be000001be000c00be00c7
:103540006ff607000001be000a00be0075f6070016
:103550005fb29700008abe00efb29700888abe0073
:103560007fb397008fbb970061035300e0835b003c
:1035700064075700e00f5300e08f5b00d9ff3c0069
:103580003faa97003fb39700cfb397000404780099
:1035900023003700c0ff2f00ffaa970080a8b900c2
:1035a000000044003fb29700cfb297006101520083
:1035b000e0815a00c214dd00890440005902be00b7
:1035c000080778005e06be000c01be000400be00c5
:1035d000d4b79f00e5b79f00f6b79f0087bf9f0055
:1035e00050f607000005be000001be005fb2970064
:1035f000efb297000400be0041f607000001be00d4
:103600000c00be0047f60700008fbe008a8cbe008b
:103610007fb397008fbb970061035300e0835b008b
:1036200064045400e10f5300e08f5b00d9ff3c00bd
:103630009fb29700422cdd00a6f12f000f0343003c
:10364000080443003fb59700cfb597006000b8006d
:10365000040037004801be0032f60700610555003e
:10366000e0855d00e10f5500e08f5d00f9ff3c0053
:103670005fa99700efa99700e00f5100e08f590074
:103680000b003a000fa997005f0a9700ef0a970016
:103690000499be007f0b97008f1397000689be0028
:1036a0008fab9700c0039800d10398000d0037003e
:1036b0005f0a9700ef0a970005f0a2000fa9970094
:1036c0000499be007f0a97008f12970005f0a200b0
:1036d0000489be0001f0a2000fa9970040019800e4
:1036e000510198009fa99700678061004f077800fb
:1036f0004f06be004f05be004f04be00af17b1001d
:10370000000006000c00fa00889fbe008a9fbe00e1
:103710008c1f78000004be006000b8006011b80083
:10372000f0b79f0081bf9f0092bf9f00a3bf9f0083
:10373000f8b79f0089bf9f007fb297008fba9700ac
:103740001fbb9700afbb9700443ade00f07f20001c
:103750000006620020432000800f560042003c001b
:103760006011b8000800be0089f507000000e00005
:103770003d0032007fb097008fb897001fb99700c7
:10378000afb99700e00f5000e08f5800e00f5900ec
:10379000e08f590008003d000200200003b0240023
:1037a0000800be00d6f507000200200003b0240088
:1037b000dcf50700070037000200200003b02400fa
:1037c0000800be00d7f507000200200003b0240067
:1037d000cbf507000801be00c9f507000005be00d3
:1037e000e03f2000800f56000f003c00dab79f003a
:1037f000ebb79f006044b8007fb097008fb8970088
:103800001fb99700afb99700e00f5000e08f580044
:10381000e00f5900e08f590013003d000800200020
:1038200009f82b00100037006011b8000a00be0034
:1038300059f507000000e000070034000a01be004f
:103840000800be00b7f507000200200003f82300bf
:10385000abf50700030037000a01be000800be00f8
:10386000b0f507000004be000800be004f06780057
:103870004f05be004f04be000080fa0000000600a5
:10388000889fbe008a9fbe0002047800f93f200096
:10389000890f54000d0034000200200003f82700b7
:1038a00064f70700f83fb100890f54001500340099
:1038b0000200200003f827005ef70700f83fb10080
:1038c000890f54000e003c000e00370029c02f0065
:1038d000890f54000b003d006011b80055f7070038
:1038e000983cb000890f540006003d006011b800fc
:1038f00050f70700983cb000890f540001003d00cc
:1039000009047800f83fb000cfc4de00614db90073
:103910006044b8000801be0046f707004f05be002e
:103920004f04be0000000600020ab900001bb900e7
:103930000200b80081004200810043000000060040
:020000040000fa
:10394000a4480000c2480000000000000000000081
:1039500084460000a8460000cc460000000000009d
:1039600060480000f0460000b247000098450000a3
:10397000a0450000a8450000b0450000b845000083
:10398000c0450000f04500004a46000052460000d5
:103990005a46000062460000764800008e4800004b
:1039a000a09c0000fc5500002a5600005456000060
:1039b0005c560000645600007056000000000000d5
:1039c000000000007c560000845600009c56000059
:1039d000b2560000e05600000a57000012570000df
:1039e0001a570000265700000000000000000000e9
:1039f000325700003a570000525700006857000045
:103a000096570000c0570000c8570000d05700006c
:103a1000dc5700000000000000000000e857000034
:103a2000f057000008580000262f0000b22f0000b9
:103a3000ca2f00002c300000903000000c31000034
:103a4000de310000ee3100005032000000000000c6
:103a50001e5800004a5800007858000084580000a2
:103a6000905800009c58000000000000e25900003f
:103a7000f4590000025a00000e5a0000185a0000c3
:103a8000245a00000000000068020000000000004e
:103a9000000000003c5a00005c5a0000b44e0000d8
:103aa000d64e0000924e0000324e0000f24d000053
:103ab000485000006250000026500000c64f000031
:103ac000864f0000dc480000fc4800004049000030
:043ad0002449000085
:020000040000fa
:103ad4000000fa00008380000000e00010003a00bb
:103ae400de0107000004e00006003200c18f800000
:103af4001000200001000100100020002900070030
:103b0400f4ff3700c18f8000f082800001000100c3
:103b14000070280031392000a61e0700edff370091
:103b240055000700680007009f010700008380001c
:103b3400e30f500012003200e30f500005003e0076
:103b4400e10f500008003200e20f50000a0032007a
:103b540011003700e40f50000b003200e50f500055
:103b64000b0032000c003700a19080000040eb00f5
:103b7400010001000a003700840007000800370034
:103b840001010700060037003f0107000400370069
:103b94005a01070002003700580107000000000026
:103ba400ccff37000200fa00000f78000083800089
:103bb4009e0f500007003200008380001d000700a4
:103bc4009e007800018388001e007800040007002e
:103bd40001003700000000000080fa000000060029
:103be4000200fa00000f78001e007800e30f500076
:103bf40009003200e40f500004003200e20f5000cc
:103c040009003a004b01070008003700e0dc80009f
:103c1400000001000500370000c0eb0018f2b700f7
:103c24000000000001003700000000000080fa00de
:103c3400000006000200fa00000f78001e00780061
:103c4400e30f500005003200e40f500007003a0073
:103c5400f0dc8000000001000500370000c0eb002c
:103c640018f2b70000000000010037000000000057
:103c74000080fa00000006000000fa005cd0bf00db
:103c84000080fb004500de00004078000080fb005f
:103c9400610060000000e00008003200b090800085
:103ca4000000010000908000000001005cd0bf0013
:103cb4000054a1005cf0b7000100370000000000d0
:103cc4000080fa00000006000000fa00e0d0bf0007
:103cd4000004e00020003200e1d0bf000080fb00bf
:103ce400e30f500012003200e30f500005003c00c7
:103cf400e10f500008003200e20f500009003200ca
:103d040014003700e50f50000c003200e60f50009d
:103d14000d0032000f00370050002000a1ff070003
:103d24000c003700200020009eff07000900370028
:103d3400300020009bff07000600370040002000f1
:103d440098ff0700030037001000200095ff0700cc
:103d540000000000e070ef00e2d0bf000004e000cb
:103d6400030032000040eb00b7010700e270ef00ef
:103d7400e3d0bf000004e00002003200d1010700dc
:103d8400e370ef000080fa00000006000000fa0073
:103d9400889fbe008a9fbe005cd0bf000080fb00ed
:103da4004200de00004078000080fb0061006000fb
:103db400004078000004e00004003200cd02070057
:103dc4005cd0bf000024a1005cf0b700a19080008b
:103dd40010c0b3000100010099d0bf00e14f5000b2
:103de4000e003a005cd0bf000080fb004400de00ff
:103df400004078000080fb00610060000000e000eb
:103e040003003a005cd0bf000044a0005cf0b7009f
:103e1400b0df8000000001001700370099d0bf0018
:103e2400e24f500014003a005cd0bf000080fb0059
:103e34004400de00004078000080fb006100600068
:103e4400004078000004e000070032005086800043
:103e54006186800090868800a18688005cd0bf00bf
:103e64000044a1005cf0b700c2df8000e083800062
:103e7400f183800002000100bc01070040dc8800df
:103e840051dc8800708380008183800060dc8800be
:103e940071dc8800a0db8000000001000004e00069
:103ea4002d003200a0dc8000b1dc8000d0848800ca
:103eb400e1848800508080008000eb00f6f3070066
:103ec400f226210033a82300d9f5070020808800ba
:103ed400318088002480800035808000008080004c
:103ee400118080000001be000400be0003f407003e
:103ef400d0868800e1868800588680006986800024
:103f0400da868000eb868000d0848000e184800023
:103f14000200200003272400e6f407000001be008d
:103f24000a00be00c2f5070002002000a3472400d7
:103f3400bff507000001be000800be00f8f307004b
:103f4400508688006186880020808000318080004f
:103f54000080880011808800f0d3800000000100f8
:103f64000004e00004003200a0d38000b1d380003c
:103f7400f0848800018588004f05be004f04be0010
:103f84000080fa00000006000000fa00a190800002
:103f940010c0b30001000100139080000001eb0089
:103fa40091c0b30010c0b300030001000004e0009e
:103fb40008003200e2d0bf000004e0000500320037
:103fc40010c0b30020010700e6d0bf0018f2b7000c
:103fd400e270ef0018d2bf000080fb00e40f500035
:103fe40021003200e50f500022003200e30f5000a0
:103ff40023003a005cd0bf000080fb004200de00da
:10400400004078000080fb00610060000040780000
:104014000004e00011003200360207003085800001
:104024004185800062e62900f353240080f50700ef
:104034008226220083062400b0f307000200200039
:10404400832c24009bf4070080dc880091dc88002a
:104054005cd0bf000024a1005cf0b700a0db8000ae
:104064000000010006003700d0db800000000100e2
:1040740003003700e0db80000000010000000000c6
:104084000080fa00000006000000fa00a190800001
:1040940010c0b30001000100139080000001eb0088
:1040a400d1c0b30010c0b300030001000004e0005d
:1040b40010003200e4d0bf000004e0000d00320024
:1040c40012d1bf000004e00005003200d2dc800001
:1040d400a0888000b188800002000100040037003d
:1040e400c2dc8000a0888000b1888000020001004a
:1040f400e470ef000080fa00000006000000fa00ff
:10410400a19080000040eb0001000100f0dc800081
:104114000000010007000700c18f8000d0082000c4
:10412400010001000000eb009efe07000080fa0081
:10413400000006000000fa000c30ef000a30ef0027
:104144006000b80000808800118088006000b8001a
:1041540020808800318088006000b8005086880084
:10416400618688006000b80090868800a186880077
:104174006000b80070868800818688006000b800fe
:10418400d0868800e18688009870ef0010c0b300e4
:1041940099f0b7005cd0bf000044a1005cf0b70008
:1041a4000080fa00000006000000fa005cd0bf00a6
:1041b4000080fb004600de00004078000080fb0029
:1041c400610060000000e0002100320000838000f4
:1041d400e30f500005003200e40f500008003200e5
:1041e400e20f50000b00320015003700b28f800040
:1041f400a0dc8000b1dc8000020001001000370068
:10420400b28f8000a0dc8000b1dc800002000100dd
:104214000b003700a18f80008f04b00080fb2f00bb
:104224000f004000820921002300090032187800a1
:104234008004b100010001008f04b10000000000ff
:104244005cd0bf000064a1005cf0b700010037003f
:10425400000000000080fa00000006000400fa00dc
:10426400c51c070080522200508f8800a0532200f2
:10427400608f880000552200708f880060562200ed
:10428400808f880000582200908f8800d08f800093
:10429400000001003290800031c0b30020c0b300a0
:1042a400020001000004e00063003200c0ea840060
:1042b40000000100f1ea8400f226210033a8230063
:1042c400e03a22000100010090db800000000100c0
:1042d400f0828800f08280000000e0004e003a0086
:1042e4000040eb00004f7800200037000e00e8008b
:1042f4001e487800e270ef00449080000e00e80051
:1043040013c0b3000001780091c0b300b0c0b30083
:10431400040001000004e0000e003200e2d0bf00ff
:104324000004e000050032000040eb0046000700f6
:10433400e270ef001e4fe8000c0037000009200077
:10434400f0828800c18f8000f082800001000100ab
:104354000900370000092000f0828800c18f800026
:10436400f082800001000100030037001e40780045
:10437400e64f5000ddff3600f08280000000e000d0
:1043840025003a000040eb00004f78001f00370082
:104394000e80e8001e487800e370ef00449080002f
:1043a4000e80e80013c0b3000001780081c0b300a0
:1043b400a0c0b300040001000004e0000d003200be
:1043c400e3d0bf000004e000040032003d00070019
:1043d400e370ef001e4fe8000c00370010092000c6
:1043e400f0828800c18f8000f0828000010001000b
:1043f4000900370010092000f0828800c18f800076
:10440400f082800001000100030037001e407800a4
:10441400e74f5000deff3600e0df800000000100bf
:10442400f08280000000e00003003a0010c0b300f6
:104434000080fa000000060000602400313c2200e5
:104444005c1c070093ff37000400fa008e80e8002c
:1044540080487800610e210091407800014f780077
:104464001e407800e54f50000d003e00b2db800096
:10447400fc8747007c805700810e21000d00090055
:1044840031187800c001b1000e80e8009040780037
:104494001e40780002000100fc8757000700370027
:1044a4001e407800e64f500004003a0082012100cb
:1044b400810e21000d000900311978000080fa00f6
:1044c400000006000200fa0041102100914078002b
:1044d400014f78001e407800e54f50000a003e006e
:1044e400c6db80007288800083888000508880004a
:1044f400618880000202be000001be001e407800f8
:1045040006000100170037001e407800e64f5000f7
:1045140009003a005088800061888000d0908800ab
:10452400e19088007088800081888000a0828800e3
:10453400b18288000b0037001e407800e74f50001e
:1045440008003a005088800061888000f09088005c
:10455400019188007088800081888000c082880072
:10456400d18288000080fa00000006000400fa00ee
:10457400889fbe0099d0bf00e14f50006d003a0003
:1045840010838000e10f500055003a002083800022
:10459400e10f500013003a00308380004183800013
:1045a40002002000a347240042f307000004be00d9
:1045b40040848000518480000200200003272400ee
:1045c4003cf307000001be000800be0039f30700f9
:1045d4005083880061838800508380006183800059
:1045e4005a00370020838000e20f500037003a0061
:1045f40040848000518480000200200003272400ae
:104604002cf307000001be000000200001f8230085
:1046140028f30700a0848800b184880030838000d8
:104624004183800002002000a347240021f30700f7
:104634000004be0040848000518480000001be005c
:1046440037f207000001be000800be0019f307009e
:104654008084880091848800508080008000eb0072
:104664000df20700f226210033a82300f0f307001f
:10467400008fbe008084800091848000f2282c008a
:1046840053d72300eaf307000004be00a08480008f
:10469400b1848000b2fd200093042400e4f30700f9
:1046a4001e01be00e2f3070047f707000001be0049
:1046b4000800be00def30700508388006183880091
:1046c40050838000618380002000370020838000b5
:1046d400e30f50001c003a006000b8001b003700d4
:1046e40010838000e20f500017003a00c08380005e
:1046f400d18380008080880091808800508580006c
:1047040061858000a0808800b180880020d62900bf
:1047140064004000900078000001210001000100c5
:104724000004e00008003200808280009182800052
:104734000600370099d0bf00e24f500002003a0053
:104744006000b800010037006000b8004f04be00ec
:104754000080fa00000006000400fa00881f7800b8
:10476400408080000000e800408088006080800075
:104774000000e80060808800708080000000e8008d
:104784007080880060808000f30f500004003600c1
:104794005cd0bf000064a0005cf0b7000c30ef00f8
:1047a40071808000703e2000808f5000040036002d
:1047b4005cd0bf000054a0005cf0b7000e30ef00e6
:1047c40041808000900f2000808f5000040036004c
:1047d4005cd0bf000024a0005cf0b7000830ef00fc
:1047e40000838000e20f50003f003a0050808000b8
:1047f4000000e80050808800508080008000eb00ba
:10480400a5f10700f226210033a8230088f307004e
:10481400008fbe00408480005184800018c0b30023
:104824001e01be005bf107000000e00001003d0036
:104834000044eb000804e0000300320010c0b300a1
:1048440099f0b7002800370040848000518480002c
:1048540018c0b3001e01be004cf107000000e000c8
:10486400010035000044eb000804e0000d003200b4
:10487400208480003184800018c0b3001e01be0073
:1048840044f107000000e00001003d000044eb009b
:104894000804e0000300320020c0b30099f0b70020
:1048a40011003700208480003184800018c0b300d8
:1048b4001e01be0035f107000000e00001003500d4
:1048c4000044eb000804e0000700320098d0bf0069
:1048d4000040e80098f0b7006000b80050868800f7
:1048e400618688000a30ef004f0478000080fa00e7
:1048f400000006000800fa006000b80064014700e8
:104904000089be0011c0b30010c7b300e41607004d
:104914000004e0004b00320019d2bf00e40047005d
:104924000101780080407800e0c6b30088160700d3
:104934000004e0003a003200640047001000be00aa
:10494400325c2f0083f223006cf10700b27b22005b
:104954003312240036f30700528d270093d6230028
:1049640054f20700008fbe0019d2bf000080fb0084
:10497400e20f500015003200e20f500003003c002b
:10498400e10f50000400320022003700e30f500012
:104994001b0032001f003700d0908000e19080009f
:1049a4001e01be0022f307000002be00a0828000a8
:1049b400b18280000001be000400be0058f107006f
:1049c400508588006185880012003700f0908000cf
:1049d400019180001e01be0015f307000002be0015
:1049e400c0828000d18280000001be000400be00ad
:1049f4004bf1070070858800818588000500370029
:104a0400640047001000be0030858800418588009e
:104a14000000000019d2bf000040e80019f2b700fe
:104a240019d2bf00e44f50000200360010c0b3009a
:104a340019f2b70019d2bf0080407800e0c6b30075
:104a4400f71507000080fa00000006000200fa00d3
:104a5400000f78001e007800210621001a000900ca
:104a6400b01878006003b1000080fa00000006006e
:104a74000200fa00000f78001e007800610e210089
:104a84000e000900b0187800e001b10010c0b300b6
:104a9400e2f0b7000080fa00000006000200fa000d
:104aa400000f78001e007800411021000600090064
:104ab400b0187800e000b10010c0b300e3f0b70014
:104ac4000080fa00000006000200fa00000f7800df
:104ad4001e0078001001be0092888800a388880018
:104ae4006400400090017800b388880010c0b300cf
:104af400e4f0b7000080fa00000006000200fa00ab
:104b0400004f78001e417800110e21008248780081
:104b140010c0b300e0f0b7000080fa000000060007
:104b24000000fa0041012000a03e2100d90e070038
:104b340041012000c04b2100d60e0700a100200037
:104b4400e0582100d30e0700a100200000662100d8
:104b5400d00e07004101200080812100cd0e070006
:104b6400040020000512240002002000a3322400c7
:104b7400408021007d0f07000000200001f8230081
:104b8400208d8800318d88006000b800408d880039
:104b9400518d88000000200001f82300608d8800fa
:104ba400718d88006000b800808d8800918d880028
:104bb4000000200001f82300a08d8800b18d88003a
:104bc4006000b800c08d8800d18d880000002000ee
:104bd40001f82300e08d8800f18d88006000b800a2
:104be400008e8800118e88000000200001f8230048
:104bf400208e8800318e88006000b800408e8800c6
:104c0400518e88000000200001f82300608e880087
:104c1400718e88006000b800808e8800918e8800b4
:104c2400040ea900216ea900214ea900006c2c00dd
:104c3400d10220005f1a0700040ea800216ea8000c
:104c4400214ea800006c2c00d1022000591a070044
:104c5400c0d18000000001000004a2000004e000b4
:104c640002003200000820002f003700d0d280005c
:104c7400000001000004a2000004e0000200320071
:104c8400100820002800370090e68400000001008e
:104c9400e1e684000000eb0001000100b0e68400be
:104ca40000000100f0e784000000010041e88400f6
:104cb4000000eb000100010010e884000000010086
:104cc40090e5840000000100b0e5840000000100cc
:104cd40080e684009000780040702200010001000a
:104ce4004158800000fc2f00008060000020a000dc
:104cf4004058880010c0b300e7f1b70020d629005f
:104d0400100078000000010070ea84000000010037
:104d1400a1ea840072712b0013852300a06922008c
:104d2400010001000000eb000080fa000000060012
:104d34000000fa00881f7800e7d1bf000004e000fb
:104d440012003200e771ef0041588000f0032000a8
:104d540000806000e30f500006003a0041588000d4
:104d640000fc2f00008060000020a0004058880054
:104d7400050037004158800000fc2f0000806000cf
:104d84003000b30040588800090ba800008d800053
:104d9400118d800072712b001385230060f00700d1
:104da400008d8800118d8800008d8000118d800099
:104db40018c0b300a2702d0033ba2300f5ef07002a
:104dc4000000e00001003d000044eb000804e000a6
:104dd4000200320010c0b3009ef1b700108f8000b3
:104de400218f800072712b00138523004cf0070083
:104df400108f8800218f88004f0478000080fa000b
:104e0400000006001a00fa00760147000009780045
:104e14007800470001087800780047001000780007
:104e24008000eb001cf0070052372300737023004e
:104e3400fff10700680147000089be0068004700d1
:104e4400d2cc2c00c3dc23001000be0019f10700f3
:104e5400924a2a0063f82300f5f107006011b800b4
:104e64002ff007006c0147000089be006c0047006a
:104e740002002000a34724001000be00ecf107004c
:104e8400c6ef070000007800cf80de00ffef0700c8
:104e940002002000a347240006f107007001470028
:104ea4000089be008040eb0066004700014878009e
:104eb40076004700100078000000e0000c003a0083
:104ec40020b52100000f7800212521000e80e80084
:104ed40001087800a13e2100640047000108780021
:104ee40011c0b30066004700014878000f00370086
:104ef4007600470010007800e10f500059003a0096
:104f040080b42100000f7800612921000e80e800a0
:104f140001087800c14b21006400470001087800b3
:104f24008040eb00660047000148780070004700ad
:104f34001001be006400470010007800070e07004f
:104f44001e0178000281e8000089be001e0078007e
:104f5400660040001000be000e81e80012017800d7
:104f64000089be001e0078000080e8001000be002a
:104f74000e81e80012017800640141000089be003e
:104f8400c0918000e10f50000a003a00660047001b
:104f9400104078000004a2000004e0000500320084
:104fa4001e0078000080e8001000be00a0dc88002d
:104fb400b1dc8800c09180000000e00009003a00e4
:104fc40066004700104078000004e000050032004d
:104fd4001e0078000080e8001000be00a0dc8800fd
:104fe400b1dc8800e8d1bf000004a2000004e000a6
:104ff4001900320020d62900640040009000780097
:105004000e80e80010007800010001000004e000b8
:10501400110032000e80e800100078000004b00097
:105024001000be0002f02300c371240080f10700c9
:105034005aef070074014700000978001e00780049
:10504400100078006a004000900078007400470067
:10505400100078000100010010c0b300e7f1b700b0
:1050640001003700000000000080fa000000060084
:105074000000fa009ed1bf000004e00039003200b5
:1050840036d2bf00e14f500018003a0062ea8400b3
:1050940036d2bf00e1b52100020001000004e000a7
:1050a40029003200f4da800005db8000e08d800006
:1050b400f18d80000001be000400be005cf1070019
:1050c4000002be00008e8000118e80000001be0030
:1050d4000400be0092ef0700f0da880001db8800cc
:1050e40020c0b30036f2b7001700370062ea84002c
:1050f40036d2bf0021b62100020001000004e00006
:105104001100320014db800025db8000208e80003b
:10511400318e80000001be000400be0044f107008f
:105124000002be00408e8000518e80000001be004f
:105134000400be007aef070010db880021db880042
:1051440010c0b30036f2b70051ea840036d2bf0073
:10515400010001006000b800008d8800118d8800f6
:105164009e71ef000080fa00000006000000fa00c3
:10517400889fbe0060dc800071dc80000001be00fe
:105184000000200001f823005cef07000002be00cd
:1051940040dc800051dc80000001be000400be0041
:1051a40023f10700a2ef2700a3f4230041f0070036
:1051b40000dc880011dc880064dc800075dc800081
:1051c40040dc800051dc80000001be000400be0011
:1051d40017f107000004be0000dc800011dc800031
:1051e4009241200063e5230011f107000001be0095
:1051f4000800be0041ef070020dc880031dc880095
:10520400a7000700a0dc8800b1dc8800a8dc8000cf
:10521400b9dc8000b40007000001be000800be0035
:105224003fef0700a0dc8800b1dc880010c0b300a9
:105234004f04be000080fa00000006001000fa00cf
:10524400000f78000e80e800010878006400470031
:105254000288be0068004700040878006a0047001e
:10526400050878006c004700060878006e004700c7
:10527400070878001e0078000002b00010007800d3
:10528400000001000004a2000004e0000d00320050
:1052940020d629006600400010017800680047000d
:1052a40090007800400420008088b90080007800d5
:1052b4002025210000804000020001006000b800a9
:1052c400750037001e007800760040001000be0014
:1052d400640147001201be0011ef07000e81e800cf
:1052e400120178000089be006a005700100078009f
:1052f4001000be006011b800a4ee07000000e0003a
:105304000f003a006e00470010007800104078004b
:105314000004a2000004e00017003200a1002000f5
:105324006800570010007800da0c07006e00470090
:105334009000780010c0b300804878000e00370059
:105344000e80e800100078001000be000001be00ce
:105354006800570010007800000d07000e81e80077
:10536400120178000089be006e00470090007800aa
:105374000040eb0080487800c19180006a0047003b
:1053840010007800808f500005003a000e80e8007d
:10539400100078001000be00a0dc8800b1dc88009a
:1053a4006a005700100078001000be006801470032
:1053b40092017800420420008299b90082017800a9
:1053c40022252100028141000089be000e80e800f0
:1053d400100078001000be006801470092017800b8
:1053e400420420008299b9008201780062252100dc
:1053f400028141000089be0020d6290064004000db
:1054040010017800680047009000780040042000f4
:105414008088b900800078002025210000804000a9
:10542400020001000004e0000d00320068004700a3
:1054340090007800400420008088b9000104200016
:105444008080400020252100008040001000be0024
:105454006c014700120178000089be000b00370080
:1054640020d629006600400010017800680047003b
:1054740090007800400420008088b9008000780003
:105484002025210000804000020001000e80e80079
:10549400100078001000be000080fa000000060032
:1054a4000000fa00408d8000518d800002b8210078
:1054b400821f7800e2582100821f7800071e210015
:1054c400e6b4210045002000440020000001be0095
:1054d40061b62100c0a3210058ff0700e4875700ec
:1054e4000080fa00000006000000fa00808d8000b1
:1054f400918d800042b82100821f7800026621004d
:10550400821f7800171e210086b521005500200057
:10551400540020000001be00a1b62100a0a121007a
:1055240046ff0700e48757000080fa0000000600e9
:105534000200fa00004f78000e00e80001487800ed
:105544009e80fb00400420008088b9008000780021
:10555400a025210000804000e1fd2f0081004700cc
:105564000d00090031187800c001b1000e00e800f8
:10557400104078000004e0003e0032001e80fb0072
:10558400c09188001e4078000004e00005003a0045
:105594006a0057001000be00c0da8800d1da880023
:1055a400340037001e407800e14f500005003a00f7
:1055b4006a0057001000be0070da880081da8800a3
:1055c4002c0037001e407800e24f500005003a00de
:1055d4006a0057001000be0040dc880051dc8800df
:1055e400240037001e407800e34f500012003a00b8
:1055f4009e80fb00400420008088b900e800400041
:1056040020252100008040001000be0060dc8800de
:1056140071dc88006000b800108f8800218f88003a
:10562400e671ef006a0057001000be0040dc8800fd
:1056340051dc88000f0037001e407800e44f500012
:1056440005003a006a0057001000be0000dc880024
:1056540011dc8800070037001e407800e54f500039
:1056640004003a006a0057001000be0020dc8800e5
:1056740031dc88000080fa00000006000a00fa000d
:10568400004f78000e80e8000288be0066004700e4
:105694000488be001e4078000004e00009003a00bf
:1056a4000e80e8001001be00628d8800738d8800b2
:1056b400660047001001be00828d8800938d88002b
:1056c4003b0037001e407800e14f500009003a00cb
:1056d4000e80e8001001be00228d8800338d880002
:1056e400660047001001be00428d8800538d88007b
:1056f4002f0037001e407800e24f500009003a00a6
:105704000e80e8001001be00a28d8800b38d8800d1
:10571400660047001001be00c28d8800d38d88004a
:10572400230037001e407800e34f500009003a0080
:105734000e80e8001001be00e28d8800f38d880021
:10574400660047001001be00028e8800138e880098
:10575400170037001e407800e44f500009003a005b
:105764000e80e8001001be00228e8800338e88006f
:10577400660047001001be00428e8800538e8800e8
:105784000b0037001e407800e54f500008003a0037
:105794000e80e8001001be00628e8800738e8800bf
:1057a400660047001001be00828e8800938e880038
:1057b4000080fa00000006000400fa00008fbe001a
:1057c40010002000c09188001e01be0080b421009a
:1057d4000a0007000080fa00000006000400fa0036
:1057e400008fbe003832ef001e01be0020b521003c
:1057f400020007000080fa00000006000800fa001a
:10580400881f78008e80e8008008780064004700d4
:105814000288be0010c0b300e7f1b70010c0b300a7
:10582400e8f1b70018c0b300640047006011b80085
:105834001000be0055ed07000000e0000100350037
:105844000044eb000804e000030032006000b800ec
:10585400640147000089be0018c0b300640047001b
:105864000200200003f823001000be0049ed0700e9
:105874000000e00001003c000044eb000804e000ec
:10588400040032000000200001f8230064014700f6
:105894000089be006400470002f02300c3712400a5
:1058a4001000be0062ef07003ced0700000f780017
