:020000040000fa
:080000000002040000000000f2
:020000040000fa
:040008009e06000050
:020000040000fa
:04000c009e0600004c
:020000040000fa
:040010009e06000048
:020000040000fa
:040014009e06000044
:020000040000fa
:040018009e06000040
:020000040000fa
:04001c009e0600003c
:020000040000fa
:040020009e06000038
:020000040000fa
:040024009e06000034
:020000040000fa
:040028009e06000030
:020000040000fa
:04002c00b605000015
:020000040000fa
:040030009e06000028
:020000040000fa
:040034009e06000024
:020000040000fa
:040038009e06000020
:020000040000fa
:04003c009e0600001c
:020000040000fa
:040040009e06000018
:020000040000fa
:040044009e06000014
:020000040000fa
:040048009e06000010
:020000040000fa
:04004c009e0600000c
:020000040000fa
:040050009e06000008
:020000040000fa
:040054009e06000004
:020000040000fa
:040058009e06000000
:020000040000fa
:04005c009e060000fc
:020000040000fa
:040060009e060000f8
:020000040000fa
:040064009e060000f4
:020000040000fa
:040068009e060000f0
:020000040000fa
:04006c001605000075
:020000040000fa
:040070009e060000e8
:020000040000fa
:040074009e060000e4
:020000040000fa
:040078009e060000e0
:020000040000fa
:04007c009e060000dc
:020000040000fa
:040080009e060000d8
:020000040000fa
:040084009e060000d4
:020000040000fa
:040088009e060000d0
:020000040000fa
:04008c009e060000cc
:020000040000fa
:040090009e060000c8
:020000040000fa
:040094009e060000c4
:020000040000fa
:040098009e060000c0
:020000040000fa
:04009c009e060000bc
:020000040000fa
:0400a0009e060000b8
:020000040000fa
:0400a4009e060000b4
:020000040000fa
:0400a8009e060000b0
:020000040000fa
:0400ac009e060000ac
:020000040000fa
:0400b0009e060000a8
:020000040000fa
:0400b4009e060000a4
:020000040000fa
:0400b80096050000a9
:020000040000fa
:0400bc009e0600009c
:020000040000fa
:0400c0009e06000098
:020000040000fa
:0400c4009e06000094
:020000040000fa
:0400c8009e06000090
:020000040000fa
:0400cc009e0600008c
:020000040000fa
:0400d0009e06000088
:020000040000fa
:0400d4009e06000084
:020000040000fa
:0400d8009e06000080
:020000040000fa
:0400dc007e0600009c
:020000040000fa
:0400e0009e06000078
:020000040000fa
:0400e4009e06000074
:020000040000fa
:0400e8009e06000070
:020000040000fa
:0400ec009e0600006c
:020000040000fa
:0400f0009e06000068
:020000040000fa
:0400f4009e06000064
:020000040000fa
:0400f8009e06000060
:020000040000fa
:0400fc009e0600005c
:020000040000fa
:040100009e06000057
:020000040000fa
:040104009e06000053
:020000040000fa
:040108009e0600004f
:020000040000fa
:04010c009e0600004b
:020000040000fa
:040110009e06000047
:020000040000fa
:040114009e06000043
:020000040000fa
:040118009e0600003f
:020000040000fa
:04011c009e0600003b
:020000040000fa
:040120009e06000037
:020000040000fa
:040124009e06000033
:020000040000fa
:040128005605000078
:020000040000fa
:04012c009e0600002b
:020000040000fa
:040130009e06000027
:020000040000fa
:040134009e06000023
:020000040000fa
:040138009e0600001f
:020000040000fa
:04013c009e0600001b
:020000040000fa
:040140009e06000017
:020000040000fa
:040144009e06000013
:020000040000fa
:040148009e0600000f
:020000040000fa
:04014c009e0600000b
:020000040000fa
:040150009e06000007
:020000040000fa
:040154009e06000003
:020000040000fa
:040158009e060000ff
:020000040000fa
:04015c009e060000fb
:020000040000fa
:040160009e060000f7
:020000040000fa
:040164009e060000f3
:020000040000fa
:040168009e060000ef
:020000040000fa
:04016c009e060000eb
:020000040000fa
:040170009e060000e7
:020000040000fa
:040174009e060000e3
:020000040000fa
:040178009e060000df
:020000040000fa
:04017c009e060000db
:020000040000fa
:040180009e060000d7
:020000040000fa
:040184009e060000d3
:020000040000fa
:040188009e060000cf
:020000040000fa
:04018c009e060000cb
:020000040000fa
:040190009e060000c7
:020000040000fa
:040194009e060000c3
:020000040000fa
:040198009e060000bf
:020000040000fa
:04019c009e060000bb
:020000040000fa
:0401a000d605000080
:020000040000fa
:0401a4000e06000043
:020000040000fa
:0401a8009e060000af
:020000040000fa
:0401ac009e060000ab
:020000040000fa
:0401b0009e060000a7
:020000040000fa
:0401b40046060000fb
:020000040000fa
:0401b8009e0600009f
:020000040000fa
:0401bc009e0600009b
:020000040000fa
:0401c0009e06000097
:020000040000fa
:0401c4009e06000093
:020000040000fa
:0401c8009e0600008f
:020000040000fa
:0401cc009e0600008b
:020000040000fa
:0401d0009e06000087
:020000040000fa
:0401d4009e06000083
:020000040000fa
:0401d8009e0600007f
:020000040000fa
:0401dc009e0600007b
:020000040000fa
:0401e0009e06000077
:020000040000fa
:0401e4009e06000073
:020000040000fa
:0401e8009e0600006f
:020000040000fa
:0401ec009e0600006b
:020000040000fa
:0401f0009e06000067
:020000040000fa
:0401f4009e06000063
:020000040000fa
:0401f8009e0600005f
:020000040000fa
:0401fc009e0600005b
:020000040000fa
:040200009e06000056
:020000040000fa
:040204009e06000052
:020000040000fa
:040208009e0600004e
:020000040000fa
:04020c009e0600004a
:020000040000fa
:040210009e06000046
:020000040000fa
:040214009e06000042
:020000040000fa
:040218009e0600003e
:020000040000fa
:04021c009e0600003a
:020000040000fa
:040220009e06000036
:020000040000fa
:040224009e06000032
:020000040000fa
:040228009e0600002e
:020000040000fa
:04022c009e0600002a
:020000040000fa
:040230009e06000026
:020000040000fa
:040234009e06000022
:020000040000fa
:040238009e0600001e
:020000040000fa
:04023c009e0600001a
:020000040000fa
:040240009e06000016
:020000040000fa
:040244009e06000012
:020000040000fa
:040248009e0600000e
:020000040000fa
:04024c009e0600000a
:020000040000fa
:040250009e06000006
:020000040000fa
:040254009e06000002
:020000040000fa
:040258009e060000fe
:020000040000fa
:04025c009e060000fa
:020000040000fa
:040260009e060000f6
:020000040000fa
:040264009e060000f2
:020000040000fa
:040268009e060000ee
:020000040000fa
:04026c009e060000ea
:020000040000fa
:040270009e060000e6
:020000040000fa
:040274009e060000e2
:020000040000fa
:040278009e060000de
:020000040000fa
:04027c009e060000da
:020000040000fa
:040280009e060000d6
:020000040000fa
:040284009e060000d2
:020000040000fa
:040288009e060000ce
:020000040000fa
:04028c009e060000ca
:020000040000fa
:040290009e060000c6
:020000040000fa
:040294009e060000c2
:020000040000fa
:040298009e060000be
:020000040000fa
:04029c009e060000ba
:020000040000fa
:0402a0009e060000b6
:020000040000fa
:0402a4009e060000b2
:020000040000fa
:0402a8009e060000ae
:020000040000fa
:0402ac009e060000aa
:020000040000fa
:0402b0009e060000a6
:020000040000fa
:0402b4009e060000a2
:020000040000fa
:0402b8009e0600009e
:020000040000fa
:0402bc009e0600009a
:020000040000fa
:0402c0009e06000096
:020000040000fa
:0402c4009e06000092
:020000040000fa
:0402c8009e0600008e
:020000040000fa
:0402cc009e0600008a
:020000040000fa
:0402d0009e06000086
:020000040000fa
:0402d4009e06000082
:020000040000fa
:0402d8009e0600007e
:020000040000fa
:0402dc009e0600007a
:020000040000fa
:0402e0009e06000076
:020000040000fa
:0402e4009e06000072
:020000040000fa
:0402e8009e0600006e
:020000040000fa
:0402ec009e0600006a
:020000040000fa
:0402f0009e06000066
:020000040000fa
:0402f4009e06000062
:020000040000fa
:0402f8009e0600005e
:020000040000fa
:0402fc009e0600005a
:020000040000fa
:040300009e06000055
:020000040000fa
:040304009e06000051
:020000040000fa
:040308009e0600004d
:020000040000fa
:04030c009e06000049
:020000040000fa
:040310009e06000045
:020000040000fa
:040314009e06000041
:020000040000fa
:040318009e0600003d
:020000040000fa
:04031c009e06000039
:020000040000fa
:040320009e06000035
:020000040000fa
:040324009e06000031
:020000040000fa
:100400008fbd21000eff22000e01880000000000b9
:10041000000020000000e000020032000001200087
:100420002002880014000700460207000000e000d8
:1004300003003a00e0892400010020000200370098
:100440000000200001002000810f70000100320038
:100450000f000700000020000000e0000200320052
:1004600000000200000000000e2602000000000054
:100470000040da000000fe00a00c20000000e000b8
:1004800002003200002020009001880000000600d9
:10049000a1028800800478000000eb001f003700f4
:1004a000e284440054a0b4009905ba00e2844400f8
:1004b00054a0b4009906ba00e284440054a0b400e9
:1004c0000006eb00476fde00fd07b200ae018800ba
:1004d000636ce10003003a000ad801000000eb0061
:1004e0000e003700606ce10008003a00004deb00a0
:1004f0000a05e800020039003420ec000af0a000f0
:100500008b05e900f9ff3e00040037006168e10057
:10051000010032000086eb000b00070019c7ba008b
:100520001905ba000e04e00003003a000a00e000da
:10053000dbff3a0000000600fe07b200ae028800b2
:100540008a047800f5ff37000cd0a300e20f4d00bd
:100550001c003b0089027800354dba000a05e8000e
:10056000020039003420ec000af0a0008b05e900fd
:100570000f003200254dba000a05e80002003900dc
:100580003420ec000af0a0008b05e90008003200de
:100590000c00e0000600320015cdba000a05e800a4
:1005a000020039003420ec000af0a0008b05e900bd
:1005b0008984e80054a0b4000b00e000e2ff3a0098
:1005c000000006009902ba00055d78008b05e9007d
:1005d000f7ff3200c82ade00055d78008b05e900d0
:1005e000f3ff32000c00e000f1ff320019ddba0029
:1005f000eeff3700000000000000000000000000d7
:1006000000000000000000000000000000000000ea
:1006100000000000000000000000000000000000da
:1006200000000000000000000000000000000000ca
:1006300000000000000000000000000000000000ba
:100a20000000000000000000000000003600f80098
:100a3000809fbe00829fbe00849fbe00869fbe0036
:100a40000000fa000228a900211080000008200000
:100a5000008060000000e0000c00320004e2a90009
:100a60000000eb0030de88000000eb0040de880074
:100a70000000eb0000de88000000eb0010de8800c4
:100a80000000eb00f0dd880001003700c51707000b
:100a90000080fa004f03be004f02be004f01be00af
:100aa0004f00be003600f900004006003600f80096
:100ab000809fbe00829fbe00849fbe00869fbe00b6
:100ac0000000fa000000eb0030de88000000eb00c0
:100ad00040de88000000eb0000de88000000eb0034
:100ae00010de88000000eb00f0dd88002000200010
:100af000e0dd88000542a900a09080000000e00031
:100b000002003200a0908000000001000808a90047
:100b10000080fa004f03be004f02be004f01be002e
:100b20004f00be003600f900004006003600f80015
:100b3000809fbe00829fbe00849fbe00869fbe0035
:100b40000000fa0020918000000001000488a90044
:100b50000080fa004f03be004f02be004f01be00ee
:100b60004f00be003600f900004006003600f800d5
:100b7000809fbe00829fbe00849fbe00869fbe00f5
:100b80000000fa0030918000000001000028a90058
:100b90000080fa004f03be004f02be004f01be00ae
:100ba0004f00be003600f900004006003600f80095
:100bb000809fbe00829fbe00849fbe00869fbe00b5
:100bc0003200f8003400f80010002000a001880076
:100bd0000020200000d0fe000200fa00916080009a
:100be000010f7800529080009e0078000000eb001a
:100bf000020001000bc8a9000080fa003400f900cf
:100c00003200f9004f03be004f02be004f01be008c
:100c10004f00be003600f900004006003600f80024
:100c2000809fbe00829fbe00849fbe00869fbe0044
:100c30003200f8003400f80010002000a001880005
:100c40000020200000d0fe000200fa00a160800019
:100c5000010f7800529080009e0078001000200064
:100c6000020001000be8a9000080fa003400f9003e
:100c70003200f9004f03be004f02be004f01be001c
:100c80004f00be003600f900004006003600f800b4
:100c9000809fbe00829fbe00849fbe00869fbe00d4
:100ca0003200f8003400f80010002000a001880095
:100cb0000020200000d0fe000200fa00e160800069
:100cc000010f7800529080009e00780020002000e4
:100cd000020001000c68a9000080fa003400f9004d
:100ce0003200f9004f03be004f02be004f01be00ac
:100cf0004f00be003600f900004006003600f80044
:100d0000809fbe00829fbe00849fbe00869fbe0063
:100d10000000fa00009080000000010005a8a90072
:100d20000080fa004f03be004f02be004f01be001c
:100d30004f00be003600f900004006000040da0017
:100d40000000fe000000050014002000af03370083
:100d5000f4ff2f00ad0337000001be004100070083
:100d60000470a70003f0a1006509b100160032006d
:100d70000d0035006828e10006003500f0ff2f0067
:100d8000f1ff27000300e00013003b0001002800f2
:100d90000000050000004000818048008502e90055
:100da000fcff3a0008003700f88f420002003c00c8
:100db0008000eb00000005008100d1000080d3001e
:100dc0008502e800fcff3a000300e00002003b005f
:100dd00060001000e0801800000006000001be0066
:100de000200007000470a70003f0a10003f8a3008f
:100df00013003a006509b100100032000900350007
:100e00006928e1000200350001002800000005000b
:100e100000004000818048008502e900fcff3a00a4
:100e200000000600f88f4200050035008100d10067
:100e30000080d3008502e800fcff3a0000000600b5
:100e40008000eb00000005004f89de008201780081
:100e5000890337006011b8009703370004002000b1
:100e60006a033700c70ade00f107b200f50fb200cf
:100e700008003200e1cf4200020032000170a00001
:100e800024000500810f70000100320004080500f5
:100e900044000500810f700002003a0014000500b4
:100ea0008502e9000000400081c04800fcff3b00d3
:100eb0000170a0002400050007f8270007836100e7
:100ec0000638e10004003a00f7072000878361003c
:100ed0008703710001003a0003f0a200889fbe0062
:100ee0008a9fbe008c9fbe00470ade000480a100de
:100ef000c71ade000580a1000700280007856000f2
:100f000087856100f70f20000720e1009e00320076
:100f10000728e1009c003200010678000400e00090
:100f2000b4003200f7072000878060000170a00045
:100f30000500e000c0003200f70720008781610053
:100f40000370a000050652000f003a000b50e100ac
:100f50000b0032000308e10002003a000200e10049
:100f60007e003200020450008384580004003100e7
:100f70000001fd008101fd008402fd008a05fd00e5
:100f80006044b800210037000520e10005003d0065
:100f90000001fd008101fd008402fd008a05fd00c5
:100fa000050652007a60e100050035000170a100dd
:100fb0004722dd00848070008a8070006300370063
:100fc0006044b800ef02660007ff2f0007066600c6
:100fd0000500e00006003400f08312008714dd00f5
:100fe0000511de00071bdd00060171008519de001a
:100ff0007060e10005003500090478008204780083
:10100000030178008001eb00700656000b50e100f0
:1010100003003a00020040008380480004003700cb
:1010200060041400e0841c00020058008380580013
:101030000188a300060032008100d1000080d300a7
:101040008984d3000884d3000402e8002700370015
:101050000178a30025003a000100e00003003200ff
:101060008186cf00698656000a0037008c00200078
:101070000000e00004003a000900780088047800cd
:101080000004eb00700252008086cf000d0646007f
:101090000c06e9007060e100060035008000780071
:1010a00009007800880478000004eb007006560000
:1010b000700252000c00e0000c0034008c08dd00cf
:1010c000f00316000703de00868070000c00dd00d0
:1010d000074bde00060070008c4cdd000743de008d
:1010e000868474000c44dd000c0252006120e10093
:1010f000200035006101600007002800878164003e
:10110000f7ff270087836400070374000300e000f3
:101110000600320082037300040032000000e80081
:10112000e08048000188a3000e003a00f70f20007d
:101130000720e1004a003d000170a1004722dd00c8
:10114000810072008a8070000000be004f06be0061
:101150004f05be004f04be00000006006000b8004e
:10116000faff37008100d1000080d3000402e800bc
:10117000eeff37000401780089017400a101070027
:101180008a807000f1ff3700f7010700070278003e
:101190000001fd008101fd00f301070087027800d6
:1011a000850372000778a300040032000001fd00ef
:1011b0008101fd0006020700e4ff3700850362009d
:1011c0000768a300080032000b50e1000300320062
:1011d000f0ff2f00f1ff2700dcff37000001fd00ca
:1011e0008101fd00d9ff37000468a300d7ff32005a
:1011f000faff3700f8ff2700888360000b003a00f1
:101200000000e00009003a00830364008283730059
:10121000020032000200be00ccff37000b50e1009c
:10122000ceff3a000200be00c8ff370014002000c5
:10123000810064003eff3700f8ff270088836100cb
:1012400004003a000200e00002003a008c0078003e
:10125000beff3700150020008301640039ff37000e
:1012600001f827000000200081007500b7ff37005b
:10127000889fbe008a9fbe008c9fbe001b0020007e
:101280000202be0005866800060028000606660009
:101290004709de00f20fb200820032000243e8008c
:1012a00080003200c729de00f30fb2007d0032005b
:1012b0000343e8007b003200f107b2000170a00098
:1012c000f507b2000570a000c708dd004903de0085
:1012d000868070004700dd00c72add004923de005c
:1012e000868272004722dd0003055100040350008e
:1012f00085835800030031000000400081804800d1
:101300000a05e9008c1f78008a9fbe000400500087
:10131000858058000402420085824a000000400097
:10132000818048000005eb000004be006033b80077
:101330000406be000d48e10056003100050009001a
:101340004dccd8000c01b8000d02b80084814100da
:1013500060824a008283530003045c0084845c0042
:1013600060055d000a00e00025003a008005780075
:101370000d40e10049003100880078000700780046
:10138000050009004d88d8000c01b8000d02b80016
:101390008481410060824a006003110083835b0006
:1013a00004045c00e0845c000900e00021003a00d5
:1013b0004f01be000300e0002b003200e30160009b
:1013c000070673008c817100010032006400700018
:1013d0004200de004e5edd000c007000c258de00f0
:1013e00001e0a00083010700cf0178008180710037
:1013f0004f06be004f05be004f04be0000000600b1
:101400008c8343000d044c00e0844c0060054d00cb
:101410000000e9000a00e000d4ff32008c834300a2
:101420000d044c00e0844c0060054d000000e90014
:10143000ceff37000c0343008d834b0060044c004b
:10144000e0844c000000e9000900e000d8ff320011
:101450000c0343008d834b0060044c00e0844c007f
:101460000000e900d2ff37004200de004e5edd00e2
:101470000c007000c258de0001e0a000cf0178002f
:101480000300e000daff320060001000e080180086
:10149000d7ff3700f0ff2f00aaff3700f0ff2f0023
:1014a000b9ff37000404be002f010700870678004b
:1014b0000004fd008104fd002b0107000783660086
:1014c0000678a300030032000960a7000800be00f0
:1014d0002c0037000d78a300020032000800be0087
:1014e000280037000778a30026003a0001f0a10089
:1014f00009f0a1000668a30003003200f1ff2700f5
:10150000f0ff2f00baff37000d68a3000300320080
:101510000800be008c807000b5ff37000768a3008c
:1015200007003a000648a30003003200f1ff27003d
:10153000f0ff2f00aeff37000d48a300030032007c
:101540006000b8008c807000a9ff37000748a30036
:101550000400320001f82700000020008c80700099
:10156000a3ff3700760107000004fd008104fd00a1
:1015700002057800720107000802be008a017800a7
:1015800059ff37000160a00012022000429188003c
:1015900097ff37000100e000120032000500e00074
:1015a00010003200889fbe008a9fbe008c9fbe0044
:1015b0000006eb0001f8a3000300320060001000f9
:1015c000e08018000cf0a00005f8a3000300320032
:1015d00060021200e0821a000cf0a2008005eb000d
:1015e00041ff37006000b800020005000383680077
:1015f0000700280007036300470ade000480a100fb
:10160000c71ade000580a100f70f20000720e100c7
:10161000420032000728e10040003200889fbe00ef
:101620008a9fbe008c1f7800f107b200f307b2005a
:101630000400e000640032000170a0000500e0003a
:10164000680032000370a00085054200eb07b1007e
:101650000204b8000302b8008484440060854a0094
:10166000020ab800848444000a854a00030ab800cc
:1016700004054500040033000804d0008984d2002a
:101680000a85d2008b05e9006158e1003d00350074
:101690000210200009016100030820008981610017
:1016a000f70720008783640008867300c84cde00bb
:1016b000c853dd00878474004855de000300e00055
:1016c0000600320082037600040032008904e8003c
:1016d00060054d000a88a3000c003a00f70f2000b7
:1016e0000758e10044003d000a70a100c75ddd001d
:1016f0000a8575008a007300090078004f0678009b
:101700004f05be004f04be00000006000a05d100d0
:101710008984d3008b05e800f0ff3700881f78002c
:101720000604780090000700070278000001fd0021
:101730008101fd008c00070087027800850372009c
:101740000778a300050032000001fd008101fd00c3
:101750009f0007004f047800000006008503720018
:101760000748a30003003200f0ff2f00f1ff27001d
:10177000f8ff37000000200001f827008880700083
:10178000f4ff3700880178004848dd00808171004f
:101790004848de00c850dd0001007000c850de007f
:1017a000060478000b01780016000700888070009e
:1017b000d2ff37000500e0000500320017002000ce
:1017c0003a0007009dff370081037000f9ff3a00df
:1017d000860078004f0678004f05be004f04be001b
:1017e0000000050083037100f9ff3200270020008c
:1017f0002e00070094ff370001f827008680700054
:10180000f4ff37000100e000260032006101110002
:101810007810e10023003c006022b8007010e10065
:101820000400350080027800010078008000eb00a1
:10183000700151000200e000090034007003110043
:10184000062add00822ade008603dd008782720020
:101850000200de00860bdd00070070008208de005b
:1018600084817100f4ff270004826200848171008a
:1018700004002800848262006102600005f0a60076
:101880000000060004827100070032000000e8003a
:10189000e0804800000006000002be006000b800c2
:1018a000efff37006000b80000000600889fbe0010
:1018b0000004eb006138e10016003a000100e0008e
:1018c00008003a00c800de004800dd008800200063
:1018d0000100e00003003a00c800de004800dd001f
:1018e000680444008184cf00e98454000600340079
:1018f0008908dd00f08314008703de008780700014
:101900000900dd0009044400610214004f04be0018
:10191000000006000300e00008003a00c811de00e5
:101920004811dd00880020000300e00003003a00b9
:10193000c811de004811dd00680444008384cf0034
:10194000e9845400060034008919dd00f083140096
:101950008713de00878171000911dd00090444004e
:10196000e1021400e9ff37002700200001f0a70082
:1019700017002000470bde00f60fb2000400320013
:101980000643e8000a0032004702b30000000600e8
:1019900001037800f607b2000603700002003a0067
:1019a0000703b300000006008702b3000000060032
:1019b00001037800f607b20006037000020032004f
:1019c0000770a000000006000760a00000000600ed
:1019d0000478a300040032000578a300030032005d
:1019e0000168a30001003a000200be000160a000ef
:1019f0000000060081017000270032008002eb0029
:101a000001f8a3000300320060001000e08018001d
:101a100015002000f40720000202420020003400dc
:101a2000f703200087036000060420000003630022
:101a300002082000000161004700de00c909dd0046
:101a400000807100c708de000600e00008003200d8
:101a500087037100060032001000b0000180b00062
:101a60000188a30002003200c108de000402e80081
:101a7000f107b200f30f20000320e10003003d0056
:101a80004722dd00810072002900370001f827009d
:101a90000000eb00260037006000b80000000600e0
:101aa000680212007f20e100020034006000b800ec
:101ab0001f0037006011b8007020e10004003500fd
:101ac00080017800010078008000eb007002520075
:101ad0000400e00009003400f00312000719dd00e3
:101ae0008419de000703dd00868171000400de003a
:101af000070bdd00060070008408de00f7ff2700fa
:101b000083836300870371000600280003036300da
:101b1000070032000700e00003003a0061016000a6
:101b200002817300020032001000b0000180b0009a
:101b30000500a6000000060001f0a000000006005d
:101b40004f0ade004709de00f107b200f20fb200d3
:101b50000b003200f207b1000170a000c708dd00e1
:101b6000c901de00838070004700dd000400a6008c
:101b70000000060060001000e08018000000060071
:101b8000810f700001003a00000006008182cf0042
:101b90000500e00010003e008082cf00ee8242008f
:101ba0007028e1000400390007003e008000780042
:101bb0000000eb000e003700708312008600de008c
:101bc0000500dd000a003700708352008600dd004a
:101bd0000000eb0006003700e28252008508dd00bd
:101be000708312000603de00868070000500dd00b1
:101bf0007507b0000501ea000400a6000000060019
:101c000060001000e080180000000600889fbe0001
:101c10008a9fbe00841f78007c0007004f00780078
:101c200011003300f0ff2f00838f6c0006003b0093
:101c3000040565000a00a7000800370009f0a600a7
:101c40001000200008003700820f5400838f5c00d2
:101c5000030039001000200001003e0000002000b9
:101c600009f0a7000000ea004f05be004f04be00c7
:101c70000000e00000000600881f780003047800e0
:101c80000300e00007003d0060001000e080180045
:101c900060011900e081190002003b0001f02d00f5
:101ca000030037000400070008f0a70001f0a000bf
:101cb0004f04780000000600889fbe008a9fbe0087
:101cc000008270000402710004827100260032005c
:101cd0000004be000200be006011b8006b092000c5
:101ce000950220000182cf000a0039000541b100b1
:101cf0000082cf00070039000541b1000982cf0002
:101d0000040039000541b1000882cf00010039000c
:101d10000541b10005425200120032000a003b00aa
:101d200082817100610164008100d1000080d300d4
:101d30008984d3000884d3008b05e8000442e800be
:101d4000f7ff3a00070037000804440089844c007c
:101d500000004800818048008b05e9000442e9004a
:101d6000f9ff3a00030007004f05be004f04be0014
:101d70000000060081002000618055000b003d003e
:101d80000b00200061fe2f000100e1001d00340067
:101d900082817100610164008904d1000884d3004c
:101da0000000e800faff3a007100200061006400c2
:101db000030070000200600009003200610444006a
:101dc000e0844c000988a500050032008b05e8007e
:101dd0006808e10002003a008904d1000884d300b9
:101de000f20f20000258e10005003d00c75ddd0054
:101df000f907b2008980750008007800000006002d
:101e00000bf827008b007800000005000004be00de
:101e100014fc07000003be000405be000200be0063
:101e200010fc0700844f750000000600889fbe006c
:101e30008a9fbe0030044200b0844a0030054b0047
:101e400090854b006000b1000898be000a90be006b
:101e50000440e10005c8e10006d0e10007d8e10038
:101e600002003100680040001008e8004f05be0085
:101e70004f04be0000000600889fbe008a9fbe007f
:101e80003004be002005be000418540005985c0014
:101e900006185d0007985d00110020000440e10075
:101ea00005c8e10006d0e10007d8e10001003900d3
:101eb0008000eb00108810004f05be004f04be00ec
:101ec00000000600f4874700889fbe008a9fbe007e
:101ed0008c9fbe008e1f7800d0b79f00e1b79f0097
:101ee000f2b79f0083bf9f000605be000404be003a
:101ef000cfae97000000eb00c0b79f00b0b79f00c7
:101f0000a0b79f0090b79f0080b79f0000067800a1
:101f10004fb09700000140000000e00006003d00c7
:101f20003c0007000f074700450007000f00400076
:101f3000beff070005003700360007000f07470007
:101f40003f0007000f004000cbff07004fb797008e
:101f50000e00e0000c0035005fb29700efb2970072
:101f60007fb397008fbb9700100020000100200076
:101f70006011b800000272008182720002037300d7
:101f8000838373001c0007000c06e8000104200096
:101f9000810f5600deff3a000e00e00005003d0014
:101fa0000802be000a03be0000fe2f000f00400022
:101fb0009eff07000d00e00005003a000fb29700f9
:101fc0009fb297002fb39700bfb397000a00070096
:101fd0005fb09700efb097007fb197008fb997007f
:101fe0004f0778004f06be004f05be004f04be00ed
:101ff0004f01b100000006000100070000000600cc
:1020000094b79f00a5b79f00b6b79f00c7b79f00c2
:10201000000006009fb097004f08de00020170002c
:10202000a2b79f000fb097004f01de0081804000f3
:102030008100710091b79f000efe2f000000060086
:10204000de0078004f09de00000040000000710053
:1020500080b79f006fa897004f01de00818040008d
:10206000010f71000e0007004f3ade000000400033
:1020700004007000e0af9f00090007000402420066
:1020800085824a0006034b0087834b00dcff070074
:102090000802be000a03be0000fe2f00000006007a
:1020a0001fb29700afb297003fb39700cfb397002e
:1020b00000000600881f780018002000881f7800a4
:1020c00080ff07008f87e9004f04780000000600ba
:1020d000801feb007bff07008f87e90000000600f0
:1020e000889fbe008a9fbe00e00f5000e08f58001e
:1020f000e00f5900e08f59000c003d006044b8002b
:102100006055b8000000540081805c0002015d0051
:1021100083815d00180020001500070008003d00c5
:10212000180007000004eb00050037000004eb0076
:102130000f00070002003d001200070018002000f9
:10214000dcff07000800e000060032006022b80053
:102150006033b8000000520081805a0002015b0029
:1021600083815b004f05be004f04be0000000600e7
:10217000e00f5200e08f5a00e00f5b00e08f5b0041
:10218000000006006044b8006055b8000402540026
:1021900085825c0006035d0087835d000000060009
:1021a000889fbe008a9fbe008c1f7800e00f500001
:1021b000e08f5800e00f5900e08f59000d003d00fe
:1021c0006044b8006055b8000000540081805c0095
:1021d00002015d0083815d001c0020000820e100f9
:1021e00009a8e1000ab0e1000bb8e1000d003d00d4
:1021f000080037000006eb00e00f5200e08f5a00a5
:10220000e00f5b00e08f5b0006003d006044b8001b
:102210006055b8000402540085825c0006035d002e
:1022200087835d00aaff07000c00e0000600320073
:102230006022b8006033b8000000520081805a006c
:1022400002015b0083815b004f0678004f05be00f2
:102250004f04be0000000600889fbe008a9fbe009b
:102260008c1f78000006eb00e00f5000e08f580054
:10227000e00f5900e08f590007003d006044b800ae
:102280006055b8000000540081805c0002015d00d0
:1022900083815d001c002000e00f5200e08f5a0097
:1022a000e00f5b00e08f5b0007003d006044b8007a
:1022b0006055b8000402540085825c0006035d008e
:1022c00087835d000c00a2000c0007000c00e000fa
:1022d000060032006022b8006033b80000005200ef
:1022e00081805a0002015b0083815b004f06780009
:1022f0004f05be004f04be0000000600889fbe00d0
:102300008a9fbe008c9fbe000404b8000506b8007a
:102310008904460060854e000606b8000a0546009e
:10232000e0854e000706b8008b054600040eb80095
:10233000890446000a854e00e0854d00050eb80070
:102340000a0546008b854e00060eb8008b05460038
:102350000416b8000a0546008b854e000516b80025
:102360008b054600041eb8008b0546000800be0021
:102370000a01be004f06be004f05be004f04be005e
:10238000000006000800fa000002be008501780087
:1023900003f0a10000017800a6fd200097f42300bf
:1023a000860f5100878f590006003e00f4ff2f0072
:1023b000f5972300840f5100858f59006400360083
:1023c0005d0037004f0ade0005002000163d2500a5
:1023d000b7072400860f5100878f590019003e006f
:1023e00036be2c0067012400860f5100878f5900ec
:1023f0000a003e000400e00004003200b2fd2000ac
:1024000093fc2300b5fa07004f003700b2fd20000f
:1024100093fc2300a8fa0700420037000400e00004
:1024200004003200b2fd200093042400abfa070040
:1024300040003700b2fd2000930424009efa0700fc
:102440003c003700561d2300270e2400860f510044
:10245000878f590019003e00f6dd2e00f70a240090
:10246000860f5100878f59000a003e000400e000eb
:102470000400320042be2c006309240097fa0700d2
:102480002800370042be2c00630924008afa0700a6
:102490002d0037000400e00004003200b2fd2000ef
:1024a000930c24008dfa070023003700b2fd2000b2
:1024b000930c240080fa07001f003700f4ff2f0060
:1024c000f5f72700840f5100858f5900030036006f
:1024d0000001be0078fa07001d0037006881570030
:1024e0004b0007006011b80063016000e10f51006c
:1024f000e08f590009003200e20f5100e08f5900cf
:102500000a003200e00f5100e08f59000c003a0041
:102510004fb89700dfb89700070037004fb8970013
:10252000dfb897000c000700090037004fb897008c
:10253000dfb8970001f0a200900007000400370008
:102540004fb89700dfb897000300070001f0a20022
:102550000080fa0000000600889fbe008a9fbe002f
:102560008c9fbe000001be0020fc07000004be00de
:102570000001be001dfc07000005be000200200097
:1025800003f02b000800be0018fc0700020020002a
:1025900003f8230051fa07000006be00f2a92a0042
:1025a000a3d223000a00be0010fc07000001be00f9
:1025b0000c00be0049fa07000006be000801be007c
:1025c0000a00be0009fc07000005be0072a1290038
:1025d000c37c23000800be0004fc0700f243200077
:1025e00063ab230034fa07000001be000a00be00fe
:1025f000fefb07000001be000c00be0037fa07001a
:102600004f06be004f05be004f04be00000006008e
:10261000ea874700889fbe008a9fbe008c9fbe004d
:102620008e1f78000006be00020478000005be0080
:102630008b01780003f0a10000017800a0fd2000cc
:1026400091dc2400800f5100818f59001e003e0054
:1026500032982f0023f223000c00be00e3fb07009a
:102660000200200003b424001cfa0700020020002e
:1026700003b4240010fa07000005be00b6f90700f5
:1026800080047800a2fd200093fc23000a00be0015
:10269000d6fb07000001be000c00be0006fa0700d2
:1026a0000006be00325a2800832823000a00be001c
:1026b000cefb07000001be000c00be00fef90700c3
:1026c000008cbe0026003700f0ff2f00f1f7270036
:1026d000800f5100818f5900060036000c01be00aa
:1026e0000c00be00f4f90700008cbe008004eb0073
:1026f0001b0037004718de00010020006009b10010
:102700000180b100c702dd00040020000401510077
:102710008581590076875700029fbe000002eb00ba
:1027200013002000000178008e00780076805700aa
:102730004200070080047800e00f5600e08f5e0042
:1027400005003d001e00be0001f0a200008cbe008e
:102750008904ea00020037003e1c78002e1478003d
:10276000090078004f0778004f06be004f05be00f5
:102770004f04be00af00b10000000600889fbe00fd
:102780008a9fbe008c9fbe000005be000001be00f7
:1027900096fb07000004be000a01be0093fb070081
:1027a0000006be004288280083c023000800be0047
:1027b0008efb0700b2aa2a00a3e22300bef907009d
:1027c0000001be000c00be0088fb07000001be0037
:1027d0000a00be00c1f907000005be000801be00e6
:1027e0000800be0081fb07000001be000c00be0017
:1027f0007efb07000006be00c2c326006363230001
:102800000800be0079fb0700f27c2000039523003e
:10281000a9f907000001be000c00be0073fb070011
:102820000001be000a00be00acf907004f06be0062
:102830004f05be004f04be0000000600af17b000f9
:10284000889fbe008a9fbe008c9fbe008e1f7800ae
:10285000b0a79f0081af9f000204780003057800b5
:10286000f4a79f0004004200218c2100008040005a
:10287000100078006101b900b2af9f00c3af9f00a4
:102880000a00e9006102b90094af9f00a5af9f0064
:102890006300540082012000050009000200d800f6
:1028a0006103b900d6a79f00e7a79f00e00f530080
:1028b000e08f5b0003003d006000b800d0a79f00e0
:1028c000e1a79f005fa19700efa197000280ea00b7
:1028d0008380ea008201200003002000000407003a
:1028e000cfc1de0000044400818449005fa297004c
:1028f000efa297001fab9700afab97000606520000
:1029000087865a003fa89700cfa89700000243008f
:1029100081824b006eec2f000f074700c265dd007f
:10292000a08c2100808545006011b8000803be001e
:102930000a04be000205be00140037006000b800a3
:10294000e00f5600e08f5e000a0035001900be005f
:10295000d4b79f00e5b79f00f6b79f0087bf9f00e1
:1029600039f907008fbb97007fb39700efb297004c
:102970005fb2970000afbe0061054500e0854d00e5
:1029800061064600e0864e00e4844400840f550052
:10299000858f5d00e9ff34000805780064f62f009c
:1029a0000f0242006011b800b2b79f00c3b79f008a
:1029b000840678001e0037003c00be004b01be00bc
:1029c000d4b79f00e5b79f00f6b79f0087bf9f0071
:1029d00006fb07000001be000800be003ff907002b
:1029e0000004be005fb29700efb2970061024200a0
:1029f000e0824a008fbb97007fb397001fa8970023
:102a0000afa89700800f5200818f5a00eaff340070
:102a100088aebe003fb19700cfb197006101410081
:102a2000e0814900b2b79f00c3b79f000a05e800e4
:102a30003fb29700cfb297003fa89700cfa897006a
:102a4000800f5200818f5a0008003c003fa697007b
:102a5000c255dd00a1ec2f008f8040008b85400027
:102a60006044b8006022b800e4ff37003fa9970037
:102a7000cfa99700b2b79f00c3b79f0096b79f003a
:102a8000a7b79f00bfb297004228dd00a6e72f003e
:102a90000f0343000000430000bc900090bc900076
:102aa0006de72f008f8646003fb09700cfb09700ac
:102ab00061005000e0805800f0af9f0081b79f0098
:102ac000c205dd00a1f62f008f8040008b854000fd
:102ad0000d0578003fb39700cfb397000d0778003e
:102ae0001900370002002000033823000800be0050
:102af000f6b79f0087bf9f00bcfa070096f8070053
:102b0000d1f807000006be000200200003b8240030
:102b1000b6fa07000001be000800be00e6f8070094
:102b20008df8070000adbe002b00be000c01be00fa
:102b3000eaf807000004be007fb397008fbb970040
:102b400061035300e0835b00e00f5300e08f5b0004
:102b5000e4ff3c008e0678001fb697000c01780059
:102b60000800be00340307000004be00020020007d
:102b700003e023009dfa0700d002070002002000b6
:102b80000310240099fa07000001be000800be00ef
:102b9000c9f807000005be006ff807000004be007a
:102ba000a9f807000001be000a00be00c2f8070035
:102bb0000005be001fb19700afb19700e00f5100b4
:102bc000e08f590022003400ffa997004218dd0071
:102bd000a4e72f000f024200000042001002be00d6
:102be000f80016000401be00010378000603e900a6
:102bf000030033008381d1000281d300fbff370043
:102c000008044100898449008100e9000300330081
:102c10000201410083814900fbff3700020152009d
:102c200083815a000288be00770016000202be00af
:102c30000000e900030033008582d1000482d30044
:102c4000fbff3700d4af9f00e5af9f001d003700aa
:102c50001fb39700afb39700e00f5300e08f5b0006
:102c60000b003a00ffab97004238dd00a1e72f00d0
:102c70008f804000008040001000be004789de00c9
:102c8000d2af9f00cf89de00e3af9f000d00370079
:102c90000200200003f023002df80700240020008c
:102ca00005002000d4af9f00e5af9f000000e000ca
:102cb00009003d006033b800d6af9f00e7af9f002a
:102cc000620037005fa89700efa89700e00f500060
:102cd000e08f58005d00340061044400e0844c0043
:102ce0006000b8006022b800120037005d01be002d
:102cf000e00f5200e08f5a0006003a00e00f51004a
:102d0000e08f590009003200040020000510200067
:102d100002003700f4ff2f00f50f2000821e520042
:102d200083965a0014002000050020006100400036
:102d3000e08048003fb19700cfb19700820f50006c
:102d4000838f5800e9ff35001fb39700afb397009a
:102d5000e00f5300e08f5b0023003400e10f5300cd
:102d6000e08f5b0004003200e20f5300e08f5b0055
:102d70001d003a000e003700ffab97004238dd001f
:102d8000a1e72f008f804000008040001001be00ae
:102d900003037800f607b200a6a79f00820378001d
:102da00097a79f001fa19700afa197000d003700c4
:102db000ffa997004218dd00a6e72f000f0343008c
:102dc000000043001001be0083037800f703b20047
:102dd00087a79f0082007800f19f9f007f9997004e
:102de0008fa197000288be005fab9700efab970002
:102df000e20f5300e08f5b0014003a000a01be00ae
:102e00000000200001f82300d4b79f00e5b79f0021
:102e100029f807000005be005fb29700efb29700e7
:102e2000e00f5200e08f5a00080032000c017800d9
:102e30000000200001f823007f0207000001be000f
:102e40000a00be001cf807000005be006011b800b3
:102e50000a00be00bcf707000000e00082003a0054
:102e60003fb09700cfb09700ffab9700423add002c
:102e7000a2e72f000f014100040241006011b800d9
:102e8000030037002403be00060171008781710032
:102e900061005000e08058003fab9700cfab970037
:102ea000860f5000878f5800f6ff3d00e00f51005d
:102eb000e08f59007a003a0061005300e0805b0027
:102ec0004200dd00a7e72f008f834300008043000e
:102ed0001200200003002000f2af9f0083b79f0084
:102ee00012002000030020000200370061014100b1
:102ef000e08149002002be00e00f5200e08f5a003e
:102f0000faff3200f2af9f0083b79f003fb39700f4
:102f1000cfb3970061024300e0824b004226dd0000
:102f2000a7f62f008f8343000c8643005fa1970014
:102f3000efa1970061004100e08049003fb3970096
:102f4000cfb397000000430081804b00c204dd0036
:102f5000a08c2100808444001fa99700afa997008e
:102f600061004100e08049000000430081804b0087
:102f70004201dd00a3ec2f008f81410082814100de
:102f8000c3a79f000004e8000907780088067800be
:102f90000404be00280037003e00be00aaf7070068
:102fa0004fa29700009abe00c4a79f003fa29700bf
:102fb000c26add00a6ec2f000f0343008502430028
:102fc0006033b8006055b800d89f9f00e99f9f000c
:102fd0000404be000d0037003800be004901be00e9
:102fe000f6b79f0087bf9f0080f907000001be0071
:102ff0000a00be00b9f707000005be007fb39700c6
:103000008fbb970061034300e0834b001fa997002b
:10301000afa99700820f5300838f5b00eeff34004f
:103020005f9c9700ef9c97000a9ebe0061044400dd
:10303000e0844c008d06e8007faa97008fb29700cd
:103040003fb39700cfb397000400430085804b0047
:10305000800f5400818f5c00cfff3400b0b79f0019
:10306000c1b79f0087fe370098af9f00a9af9f00b0
:103070001fb49700afb497000c01ea000a00be002d
:10308000ed0107000005be000200200003b8240087
:103090002ff707000000e00020003d00430037004c
:1030a00098af9f00a9af9f001fb49700afb49700df
:1030b0003fb09700cfb0970061005000e08058000b
:1030c000b0b79f00c1b79f0078045400e0845c0053
:1030d000bfb097004208dd00a2e72f000f014100ba
:1030e000000041003fb19700cfb1970004003700c6
:1030f00061015100e081590078045400e0845c00d3
:103100002002be00e00f5200e08f5a00f8ff3200ac
:10311000b2b79f00c3b79f002c0037000200200009
:10312000033823000a00be0030f907000af7070041
:1031300045f707000006be00bfb29700422fdd0032
:10314000a6e72f000f0343000e07430002002000f4
:1031500003b8240025f907000001be000a00be00e4
:1031600055f70700fcf60700008fbe003fb0970040
:10317000cfb0970061004000e0804800b0b79f00ea
:10318000c1b79f0078044400e0844c004205dd0094
:10319000a1e72f008f8040000a8540000c00be0090
:1031a000edf60700008dbe00080037003fb1970024
:1031b0004216dd00a3e72f008f8141000c864100fd
:1031c0000a00be00e4f60700008ebe000801780089
:1031d0000000200001f82300970107000004be0052
:1031e0003fb29700f4af9f008402e80095b79f00bc
:1031f000c22ddd00a6e72f000f0343000b0543009f
:10320000a7f62f008f8343008b8543003fb69700be
:10321000cfb697000d0037004a00be000af707003e
:103220000001be000800be00f0f8070080a5be0047
:1032300002002000033823000800be00ebf807005e
:103240000004be0061065600e0865e00e00f5600f6
:10325000e08f5e00f0ff3d006df12f008f8646008d
:103260003fb59700cfb597001c0037005c01be004a
:103270005e00be00d4b79f00e5b79f00dbf80700f3
:103280000001be000800be0014f707000004be00e5
:1032900061054500e0854d00efb297005fb29700f1
:1032a0003fa89700cfa89700800f5500818f5d0041
:1032b00007003c003fb19700cfb1970004005100d8
:1032c00085805900800f5500818f5d00e7ff340035
:1032d00088aebe0061055200e0855a00e00f55003f
:1032e000e08f5d000b003500ee9c21000a06e9002e
:1032f0004266dd00a3f62f008f8141000c8641005d
:103300006044b8006000b8000a02be000005be00bc
:10331000e3ff37007fa29700e20f520005003c0058
:10332000e10f520010003d000400e00017003200e1
:10333000da003700ffa29700e38f5200d7003a006f
:103340003fb397004232dd00a7f12f008f83430087
:1033500004824300040778003fb39700cfb397007f
:10336000b4af9f00700037001fb097004205dd002a
:10337000a1f12f008f8040000a8540003fb49700e4
:10338000cfb497006000b8001d0037001fb1970050
:103390004214dd00a3f12f008f8141000884410019
:1033a0003fb59700cfb597006000b8000400370024
:1033b0004801be00c9f6070061055500e0855d00c3
:1033c000e00f5500e08f5d00f9ff3d005faa970018
:1033d000efaa9700e00f5200e08f5a000100320080
:1033e00001f0a2008faa9700808abe00ab003700d0
:1033f0004a01be00b9f6070061045400e0845c0095
:10340000e00f5400e08f5c00f9ff3d000001be00ba
:103410005fab9700efab9700e00f5300e08f5b00ce
:103420000100320001f0a2008fab9700808bbe003c
:103430005f089700ef0897009ff60700aaf12f009a
:103440000f05450018002000090020000400370087
:103450005a01be00a1f6070061044400e0844c005c
:103460003fb19700cfb19700820f5400838f5c006b
:10347000f7ff34008fa99700648141005faa97008d
:10348000efaa9700e00f5200e08f5a0001003200cf
:1034900001f0a2000089be0080003700c0ff2f00ad
:1034a000ffaa970080a8b900000047003fb297002c
:1034b000cfb2970061015200e0815a004211dd0055
:1034c000820240005506be000e0278005405be0080
:1034d0000a01be000c00be00d4b79f00e5b79f00f4
:1034e000f6b79f0087bf9f007cf607000004be0070
:1034f0000001be000c00be006ff607000001be0018
:103500000a00be0075f607005fb29700008abe0091
:10351000efb29700888abe007fb397008fbb9700f9
:1035200061035300e0835b0064075700e00f530022
:10353000e08f5b00d9ff3c003faa97003fb39700a4
:10354000cfb397000404780023003700c0ff2f009a
:10355000ffaa970080a8b900000044003fb297007e
:10356000cfb2970061015200e0815a00c214dd0021
:10357000890440005902be00080778005e06be00bc
:103580000c01be000400be00d4b79f00e5b79f0049
:10359000f6b79f0087bf9f0050f607000005be00ea
:1035a0000001be005fb29700efb297000400be00ba
:1035b00041f607000001be000c00be0047f6070000
:1035c000008fbe008a8cbe007fb397008fbb970030
:1035d00061035300e0835b0064045400e10f530077
:1035e000e08f5b00d9ff3c009fb29700422cdd00ca
:1035f000a6f12f000f034300080443003fb59700d6
:10360000cfb597006000b800040037004801be0045
:1036100032f6070061055500e0855d00e10f5500b9
:10362000e08f5d00f9ff3c005fa99700efa99700cc
:10363000e00f5100e08f59000b003a000fa99700ee
:103640005f0a9700ef0a97000499be007f0b97006e
:103650008f1397000689be008fab9700c0039800b8
:10366000d10398000d0037005f0a9700ef0a97001a
:1036700005f0a2000fa997000499be007f0a9700e9
:103680008f12970005f0a2000489be0001f0a2008d
:103690000fa9970040019800510198009fa9970039
:1036a000678061004f0778004f06be004f05be00df
:1036b0004f04be00af17b100000006000c00fa0076
:1036c000889fbe008a9fbe008c1f78000004be0049
:1036d0006000b8006011b800f0b79f0081bf9f0084
:1036e00092bf9f00a3bf9f00f8b79f0089bf9f00b4
:1036f0007fb297008fba97001fbb9700afbb9700b0
:10370000443ade00f07f20000006620020432000e3
:10371000800f560042003c006011b8000800be0057
:1037200089f507000000e0003d0032007fb09700ff
:103730008fb897001fb99700afb99700e00f5000fe
:10374000e08f5800e00f5900e08f590008003d005d
:103750000200200003b024000800be00d6f50700d8
:103760000200200003b02400dcf50700070037004a
:103770000200200003b024000800be00d7f50700b7
:103780000200200003b02400cbf507000801be00b2
:10379000c9f507000005be00e03f2000800f56007d
:1037a0000f003c00dab79f00ebb79f006044b80001
:1037b0007fb097008fb897001fb99700afb99700f7
:1037c000e00f5000e08f5800e00f5900e08f5900e3
:1037d00013003d000800200009f82b0010003700fe
:1037e0006011b8000a00be0059f507000000e000b3
:1037f000070034000a01be000800be00b7f507004c
:103800000200200003f82300abf507000300370097
:103810000a01be000800be00b0f507000004be00ab
:103820000800be004f0678004f05be004f04be00e2
:103830000080fa0000000600889fbe008a9fbe003c
:1038400002047800f93f2000890f54000d00340075
:103850000200200003f8270064f70700f83fb100da
:10386000890f5400150034000200200003f82700df
:103870005ef70700f83fb100890f54000e003c00ce
:103880000e00370029c02f00890f54000b003d00a7
:103890006011b80055f70700983cb000890f54003c
:1038a00006003d006011b80050f70700983cb000da
:1038b000890f540001003d0009047800f83fb00072
:1038c000cfc4de00614db9006044b8000801be00fd
:1038d00046f707004f05be004f04be00000006007b
:1038e000020ab900001bb9000200b80081004200c2
:0838f000810043000000060006
:020000040000fa
:1038f80094450000b24500000000000000000000f0
:103908007443000098430000bc430000000000001e
:1039180050450000e0430000a24400008842000037
:103928009042000098420000a0420000a842000017
:10393800b0420000e04200003a4300004243000069
:103948004a43000052430000664500007e450000df
:103958007c9c00005453000082530000ac530000cc
:10396800b4530000bc530000c8530000000000001e
:1039780000000000d4530000dc530000f4530000a2
:103988000a54000038540000625400006a540000d1
:10399800725400007e540000000000000000000087
:1039a8008a54000092540000aa540000c054000039
:1039b800ee5400001855000020550000285500005e
:1039c80034550000000000000000000040550000d1
:1039d8004855000060550000ce3600005a370000f8
:1039e80072370000d437000038380000b4380000bf
:1039f8008639000096390000f83900000000000000
:103a080076550000a2550000d0550000dc55000096
:103a1800e8550000f4550000000000003a57000087
:103a28004c5700005a5700006657000070570000b6
:103a38007c57000000000000680200000000000041
:103a48000000000094570000b45700000c4c000020
:103a58002e4c0000ea4b00008a4b00004a4b000045
:103a6800a04d0000ba4d00007e4d00001e4d000024
:103a7800de4c0000cc450000ec450000304600005c
:043a880014460000e0
:020000040000fa
:103a8c000000fa00a0e9840000000100d1e98400e4
:103a9c00f226210033a82300a0d52100010001004b
:103aac000080fa00000006000000fa006089800027
:103abc000000e800608988000080fa000000060021
:103acc000a00fa000e82e800000a78006400470041
:103adc00010878006600470002087800680047007b
:103aec0003487800680047001041780066004700e2
:103afc00900078000e80e80010007800a903070001
:103b0c000004e0001700320080898000000fe900fb
:103b1c002c31ef000d00370000f8240021012000ab
:103b2c004e1d0700f38580001e01780064004700dd
:103b3c009000780010c0b300030001000004e00006
:103b4c000200320010c0b30007003700618980000a
:103b5c0030062000808f5000efff36000040eb0055
:103b6c00010037000040eb000080fa000000060066
:103b7c000600fa000e81e800000978006400470096
:103b8c0001087800018680000e80e80010007800a3
:103b9c00010001000004e000170032008089800061
:103bac00000fe9002c31ef000d003700007c2200e3
:103bbc0091002000291d0700f38580001e0178006c
:103bcc00640047009000780010c0b30003000100af
:103bdc000004e0000200320010c0b3000700370000
:103bec006189800030062000808f5000efff360086
:103bfc000040eb00010037000040eb000080fa00b1
:103c0c00000006000000fa000001eb008000eb0051
:103c1c000040eb00020007000080fa0000000600e4
:103c2c00b000fa00a30a20008e8141008049780080
:103c3c00c00a20000e00400001087800e00a2000b5
:103c4c000e004000020878000040eb00004f7800a6
:103c5c00b3e7840000d0bf000080fb00f2004700f7
:103c6c0022032000030001000004e000a80232003f
:103c7c0000000000f0e78400000001000004e000f8
:103c8c00fcff3a00e0e784000000010080007800af
:103c9c006c004700010878006c00470010007800a9
:103cac000000e0009a023a008000eb000e80e80071
:103cbc00010878001200370032d1bf000080fb00f1
:103ccc008e80e80091007800010140000e80e80031
:103cdc00100078007200400000004700904078000f
:103cec00800c210000004100014878000e80e800a3
:103cfc00100078008000e8000e80e80001087800d1
:103d0c0032d1bf000080fb008e80e800910078006b
:103d1c008100400030062000808f500005003c00e0
:103d2c000e80e8009000780010032000808f500077
:103d3c00e1ff34008000eb006400470001087800cc
:103d4c008000eb0066004700010878008000eb0063
:103d5c0068004700010878003a0237006600470007
:103d6c00100078000000e0001a003a0068004700dc
:103d7c0090007800800c21000080400010407800fa
:103d8c00e14f500013003a0064004700e800470080
:103d9c00110878006800470090007800800c210022
:103dac0000804000904078006600470010007800ca
:103dbc006004b0000000470001487800660047002e
:103dcc00100078008000e8006600470001087800c9
:103ddc00170237006600470010007800e10f500012
:103dec0017003a006800470090007800800c210012
:103dfc000080400010407800e24f500010003a0064
:103e0c006800470090007800800c21000080400082
:103e1c009040780066004700100078006004b00005
:103e2c000000470001487800660047001000780049
:103e3c008000e8006600470001087800fc013700ac
:103e4c006600470010007800e10f5000f8013400c4
:103e5c006800470090007800800c21000080400032
:103e6c009040780066004700100078006004b000b5
:103e7c0000004700014878006600470010007800f9
:103e8c008000e800660047000108780066004700e3
:103e9c0010007800e70f5000e5013400b00420005a
:103eac000e004000104078000080fb0068004000cd
:103ebc00e600470091007800810f5000c3013a00e2
:103ecc006600470010007800004078000041e900cf
:103edc0066004700100078000000e9006004b000a4
:103eec000000470010407800610420008e804000e4
:103efc00471007000004e0009a0132008000eb003c
:103f0c006600470001087800610020004004200092
:103f1c000e00400001087800800420000e004000d4
:103f2c00104078000080fb0010808800a004200066
:103f3c000e004000104078000080fb00c800dd003f
:103f4c00900420000e004000104078000080fb0020
:103f5c00010070002080880010c0b300004f780072
:103f6c0010808000e70f50000b003a004004200046
:103f7c000e004000100078006004b0000000470004
:103f8c001040780001f0b70001868000300020005e
:103f9c00010001006001370010808000e50f500027
:103fac00c2003a00400420000e00400010007800cf
:103fbc00610420008e8040000080400041042000fd
:103fcc008e8040007c0f0700e0818800f181880022
:103fdc00400420000e004000100078006104200016
:103fec008e80400000804000410420008e80400004
:103ffc00710f070020828800318288004004200065
:10400c000e00400010007800610420008e804000fb
:10401c0000804000410420008e804000660f0700a5
:10402c004082880051828800400420000e0040002d
:10403c0010007800610420008e8040000080400059
:10404c00410420008e8040005b0f070070828800c6
:10405c0081828800400420000e004000100078008f
:10406c00610420008e80400000804000410420004c
:10407c008e804000500f070090828800a18288003b
:10408c00400420000e004000100078006104200065
:10409c008e80400000804000410420008e80400053
:1040ac00450f0700b0828800c182880040062000be
:1040bc000e004000104078000080fb0060828800f9
:1040cc00500620000e004000104078000080fb00dd
:1040dc00c0818800600620000e004000104078006f
:1040ec000080fb00d08188004082800051828000db
:1040fc0002002000032724005af407000001be0030
:10410c000000200001f8230056f407006e01470060
:10411c000089be0060828000e30f50002600320050
:10412c00e30f500005003e00e10f5000120032007a
:10413c00e10f500018003e0007003700e50f50005b
:10414c002d003200e50f500023003900e60f50001f
:10415c0031003200380037006e00470002002000aa
:10416c0003f023001000be001df50700f08288004c
:10417c0001838800380037006e004700325c2f0046
:10418c0083ea23001000be0015f50700f0828800ba
:10419c0001838800300037006e00470002002000c9
:1041ac0003e823001000be000df50700f082880024
:1041bc0001838800280037006e004700d2cc2c0009
:1041cc00c3e423001000be0005f50700f082880050
:1041dc0001838800200037006e004700325c2f00fe
:1041ec0083f223001000be00fdf40700f08288006b
:1041fc0001838800180037006e0047000200200081
:10420c0003f423001000be00f5f40700f0828800d0
:10421c0001838800100037006e004700d2cc2c00c0
:10422c00c3f423001000be00edf40700f0828800f8
:10423c0001838800080037006e004700325c2f00b5
:10424c0083ea23001000be00e5f40700f08288002a
:10425c000183880000000000f08280000183800050
:10426c006e0247000001be001400be000ff30700f1
:10427c0010838800218388001483800025838000ac
:10428c00f0828000018380000001be000400be00ab
:10429c000ff30700d0828800e1828800018680003d
:1042ac0030002000010001009b00370010808000ce
:1042bc00e90f500055003a00400420000e00400069
:1042cc0010007800610420008e80400000804000c7
:1042dc00410420008e804000b70e0700a0808800ab
:1042ec00b1808800400420000e00400010007800cf
:1042fc00610420008e8040000080400041042000ba
:10430c008e804000ac0e0700c0808800d1808800f1
:10431c00400420000e0040001000780061042000d2
:10432c008e80400000804000410420008e804000c0
:10433c00a10e0700e0808800f18088004004200076
:10434c000e00400010007800610420008e804000b8
:10435c0000804000410420008e804000960e070033
:10436c006080880071808800400420000e004000ae
:10437c0010007800610420008e8040000080400016
:10438c00410420008e8040008b0e07008080880046
:10439c0091808800400420000e004000100078003e
:1043ac00610420008e804000008040004104200009
:1043bc008e804000800e070040808800518088006d
:1043cc00400420000e004000100078006104200022
:1043dc008e80400000804000410420008e80400010
:1043ec00750e07000081880011818800800620006e
:1043fc000e0040001040780006f0b70001868000e7
:10440c0030002000010001004300370010808000c4
:10441c00ed0f500017003a00400420000e00400041
:10442c0010007800610420008e8040000080400065
:10443c00410420008e8040005f0e0700a0818800a0
:10444c00b1818800000520000e004000104078006b
:10445c000080fb000000ea004f00de000040780006
:10446c0032f0b7000186800030002000010001000e
:10447c002900370010808000e80f50001e003a0021
:10448c00400420000e004000100078006104200061
:10449c008e80400000804000410420008e8040004f
:1044ac00450e07005081880061818800400420007f
:1044bc000e00400010007800610420008e80400047
:1044cc0000804000410420008e8040003a0e07001e
:1044dc007081880081818800400520000e0040001a
:1044ec001040780024f0b7000186800030002000d6
:1044fc00010001000800370010808000e30f50001d
:10450c0005003200018680004000200001000100ff
:10451c000040eb00004f7800a00a20000e00400085
:10452c00104078000004e00041003200118080004f
:10453c00c00a20000e00400010007800808f500050
:10454c003b003a0021808000e00a20000e00400071
:10455c0010007800808f500035003a0010c0b30076
:10456c006c003700b00420000e00400010407800b2
:10457c000080fb0068004000e600470091007800d6
:10458c00810f50002a003d000b00370066004700e9
:10459c00100078008000e9006600470001087800f0
:1045ac0066004700100078006004b0008040eb000b
:1045bc0000004700014878006600470010007800b2
:1045cc000000e000f1ff3c0019003700b0042000af
:1045dc000e004000104078000080fb006800400096
:1045ec00e600470091007800810f500010003d005c
:1045fc000b00370066004700100078008000e900cf
:10460c00660047000108780066004700100078003b
:10461c006004b0008040eb000000470001487800c7
:10462c0066004700100078000000e000f1ff3c003d
:10463c0068004700100078008000e8006800470020
:10464c0001087800680047009000780030062000d0
:10465c00808f5000c1fd34006600470010007800c8
:10466c000000e000280034008000eb006a004700e6
:10467c0001087800140037006400470090007800af
:10468c00800c210000804000904078006a004700b8
:10469c0010017800800c21000000410001487800d6
:1046ac0064004700100078008000e80064004700b8
:1046bc00010878006a004700100078008000e800cc
:1046cc006a004700010878006400470090007800f9
:1046dc0020062000808f5000e7ff34006a0047005e
:1046ec0010007800004078000040e80032f1b7007c
:1046fc00211321009140780040c6b30080cf5000b8
:10470c0001003a003271ef001e40780001003700c2
:10471c000040eb000080fa00000006003c00fa00ac
:10472c00a10320008e80400080087800a0032000a8
:10473c000e00400010007800e40f5000050032001d
:10474c00a00320000e00400010007800e20f500083
:10475c0009003a000040eb00004f78000041eb00ec
:10476c008e007800a00320000e004000100078009e
:10477c008c0007007c003700a00320000e004000d6
:10478c0010007800ec0f50000e003a00808380007f
:10479c00918380000e02e8000001be000400780046
:1047ac00bb0d07000e00e80042c0b300800078008b
:1047bc00a00320000e0040001000780079000700d4
:1047cc0069003700a00320000e00400010007800a4
:1047dc00e30f50000c003a001080800080407800fd
:1047ec0065004700014878006500470012c0b3001f
:1047fc0080007800a00320000e004000100078001c
:10480c006800070058003700a00320000e0040008d
:10481c0010007800e60f500052003a00a083800090
:10482c00b1838000660247000001be0004007800de
:10483c00970d0700228480003384800066004700b7
:10484c0064004000920d07000284800013848000f5
:10485c0066004700680040008d0d0700a2848000b0
:10486c00b3848000660047006c004000880d070090
:10487c00c2848000d3848000660047007000400032
:10488c00830d0700628480007384800066004700fb
:10489c00740040007e0d07008284800093848000a9
:1048ac006600470078004000790d07008285800083
:1048bc0093858000660047007c004000740d070063
:1048cc002285800033858000660047000002b0001e
:1048dc006f0d0700628580007385800066004700bd
:1048ec004002b0006a0d0700a2858000b3858000ed
:1048fc00660047008002b000650d0700c28380008f
:10490c00d383800066004700c002b000600d070032
:10491c00b8d0bf0080407800600320000e0040003b
:10492c0001487800f10621009140780070032000c6
:10493c000e00400001487800e1062100914078000b
:10494c00800320000e0040000148780066004700fc
:10495c0032c3b30080007800600020001100070013
:10496c00010037000040eb000080fa000000060058
:10497c000400fa008e80e800800878000e80e800c1
:10498c001000780000407800004f780012c0b3008f
:10499c008e00780010002000020007000080fa0052
:1049ac00000006000e00fa00889fbe008a1f7800e7
:1049bc00e8014700800978006a0047000108780088
:1049cc006c004700024878000f0478000f00780054
:1049dc00800478006c004700104078000080fb00d9
:1049ec00680040000001e9008e80e8008208780031
:1049fc000000e8000000e8000000d100800040004a
:104a0c000f007800818747000000e8000000d1000b
:104a1c0000004000e4004700800878006400470074
:104a2c009000780010c0b300804878006400470004
:104a3c001000780021c0b3000000e80001487800a5
:104a4c006800470010007800804078006400470040
:104a5c00100078000080e800014878008089800010
:104a6c00804078006400470010007800630040002c
:104a7c0001487800808980004800de008040780082
:104a8c006400470010007800640040000148780082
:104a9c00640047001000780065004000ec004700ff
:104aac00114878000000eb00000f78000f00370071
:104abc009e00780066804000ea0047009100780074
:104acc009140780064014700120178000000410019
:104adc00014878006a004700100078008000e80068
:104aec006a004700010878001e0fe8006c004700c0
:104afc00104078000080fb009e0f5000ecff3c0043
:104b0c006c004700104078000080fb0066004000fd
:104b1c00e4004700910078000080400031c0b300f1
:104b2c00014878006c004700104078000080fb00c2
:104b3c00670540006c00470010407800674040005b
:104b4c00e4004700110178008040780002007800f2
:104b5c00f40c0700e4004700910078008a804000c4
:104b6c0080487800a4e784006c004700104078006f
:104b7c000080fb0068004000800078006400470063
:104b8c009001780000d0bf000080fb00010178008c
:104b9c0083007800040001000004e00015003200de
:104bac00808980000000e8008089880000000000f7
:104bbc00f0e78400000001000004e000fcff3a0074
:104bcc00e0e78400000001008000780066004700e8
:104bdc000108780066004700100078000000e00033
:104bec0002003a0010c0b300030037000000eb00d5
:104bfc00000f78000040eb008907780088077800e8
:104c0c004f0578004f04be000080fa00000006003b
:104c1c000000fa00a08c80000000e00010003a00b8
:104c2c00ab0107000004e000060032002186800082
:104c3c0010002000010001001000200028000700d7
:104c4c00f4ff370021868000908c80000100010069
:104c5c00007028003139200000190700edff3700e3
:104c6c004900070079010700a08c8000e30f500079
:104c7c0012003200e30f500005003e00e10f50001f
:104c8c0008003200e20f50000a0032001100370019
:104c9c00e40f50000b003200e50f50000b00320007
:104cac000c003700b18f80000040eb0001000100c8
:104cbc000a0037006a00070008003700e700070009
:104ccc0006003700210107000400370038010700f7
:104cdc00020037003601070000000000cdff37004e
:104cec000200fa00000f7800a08c80009e0f50008c
:104cfc0007003200a08c8000170007009e0078008f
:104d0c00a18c88001e007800040007000100370009
:104d1c00000000000080fa00000006000200fa000b
:104d2c00000f78001e007800e20f500003003200e4
:104d3c00e40f500003003200050037002a01070081
:104d4c0003003700a0db8000000001000000000021
:104d5c000080fa00000006000200fa00000f780044
:104d6c001e007800e40f500004003a00b0db800015
:104d7c0000000100000000000100370000000000ee
:104d8c000080fa00000006000000fa0090d1bf007d
:104d9c000080fb004500de00004078000080fb0036
:104dac0061006000004078000004e0002a0032003e
:104dbc00c08f800000000100e08580000000010031
:104dcc000004e0002100320001d0bf000080fb0095
:104ddc00e30f500012003200e30f500005003c00be
:104dec00e10f500008003200e20f500009003200c1
:104dfc0014003700e50f50000c003200e60f500095
:104e0c000d0032000f00370050002000b4ff0700e7
:104e1c000c00370020002000b1ff0700090037000c
:104e2c0030002000aeff07000600370040002000d5
:104e3c00abff07000300370010002000a8ff07009d
:104e4c00000000000040eb007d01070090d1bf0086
:104e5c000054a10090f1b7000080fa000000060099
:104e6c000000fa00889fbe008a9fbe0090d1bf0050
:104e7c000080fb004200de00004078000080fb0058
:104e8c0061006000004078000004e0000400320083
:104e9c00a402070090d1bf000024a10090f1b7003c
:104eac00b18f800010c0b300010001006fd0bf00b3
:104ebc00e14f50000e003a0090d1bf000080fb0083
:104ecc004400de00004078000080fb0061006000c0
:104edc000000e00003003a0090d1bf000044a000a5
:104eec0090f1b70070de8000000001001700370061
:104efc006fd0bf00e24f500014003a0090d1bf00b9
:104f0c000080fb004400de00004078000080fb00c5
:104f1c0061006000004078000004e00007003200ef
:104f2c00208580003185800060858800718588002f
:104f3c0090d1bf000044a10090f1b70082de800048
:104f4c0090828000a1828000020001009301070082
:104f5c0000db880011db8800208280003182800019
:104f6c0020db880031db880060da80000000010063
:104f7c000004e0002d00320060db800071db80005b
:104f8c00a0838800b1838800f08980008000eb004a
:104f9c00adef0700f226210033a8230090f10700a3
:104fac00c0898800d1898800c4898000d589800097
:104fbc00a0898000b18980000001be000400be0001
:104fcc00baef0700a0858800b1858800288580008d
:104fdc0039858000aa858000bb858000a083800075
:104fec00b183800002002000032724009df00700fd
:104ffc000001be000a00be0079f10700020020008b
:10500c00a347240076f107000001be000800be0093
:10501c00afef07002085880031858800c0898000ab
:10502c00d1898000a0898800b1898800b0d2800025
:10503c00000001000004e0000400320060d2800097
:10504c0071d28000c0838800d18388004f05be00d8
:10505c004f04be000080fa00000006000000fa00b9
:10506c00b18f800010c0b30001000100f3858000f7
:10507c000001eb009100200010c0b3000300010000
:10508c000004e0000400320010c0b300ec00070084
:10509c0006d0bf00ecf1b700ecd1bf000080fb00e4
:1050ac00e40f500021003200e50f500022003200c6
:1050bc00e30f500023003a0090d1bf000080fb00aa
:1050cc004200de00004078000080fb0061006000c0
:1050dc00004078000004e0001100320011020700cb
:1050ec00008480001184800062e62900f3532400c0
:1050fc003bf1070082262200830624006bef070099
:10510c0002002000832c240056f0070040db8800ae
:10511c0051db880090d1bf000024a10090f1b700b2
:10512c0060da8000000001000600370090da800091
:10513c000000010003003700a0da8000000001002d
:10514c00000000000080fa00000006000000fa00d9
:10515c00b18f800010c0b30001000100f385800006
:10516c000001eb00d100200010c0b30003000100cf
:10517c000004e0000c00320032d0bf000004e0005c
:10518c000500320092db8000a0818000b18180009c
:10519c00020001000400370082db8000a081800047
:1051ac00b1818000020001000080fa0000000600be
:1051bc000000fa00b18f80000040eb0001000100fc
:1051cc00b0db800000000100070007002186800092
:1051dc00d0082000010001000000eb00c0fe070019
:1051ec000080fa00000006000000fa004031ef00d9
:1051fc003e31ef006000b800a0898800b1898800ba
:10520c006000b800c0898800d18988006000b800af
:10521c0020858800318588006000b8006085880092
:10522c00718588006000b800a0858800b185880071
:10523c0010c0b3006ff0b70090d1bf000044a100c4
:10524c0090f1b7000080fa00000006000000fa00a0
:10525c0090d1bf000080fb004600de0000407800cb
:10526c000080fb0061006000004078000004e0005a
:10527c0015003200a08c8000e20f50000a003200b2
:10528c00e30f50000c003a0060db800071db800003
:10529c00808388009183880001868000c0002000f4
:1052ac00010001000500370001868000600020002d
:1052bc0001000100010037000000000090d1bf0088
:1052cc000064a10090f1b7000080fa000000060015
:1052dc000400fa005217070030868000000001001d
:1052ec00d285800031002000200020000200010047
:1052fc000004e0004e003200a0e984000000010030
:10530c00d1e98400f226210033a82300a0bc22009e
:10531c000100010050da800000000100908c880030
:10532c00908c80000000e00039003a000040eb0057
:10533c00004f7800150037000e00e8001e4878007a
:10534c00148680000e00e80013c0b3000001780042
:10535c0091002000b0002000040001000004e000d7
:10536c00040032000040eb00350007001e4fe8003f
:10537c000600370000092000908c880021868000f0
:10538c00908c800001000100030037001e40780063
:10539c00e64f5000e8ff3600908c80000000e000e3
:1053ac001b003a000040eb00004f7800150037005e
:1053bc000e80e8001e487800148680000e80e800fd
:1053cc0013c0b3000001780081002000a000200071
:1053dc00040001000004e000040032000040eb0077
:1053ec00170007001e4fe8000600370010092000c8
:1053fc00908c880021868000908c80000100010038
:10540c00030037001e407800e74f5000e8ff3600dd
:10541c00a0de800000000100908c80000000e00005
:10542c0003003a0010c0b3000080fa000000060030
:10543c0000602400313c220008170700a8ff370049
:10544c000400fa008e80e80080487800108080000c
:10545c00e80f50001d003200e90f500048003a00e0
:10546c006100210091407800014f78001e407800c7
:10547c00e54f50000d003e0072da8000fc874700bb
:10548c007c805700810021000d0009003118780044
:10549c00c001b1000e80e800904078001e407800fa
:1054ac0002000100fc8757003a0037001e407800cc
:1054bc00e64f500034003a00c21421008100210054
:1054cc000d00090031197800320037000e00e80099
:1054dc004202210012417800024878000e00e800d8
:1054ec0010407800e54f50000b003e0086da80003b
:1054fc0072818000838180005081800061818000f6
:10550c000202be000001be000e00e8001040780050
:10551c00060001001f0037000e00e8001040780064
:10552c00e64f500009003a005081800061818000f4
:10553c00208f8800318f88007081800081818000ed
:10554c00408c8800518c8800120037000e00e80057
:10555c0010407800e74f50000d003a005081800059
:10556c0061818000408f8800518f8800708180009d
:10557c0081818000608c8800718c88000500370068
:10558c00000000000300370000000000010037009d
:10559c00000000000080fa00000006000400fa0081
:1055ac00889fbe006fd0bf00e14f50006d003a00e5
:1055bc00c0818000e10f500055003a00d08180007e
:1055cc00e10f500013003a00e0818000f18180006f
:1055dc0002002000a347240022ef07000004be00b5
:1055ec00f082800001838000020020000327240049
:1055fc001cef07000001be000800be0019ef0700f9
:10560c000082880011828800008280001182800054
:10561c005a003700d0818000e20f500037003a006a
:10562c00f082800001838000020020000327240008
:10563c000cef07000001be000000200001f8230061
:10564c0008ef07005083880061838800e0818000a8
:10565c00f181800002002000a347240001ef070025
:10566c000004be00f0828000018380000001be00b7
:10567c0017ee07000001be000800be00f9ee07009f
:10568c003083880041838800f08980008000eb0023
:10569c00eded0700f226210033a82300d0ef070020
:1056ac00008fbe003083800041838000f2282c00e4
:1056bc0053d72300caef07000004be0050838000bc
:1056cc0061838000b2fd200093042400c4ef070026
:1056dc001e01be00c2ef070027f307000001be0049
:1056ec000800be00beef070000828800118288000f
:1056fc00008280001182800020003700d081800061
:10570c00e30f50001c003a006000b8001b0037008b
:10571c00c0818000e20f500017003a0070828000b8
:10572c0081828000208a8800318a88002084800051
:10573c0031848000408a8800518a8800e0d3290097
:10574c00640040009000780040142100010001002a
:10575c000004e00008003200208c8000318c8000b6
:10576c00060037006fd0bf00e24f500002003a0035
:10577c006000b800010037006000b8004f04be00a4
:10578c000080fa00000006000400fa00881f780070
:10579c00e08980000000e800e0898800008a800031
:1057ac000000e800008a8800108a80000000e800f1
:1057bc00108a8800008a8000f30f50000400360025
:1057cc0090d1bf000064a00090f1b7004031ef0011
:1057dc00118a8000703e2000808f5000040036003b
:1057ec0090d1bf000054a00090f1b7004231ef00ff
:1057fc00e1898000900f2000808f5000040036005b
:10580c0090d1bf000024a00090f1b7003c31ef0014
:10581c00a08c8000e20f50003f003a00f08980001d
:10582c000000e800f0898800f08980008000eb001f
:10583c0085ed0700f226210033a8230068ef07004e
:10584c00008fbe00f08280000183800018c0b3007e
