:020000040000fa
:080000000002040000000000f2
:020000040000fa
:040008008e06000060
:020000040000fa
:04000c008e0600005c
:020000040000fa
:040010008e06000058
:020000040000fa
:040014008e06000054
:020000040000fa
:040018008e06000050
:020000040000fa
:04001c008e0600004c
:020000040000fa
:040020008e06000048
:020000040000fa
:040024008e06000044
:020000040000fa
:040028008e06000040
:020000040000fa
:04002c00a605000025
:020000040000fa
:040030008e06000038
:020000040000fa
:040034008e06000034
:020000040000fa
:040038008e06000030
:020000040000fa
:04003c008e0600002c
:020000040000fa
:040040008e06000028
:020000040000fa
:040044008e06000024
:020000040000fa
:040048008e06000020
:020000040000fa
:04004c008e0600001c
:020000040000fa
:040050008e06000018
:020000040000fa
:040054008e06000014
:020000040000fa
:040058008e06000010
:020000040000fa
:04005c008e0600000c
:020000040000fa
:040060008e06000008
:020000040000fa
:040064008e06000004
:020000040000fa
:040068008e06000000
:020000040000fa
:04006c000605000085
:020000040000fa
:040070008e060000f8
:020000040000fa
:040074008e060000f4
:020000040000fa
:040078008e060000f0
:020000040000fa
:04007c008e060000ec
:020000040000fa
:040080008e060000e8
:020000040000fa
:040084008e060000e4
:020000040000fa
:040088008e060000e0
:020000040000fa
:04008c008e060000dc
:020000040000fa
:040090008e060000d8
:020000040000fa
:040094008e060000d4
:020000040000fa
:040098008e060000d0
:020000040000fa
:04009c008e060000cc
:020000040000fa
:0400a0008e060000c8
:020000040000fa
:0400a4008e060000c4
:020000040000fa
:0400a8008e060000c0
:020000040000fa
:0400ac008e060000bc
:020000040000fa
:0400b0008e060000b8
:020000040000fa
:0400b4008e060000b4
:020000040000fa
:0400b80086050000b9
:020000040000fa
:0400bc008e060000ac
:020000040000fa
:0400c0008e060000a8
:020000040000fa
:0400c4008e060000a4
:020000040000fa
:0400c8008e060000a0
:020000040000fa
:0400cc008e0600009c
:020000040000fa
:0400d0008e06000098
:020000040000fa
:0400d4008e06000094
:020000040000fa
:0400d8008e06000090
:020000040000fa
:0400dc006e060000ac
:020000040000fa
:0400e0008e06000088
:020000040000fa
:0400e4008e06000084
:020000040000fa
:0400e8008e06000080
:020000040000fa
:0400ec008e0600007c
:020000040000fa
:0400f0008e06000078
:020000040000fa
:0400f4008e06000074
:020000040000fa
:0400f8008e06000070
:020000040000fa
:0400fc008e0600006c
:020000040000fa
:040100008e06000067
:020000040000fa
:040104008e06000063
:020000040000fa
:040108008e0600005f
:020000040000fa
:04010c008e0600005b
:020000040000fa
:040110008e06000057
:020000040000fa
:040114008e06000053
:020000040000fa
:040118008e0600004f
:020000040000fa
:04011c008e0600004b
:020000040000fa
:040120008e06000047
:020000040000fa
:040124008e06000043
:020000040000fa
:040128004605000088
:020000040000fa
:04012c008e0600003b
:020000040000fa
:040130008e06000037
:020000040000fa
:040134008e06000033
:020000040000fa
:040138008e0600002f
:020000040000fa
:04013c008e0600002b
:020000040000fa
:040140008e06000027
:020000040000fa
:040144008e06000023
:020000040000fa
:040148008e0600001f
:020000040000fa
:04014c008e0600001b
:020000040000fa
:040150008e06000017
:020000040000fa
:040154008e06000013
:020000040000fa
:040158008e0600000f
:020000040000fa
:04015c008e0600000b
:020000040000fa
:040160008e06000007
:020000040000fa
:040164008e06000003
:020000040000fa
:040168008e060000ff
:020000040000fa
:04016c008e060000fb
:020000040000fa
:040170008e060000f7
:020000040000fa
:040174008e060000f3
:020000040000fa
:040178008e060000ef
:020000040000fa
:04017c008e060000eb
:020000040000fa
:040180008e060000e7
:020000040000fa
:040184008e060000e3
:020000040000fa
:040188008e060000df
:020000040000fa
:04018c008e060000db
:020000040000fa
:040190008e060000d7
:020000040000fa
:040194008e060000d3
:020000040000fa
:040198008e060000cf
:020000040000fa
:04019c008e060000cb
:020000040000fa
:0401a000c605000090
:020000040000fa
:0401a400fe05000054
:020000040000fa
:0401a8008e060000bf
:020000040000fa
:0401ac008e060000bb
:020000040000fa
:0401b0008e060000b7
:020000040000fa
:0401b400360600000b
:020000040000fa
:0401b8008e060000af
:020000040000fa
:0401bc008e060000ab
:020000040000fa
:0401c0008e060000a7
:020000040000fa
:0401c4008e060000a3
:020000040000fa
:0401c8008e0600009f
:020000040000fa
:0401cc008e0600009b
:020000040000fa
:0401d0008e06000097
:020000040000fa
:0401d4008e06000093
:020000040000fa
:0401d8008e0600008f
:020000040000fa
:0401dc008e0600008b
:020000040000fa
:0401e0008e06000087
:020000040000fa
:0401e4008e06000083
:020000040000fa
:0401e8008e0600007f
:020000040000fa
:0401ec008e0600007b
:020000040000fa
:0401f0008e06000077
:020000040000fa
:0401f4008e06000073
:020000040000fa
:0401f8008e0600006f
:020000040000fa
:0401fc008e0600006b
:020000040000fa
:040200008e06000066
:020000040000fa
:040204008e06000062
:020000040000fa
:040208008e0600005e
:020000040000fa
:04020c008e0600005a
:020000040000fa
:040210008e06000056
:020000040000fa
:040214008e06000052
:020000040000fa
:040218008e0600004e
:020000040000fa
:04021c008e0600004a
:020000040000fa
:040220008e06000046
:020000040000fa
:040224008e06000042
:020000040000fa
:040228008e0600003e
:020000040000fa
:04022c008e0600003a
:020000040000fa
:040230008e06000036
:020000040000fa
:040234008e06000032
:020000040000fa
:040238008e0600002e
:020000040000fa
:04023c008e0600002a
:020000040000fa
:040240008e06000026
:020000040000fa
:040244008e06000022
:020000040000fa
:040248008e0600001e
:020000040000fa
:04024c008e0600001a
:020000040000fa
:040250008e06000016
:020000040000fa
:040254008e06000012
:020000040000fa
:040258008e0600000e
:020000040000fa
:04025c008e0600000a
:020000040000fa
:040260008e06000006
:020000040000fa
:040264008e06000002
:020000040000fa
:040268008e060000fe
:020000040000fa
:04026c008e060000fa
:020000040000fa
:040270008e060000f6
:020000040000fa
:040274008e060000f2
:020000040000fa
:040278008e060000ee
:020000040000fa
:04027c008e060000ea
:020000040000fa
:040280008e060000e6
:020000040000fa
:040284008e060000e2
:020000040000fa
:040288008e060000de
:020000040000fa
:04028c008e060000da
:020000040000fa
:040290008e060000d6
:020000040000fa
:040294008e060000d2
:020000040000fa
:040298008e060000ce
:020000040000fa
:04029c008e060000ca
:020000040000fa
:0402a0008e060000c6
:020000040000fa
:0402a4008e060000c2
:020000040000fa
:0402a8008e060000be
:020000040000fa
:0402ac008e060000ba
:020000040000fa
:0402b0008e060000b6
:020000040000fa
:0402b4008e060000b2
:020000040000fa
:0402b8008e060000ae
:020000040000fa
:0402bc008e060000aa
:020000040000fa
:0402c0008e060000a6
:020000040000fa
:0402c4008e060000a2
:020000040000fa
:0402c8008e0600009e
:020000040000fa
:0402cc008e0600009a
:020000040000fa
:0402d0008e06000096
:020000040000fa
:0402d4008e06000092
:020000040000fa
:0402d8008e0600008e
:020000040000fa
:0402dc008e0600008a
:020000040000fa
:0402e0008e06000086
:020000040000fa
:0402e4008e06000082
:020000040000fa
:0402e8008e0600007e
:020000040000fa
:0402ec008e0600007a
:020000040000fa
:0402f0008e06000076
:020000040000fa
:0402f4008e06000072
:020000040000fa
:0402f8008e0600006e
:020000040000fa
:0402fc008e0600006a
:020000040000fa
:040300008e06000065
:020000040000fa
:040304008e06000061
:020000040000fa
:040308008e0600005d
:020000040000fa
:04030c008e06000059
:020000040000fa
:040310008e06000055
:020000040000fa
:040314008e06000051
:020000040000fa
:040318008e0600004d
:020000040000fa
:04031c008e06000049
:020000040000fa
:040320008e06000045
:020000040000fa
:040324008e06000041
:020000040000fa
:100400004fbd21000eff22000e01880000000000f9
:10041000000020000000e000020032000001200087
:1004200020028800140007003e0207000000e000e0
:1004300003003a00407b2400010020000200370046
:100440000000200001002000810f70000100320038
:100450000f000700000020000000e0000200320052
:100460000000020000000000c025020000000000a3
:100470000040da000000fe00a00c20000000e000b8
:1004800002003200002020009001880000000600d9
:10049000a1028800800478000000eb001f003700f4
:1004a000e284440054a0b4009905ba00e2844400f8
:1004b00054a0b4009906ba00e284440054a0b400e9
:1004c0000006eb00476fde00fd07b200ae018800ba
:1004d000636ce10003003a000ad801000000eb0061
:1004e0000e003700606ce10008003a00004deb00a0
:1004f0000a05e800020039003420ec000af0a000f0
:100500008b05e900f9ff3e00040037006168e10057
:10051000010032000086eb000b00070019c7ba008b
:100520001905ba000e04e00003003a000a00e000da
:10053000dbff3a0000000600fe07b200ae028800b2
:100540008a047800f5ff37000cd0a300e20f4d00bd
:100550001c003b0089027800354dba000a05e8000e
:10056000020039003420ec000af0a0008b05e900fd
:100570000f003200254dba000a05e80002003900dc
:100580003420ec000af0a0008b05e90008003200de
:100590000c00e0000600320015cdba000a05e800a4
:1005a000020039003420ec000af0a0008b05e900bd
:1005b0008984e80054a0b4000b00e000e2ff3a0098
:1005c000000006009902ba00055d78008b05e9007d
:1005d000f7ff3200c82ade00055d78008b05e900d0
:1005e000f3ff32000c00e000f1ff320019ddba0029
:1005f000eeff3700000000000000000000000000d7
:1006000000000000000000000000000000000000ea
:1006100000000000000000000000000000000000da
:1006200000000000000000000000000000000000ca
:1006300000000000000000000000000000000000ba
:100a00000000000000000000000000003600f800b8
:100a1000809fbe00829fbe00849fbe00869fbe0056
:100a20000000fa000228a900211080000008200020
:100a3000008060000000e0000c00320004e2a90029
:100a40000000eb0010de88000000eb0020de8800d4
:100a50000000eb00e0dd88000000eb00f0dd880026
:100a60000000eb00d0dd88000100370058170700b8
:100a70000080fa004f03be004f02be004f01be00cf
:100a80004f00be003600f900004006003600f800b6
:100a9000809fbe00829fbe00849fbe00869fbe00d6
:100aa0000000fa000000eb0010de88000000eb0000
:100ab00020de88000000eb00e0dd88000000eb0095
:100ac000f0dd88000000eb00d0dd88002000200071
:100ad000c0dd88000542a900c09080000000e00051
:100ae00002003200c0908000000001000808a90048
:100af0000080fa004f03be004f02be004f01be004f
:100b00004f00be003600f900004006003600f80035
:100b1000809fbe00829fbe00849fbe00869fbe0055
:100b20000000fa0040918000000001000488a90044
:100b30000080fa004f03be004f02be004f01be000e
:100b40004f00be003600f900004006003600f800f5
:100b5000809fbe00829fbe00849fbe00869fbe0015
:100b60000000fa0050918000000001000028a90058
:100b70000080fa004f03be004f02be004f01be00ce
:100b80004f00be003600f900004006003600f800b5
:100b9000809fbe00829fbe00849fbe00869fbe00d5
:100ba0003200f8003400f80010002000a001880096
:100bb0000020200000d0fe000200fa0091608000ba
:100bc000010f7800729080009e0078000000eb001a
:100bd000020001000bc8a9000080fa003400f900ef
:100be0003200f9004f03be004f02be004f01be00ad
:100bf0004f00be003600f900004006003600f80045
:100c0000809fbe00829fbe00849fbe00869fbe0064
:100c10003200f8003400f80010002000a001880025
:100c20000020200000d0fe000200fa00a160800039
:100c3000010f7800729080009e0078001000200064
:100c4000020001000be8a9000080fa003400f9005e
:100c50003200f9004f03be004f02be004f01be003c
:100c60004f00be003600f900004006003600f800d4
:100c7000809fbe00829fbe00849fbe00869fbe00f4
:100c80003200f8003400f80010002000a0018800b5
:100c90000020200000d0fe000200fa00e160800089
:100ca000010f7800729080009e00780020002000e4
:100cb000020001000c68a9000080fa003400f9006d
:100cc0003200f9004f03be004f02be004f01be00cc
:100cd0004f00be003600f900004006003600f80064
:100ce000809fbe00829fbe00849fbe00869fbe0084
:100cf0000000fa00209080000000010005a8a90073
:100d00000080fa004f03be004f02be004f01be003c
:100d10004f00be003600f900004006000040da0037
:100d20000000fe000000050014002000af033700a3
:100d3000f4ff2f00ad0337000001be0041000700a3
:100d40000470a70003f0a1006509b100160032008d
:100d50000d0035006828e10006003500f0ff2f0087
:100d6000f1ff27000300e00013003b000100280012
:100d70000000050000004000818048008502e90075
:100d8000fcff3a0008003700f88f420002003c00e8
:100d90008000eb00000005008100d1000080d3003e
:100da0008502e800fcff3a000300e00002003b007f
:100db00060001000e0801800000006000001be0086
:100dc000200007000470a70003f0a10003f8a300af
:100dd00013003a006509b100100032000900350027
:100de0006928e1000200350001002800000005002c
:100df00000004000818048008502e900fcff3a00c5
:100e000000000600f88f4200050035008100d10087
:100e10000080d3008502e800fcff3a0000000600d5
:100e20008000eb00000005004f89de0082017800a1
:100e3000890337006011b8009703370004002000d1
:100e40006a033700c70ade00f107b200f50fb200ef
:100e500008003200e1cf4200020032000170a00021
:100e600024000500810f7000010032000408050015
:100e700044000500810f700002003a0014000500d4
:100e80008502e9000000400081c04800fcff3b00f3
:100e90000170a0002400050007f827000783610007
:100ea0000638e10004003a00f7072000878361005c
:100eb0008703710001003a0003f0a200889fbe0082
:100ec0008a9fbe008c9fbe00470ade000480a100fe
:100ed000c71ade000580a100070028000785600012
:100ee00087856100f70f20000720e1009e00320097
:100ef0000728e1009c003200010678000400e000b1
:100f0000b4003200f7072000878060000170a00065
:100f10000500e000c0003200f70720008781610073
:100f20000370a000050652000f003a000b50e100cc
:100f30000b0032000308e10002003a000200e10069
:100f40007e00320002045000838458000400310007
:100f50000001fd008101fd008402fd008a05fd0005
:100f60006044b800210037000520e10005003d0085
:100f70000001fd008101fd008402fd008a05fd00e5
:100f8000050652007a60e100050035000170a100fd
:100f90004722dd00848070008a8070006300370083
:100fa0006044b800ef02660007ff2f0007066600e6
:100fb0000500e00006003400f08312008714dd0015
:100fc0000511de00071bdd00060171008519de003a
:100fd0007060e100050035000904780082047800a3
:100fe000030178008001eb00700656000b50e10011
:100ff00003003a00020040008380480004003700ec
:1010000060041400e0841c00020058008380580033
:101010000188a300060032008100d1000080d300c7
:101020008984d3000884d3000402e8002700370035
:101030000178a30025003a000100e000030032001f
:101040008186cf00698656000a0037008c00200098
:101050000000e00004003a000900780088047800ed
:101060000004eb00700252008086cf000d0646009f
:101070000c06e9007060e100060035008000780091
:1010800009007800880478000004eb007006560020
:10109000700252000c00e0000c0034008c08dd00ef
:1010a000f00316000703de00868070000c00dd00f0
:1010b000074bde00060070008c4cdd000743de00ad
:1010c000868474000c44dd000c0252006120e100b3
:1010d000200035006101600007002800878164005e
:1010e000f7ff270087836400070374000300e00014
:1010f0000600320082037300040032000000e800a2
:10110000e08048000188a3000e003a00f70f20009d
:101110000720e1004a003d000170a1004722dd00e8
:10112000810072008a8070000000be004f06be0081
:101130004f05be004f04be00000006006000b8006e
:10114000faff37008100d1000080d3000402e800dc
:10115000eeff37000401780089017400a101070047
:101160008a807000f1ff3700f7010700070278005e
:101170000001fd008101fd00f301070087027800f6
:10118000850372000778a300040032000001fd000f
:101190008101fd0006020700e4ff370085036200bd
:1011a0000768a300080032000b50e1000300320082
:1011b000f0ff2f00f1ff2700dcff37000001fd00ea
:1011c0008101fd00d9ff37000468a300d7ff32007a
:1011d000faff3700f8ff2700888360000b003a0011
:1011e0000000e00009003a0083036400828373007a
:1011f000020032000200be00ccff37000b50e100bd
:10120000ceff3a000200be00c8ff370014002000e5
:10121000810064003eff3700f8ff270088836100eb
:1012200004003a000200e00002003a008c0078005e
:10123000beff3700150020008301640039ff37002e
:1012400001f827000000200081007500b7ff37007b
:10125000889fbe008a9fbe008c9fbe001b0020009e
:101260000202be0005866800060028000606660029
:101270004709de00f20fb200820032000243e800ac
:1012800080003200c729de00f30fb2007d0032007b
:101290000343e8007b003200f107b2000170a000b8
:1012a000f507b2000570a000c708dd004903de00a5
:1012b000868070004700dd00c72add004923de007c
:1012c000868272004722dd000305510004035000ae
:1012d00085835800030031000000400081804800f1
:1012e0000a05e9008c1f78008a9fbe0004005000a8
:1012f000858058000402420085824a0000004000b8
:10130000818048000005eb000004be006033b80097
:101310000406be000d48e10056003100050009003a
:101320004dccd8000c01b8000d02b80084814100fa
:1013300060824a008283530003045c0084845c0062
:1013400060055d000a00e00025003a008005780095
:101350000d40e10049003100880078000700780066
:10136000050009004d88d8000c01b8000d02b80036
:101370008481410060824a006003110083835b0026
:1013800004045c00e0845c000900e00021003a00f5
:101390004f01be000300e0002b003200e3016000bb
:1013a000070673008c817100010032006400700038
:1013b0004200de004e5edd000c007000c258de0010
:1013c00001e0a00083010700cf0178008180710057
:1013d0004f06be004f05be004f04be0000000600d1
:1013e0008c8343000d044c00e0844c0060054d00ec
:1013f0000000e9000a00e000d4ff32008c834300c3
:101400000d044c00e0844c0060054d000000e90034
:10141000ceff37000c0343008d834b0060044c006b
:10142000e0844c000000e9000900e000d8ff320031
:101430000c0343008d834b0060044c00e0844c009f
:101440000000e900d2ff37004200de004e5edd0002
:101450000c007000c258de0001e0a000cf0178004f
:101460000300e000daff320060001000e0801800a6
:10147000d7ff3700f0ff2f00aaff3700f0ff2f0043
:10148000b9ff37000404be002f010700870678006b
:101490000004fd008104fd002b01070007836600a6
:1014a0000678a300030032000960a7000800be0010
:1014b0002c0037000d78a300020032000800be00a7
:1014c000280037000778a30026003a0001f0a100a9
:1014d00009f0a1000668a30003003200f1ff270015
:1014e000f0ff2f00baff37000d68a30003003200a1
:1014f0000800be008c807000b5ff37000768a300ad
:1015000007003a000648a30003003200f1ff27005d
:10151000f0ff2f00aeff37000d48a300030032009c
:101520006000b8008c807000a9ff37000748a30056
:101530000400320001f82700000020008c807000b9
:10154000a3ff3700760107000004fd008104fd00c1
:1015500002057800720107000802be008a017800c7
:1015600059ff37000160a00012022000629188003c
:1015700097ff37000100e000120032000500e00094
:1015800010003200889fbe008a9fbe008c9fbe0064
:101590000006eb0001f8a300030032006000100019
:1015a000e08018000cf0a00005f8a3000300320052
:1015b00060021200e0821a000cf0a2008005eb002d
:1015c00041ff37006000b800020005000383680097
:1015d0000700280007036300470ade000480a1001b
:1015e000c71ade000580a100f70f20000720e100e8
:1015f000420032000728e10040003200889fbe0010
:101600008a9fbe008c1f7800f107b200f307b2007a
:101610000400e000640032000170a0000500e0005a
:10162000680032000370a00085054200eb07b1009e
:101630000204b8000302b8008484440060854a00b4
:10164000020ab800848444000a854a00030ab800ec
:1016500004054500040033000804d0008984d2004a
:101660000a85d2008b05e9006158e1003d00350094
:101670000210200009016100030820008981610037
:10168000f70720008783640008867300c84cde00db
:10169000c853dd00878474004855de000300e00075
:1016a0000600320082037600040032008904e8005c
:1016b00060054d000a88a3000c003a00f70f2000d7
:1016c0000758e10044003d000a70a100c75ddd003d
:1016d0000a8575008a007300090078004f067800bb
:1016e0004f05be004f04be00000006000a05d100f1
:1016f0008984d3008b05e800f0ff3700881f78004d
:101700000604780090000700070278000001fd0041
:101710008101fd008c0007008702780085037200bc
:101720000778a300050032000001fd008101fd00e3
:101730009f0007004f047800000006008503720038
:101740000748a30003003200f0ff2f00f1ff27003d
:10175000f8ff37000000200001f8270088807000a3
:10176000f4ff3700880178004848dd00808171006f
:101770004848de00c850dd0001007000c850de009f
:10178000060478000b0178001600070088807000be
:10179000d2ff37000500e0000500320017002000ee
:1017a0003a0007009dff370081037000f9ff3a00ff
:1017b000860078004f0678004f05be004f04be003b
:1017c0000000050083037100f9ff320027002000ac
:1017d0002e00070094ff370001f827008680700074
:1017e000f4ff37000100e000260032006101110023
:1017f0007810e10023003c006022b8007010e10086
:101800000400350080027800010078008000eb00c1
:10181000700151000200e000090034007003110063
:10182000062add00822ade008603dd008782720040
:101830000200de00860bdd00070070008208de007b
:1018400084817100f4ff27000482620084817100aa
:1018500004002800848262006102600005f0a60096
:101860000000060004827100070032000000e8005a
:10187000e0804800000006000002be006000b800e2
:10188000efff37006000b80000000600889fbe0030
:101890000004eb006138e10016003a000100e000ae
:1018a00008003a00c800de004800dd008800200083
:1018b0000100e00003003a00c800de004800dd003f
:1018c000680444008184cf00e98454000600340099
:1018d0008908dd00f08314008703de008780700034
:1018e0000900dd0009044400610214004f04be0039
:1018f000000006000300e00008003a00c811de0006
:101900004811dd00880020000300e00003003a00d9
:10191000c811de004811dd00680444008384cf0054
:10192000e9845400060034008919dd00f0831400b6
:101930008713de00878171000911dd00090444006e
:10194000e1021400e9ff37002700200001f0a700a2
:1019500017002000470bde00f60fb2000400320033
:101960000643e8000a0032004702b3000000060008
:1019700001037800f607b2000603700002003a0087
:101980000703b300000006008702b3000000060052
:1019900001037800f607b20006037000020032006f
:1019a0000770a000000006000760a000000006000d
:1019b0000478a300040032000578a300030032007d
:1019c0000168a30001003a000200be000160a0000f
:1019d0000000060081017000270032008002eb0049
:1019e00001f8a3000300320060001000e08018003e
:1019f00015002000f40720000202420020003400fd
:101a0000f703200087036000060420000003630042
:101a100002082000000161004700de00c909dd0066
:101a200000807100c708de000600e00008003200f8
:101a300087037100060032001000b0000180b00082
:101a40000188a30002003200c108de000402e800a1
:101a5000f107b200f30f20000320e10003003d0076
:101a60004722dd00810072002900370001f82700bd
:101a70000000eb00260037006000b8000000060000
:101a8000680212007f20e100020034006000b8000c
:101a90001f0037006011b8007020e100040035001d
:101aa00080017800010078008000eb007002520095
:101ab0000400e00009003400f00312000719dd0003
:101ac0008419de000703dd00868171000400de005a
:101ad000070bdd00060070008408de00f7ff27001a
:101ae00083836300870371000600280003036300fb
:101af000070032000700e00003003a0061016000c7
:101b000002817300020032001000b0000180b000ba
:101b10000500a6000000060001f0a000000006007d
:101b20004f0ade004709de00f107b200f20fb200f3
:101b30000b003200f207b1000170a000c708dd0001
:101b4000c901de00838070004700dd000400a600ac
:101b50000000060060001000e08018000000060091
:101b6000810f700001003a00000006008182cf0062
:101b70000500e00010003e008082cf00ee824200af
:101b80007028e1000400390007003e008000780062
:101b90000000eb000e003700708312008600de00ac
:101ba0000500dd000a003700708352008600dd006a
:101bb0000000eb0006003700e28252008508dd00dd
:101bc000708312000603de00868070000500dd00d1
:101bd0007507b0000501ea000400a6000000060039
:101be00060001000e080180000000600889fbe0022
:101bf0008a9fbe00841f78007c0007004f00780099
:101c000011003300f0ff2f00838f6c0006003b00b3
:101c1000040565000a00a7000800370009f0a600c7
:101c20001000200008003700820f5400838f5c00f2
:101c3000030039001000200001003e0000002000d9
:101c400009f0a7000000ea004f05be004f04be00e7
:101c50000000e00000000600881f78000304780000
:101c60000300e00007003d0060001000e080180065
:101c700060011900e081190002003b0001f02d0015
:101c8000030037000400070008f0a70001f0a000df
:101c90004f04780000000600889fbe008a9fbe00a7
:101ca000008270000402710004827100260032007c
:101cb0000004be000200be006011b8006b092000e5
:101cc000950220000182cf000a0039000541b100d1
:101cd0000082cf00070039000541b1000982cf0022
:101ce000040039000541b1000882cf00010039002d
:101cf0000541b10005425200120032000a003b00cb
:101d000082817100610164008100d1000080d300f4
:101d10008984d3000884d3008b05e8000442e800de
:101d2000f7ff3a00070037000804440089844c009c
:101d300000004800818048008b05e9000442e9006a
:101d4000f9ff3a00030007004f05be004f04be0034
:101d50000000060081002000618055000b003d005e
:101d60000b00200061fe2f000100e1001d00340087
:101d700082817100610164008904d1000884d3006c
:101d80000000e800faff3a007100200061006400e2
:101d9000030070000200600009003200610444008a
:101da000e0844c000988a500050032008b05e8009e
:101db0006808e10002003a008904d1000884d300d9
:101dc000f20f20000258e10005003d00c75ddd0074
:101dd000f907b2008980750008007800000006004d
:101de0000bf827008b007800000005000004be00ff
:101df00014fc07000003be000405be000200be0084
:101e000010fc0700844f750000000600889fbe008c
:101e10008a9fbe0030044200b0844a0030054b0067
:101e200090854b006000b1000898be000a90be008b
:101e30000440e10005c8e10006d0e10007d8e10058
:101e400002003100680040001008e8004f05be00a5
:101e50004f04be0000000600889fbe008a9fbe009f
:101e60003004be002005be000418540005985c0034
:101e700006185d0007985d00110020000440e10095
:101e800005c8e10006d0e10007d8e10001003900f3
:101e90008000eb00108810004f05be004f04be000c
:101ea00000000600f4874700889fbe008a9fbe009e
:101eb0008c9fbe008e1f7800d0b79f00e1b79f00b7
:101ec000f2b79f0083bf9f000605be000404be005a
:101ed000cfae97000000eb00c0b79f00b0b79f00e7
:101ee000a0b79f0090b79f0080b79f0000067800c2
:101ef0004fb09700000140000000e00006003d00e8
:101f00003c0007000f074700450007000f00400096
:101f1000beff070005003700360007000f07470027
:101f20003f0007000f004000cbff07004fb79700ae
:101f30000e00e0000c0035005fb29700efb2970092
:101f40007fb397008fbb9700100020000100200096
:101f50006011b800000272008182720002037300f7
:101f6000838373001c0007000c06e80001042000b6
:101f7000810f5600deff3a000e00e00005003d0034
:101f80000802be000a03be0000fe2f000f00400042
:101f90009eff07000d00e00005003a000fb2970019
:101fa0009fb297002fb39700bfb397000a000700b6
:101fb0005fb09700efb097007fb197008fb997009f
:101fc0004f0778004f06be004f05be004f04be000d
:101fd0004f01b100000006000100070000000600ec
:101fe00094b79f00a5b79f00b6b79f00c7b79f00e3
:101ff000000006009fb097004f08de00020170004d
:10200000a2b79f000fb097004f01de008180400013
:102010008100710091b79f000efe2f0000000600a6
:10202000de0078004f09de00000040000000710073
:1020300080b79f006fa897004f01de0081804000ad
:10204000010f71000e0007004f3ade000000400053
:1020500004007000e0af9f00090007000402420086
:1020600085824a0006034b0087834b00dcff070094
:102070000802be000a03be0000fe2f00000006009a
:102080001fb29700afb297003fb39700cfb397004e
:1020900000000600881f780018002000881f7800c4
:1020a00080ff07008f87e9004f04780000000600da
:1020b000801feb007bff07008f87e9000000060010
:1020c000889fbe008a9fbe00e00f5000e08f58003e
:1020d000e00f5900e08f59000c003d006044b8004b
:1020e0006055b8000000540081805c0002015d0072
:1020f00083815d00180020001500070008003d00e6
:10210000180007000004eb00050037000004eb0096
:102110000f00070002003d00120007001800200019
:10212000dcff07000800e000060032006022b80073
:102130006033b8000000520081805a0002015b0049
:1021400083815b004f05be004f04be000000060007
:10215000e00f5200e08f5a00e00f5b00e08f5b0061
:10216000000006006044b8006055b8000402540046
:1021700085825c0006035d0087835d000000060029
:10218000889fbe008a9fbe008c1f7800e00f500021
:10219000e08f5800e00f5900e08f59000d003d001e
:1021a0006044b8006055b8000000540081805c00b5
:1021b00002015d0083815d001c0020000820e10019
:1021c00009a8e1000ab0e1000bb8e1000d003d00f4
:1021d000080037000006eb00e00f5200e08f5a00c5
:1021e000e00f5b00e08f5b0006003d006044b8003c
:1021f0006055b8000402540085825c0006035d004f
:1022000087835d00aaff07000c00e0000600320093
:102210006022b8006033b8000000520081805a008c
:1022200002015b0083815b004f0678004f05be0012
:102230004f04be0000000600889fbe008a9fbe00bb
:102240008c1f78000006eb00e00f5000e08f580074
:10225000e00f5900e08f590007003d006044b800ce
:102260006055b8000000540081805c0002015d00f0
:1022700083815d001c002000e00f5200e08f5a00b7
:10228000e00f5b00e08f5b0007003d006044b8009a
:102290006055b8000402540085825c0006035d00ae
:1022a00087835d000c00a2000c0007000c00e0001a
:1022b000060032006022b8006033b800000052000f
:1022c00081805a0002015b0083815b004f06780029
:1022d0004f05be004f04be0000000600889fbe00f0
:1022e0008a9fbe008c9fbe000404b8000506b8009b
:1022f0008904460060854e000606b8000a054600bf
:10230000e0854e000706b8008b054600040eb800b5
:10231000890446000a854e00e0854d00050eb80090
:102320000a0546008b854e00060eb8008b05460058
:102330000416b8000a0546008b854e000516b80045
:102340008b054600041eb8008b0546000800be0041
:102350000a01be004f06be004f05be004f04be007e
:10236000000006000800fa000002be0085017800a7
:1023700003f0a10000017800a6fd200097f42300df
:10238000860f5100878f590006003e00f4ff2f0092
:10239000f5972300840f5100858f590064003600a3
:1023a0005d0037004f0ade0005002000163d2500c5
:1023b000b7072400860f5100878f590019003e008f
:1023c00036be2c0067012400860f5100878f59000c
:1023d0000a003e000400e00004003200b2fd2000cc
:1023e00093fc2300b5fa07004f003700b2fd200030
:1023f00093fc2300a8fa0700420037000400e00025
:1024000004003200b2fd200093042400abfa070060
:1024100040003700b2fd2000930424009efa07001c
:102420003c003700561d2300270e2400860f510064
:10243000878f590019003e00f6dd2e00f70a2400b0
:10244000860f5100878f59000a003e000400e0000b
:102450000400320042be2c006309240097fa0700f2
:102460002800370042be2c00630924008afa0700c6
:102470002d0037000400e00004003200b2fd20000f
:10248000930c24008dfa070023003700b2fd2000d2
:10249000930c240080fa07001f003700f4ff2f0080
:1024a000f5f72700840f5100858f5900030036008f
:1024b0000001be0078fa07001d0037006881570050
:1024c0004b0007006011b80063016000e10f51008c
:1024d000e08f590009003200e20f5100e08f5900ef
:1024e0000a003200e00f5100e08f59000c003a0062
:1024f0004fb89700dfb89700070037004fb8970034
:10250000dfb897000c000700090037004fb89700ac
:10251000dfb8970001f0a200900007000400370028
:102520004fb89700dfb897000300070001f0a20042
:102530000080fa0000000600889fbe008a9fbe004f
:102540008c9fbe000001be0020fc07000004be00fe
:102550000001be001dfc07000005be0002002000b7
:1025600003f02b000800be0018fc0700020020004a
:1025700003f8230051fa07000006be00f2a92a0062
:10258000a3d223000a00be0010fc07000001be0019
:102590000c00be0049fa07000006be000801be009c
:1025a0000a00be0009fc07000005be0072a1290058
:1025b000c37c23000800be0004fc0700f243200097
:1025c00063ab230034fa07000001be000a00be001e
:1025d000fefb07000001be000c00be0037fa07003a
:1025e0004f06be004f05be004f04be0000000600af
:1025f000ea874700889fbe008a9fbe008c9fbe006e
:102600008e1f78000006be00020478000005be00a0
:102610008b01780003f0a10000017800a0fd2000ec
:1026200091dc2400800f5100818f59001e003e0074
:1026300032982f0023f223000c00be00e3fb0700ba
:102640000200200003b424001cfa0700020020004e
:1026500003b4240010fa07000005be00b6f9070015
:1026600080047800a2fd200093fc23000a00be0035
:10267000d6fb07000001be000c00be0006fa0700f2
:102680000006be00325a2800832823000a00be003c
:10269000cefb07000001be000c00be00fef90700e3
:1026a000008cbe0026003700f0ff2f00f1f7270056
:1026b000800f5100818f5900060036000c01be00ca
:1026c0000c00be00f4f90700008cbe008004eb0093
:1026d0001b0037004718de00010020006009b10030
:1026e0000180b100c702dd00040020000401510098
:1026f0008581590076875700029fbe000002eb00db
:1027000013002000000178008e00780076805700ca
:102710004200070080047800e00f5600e08f5e0062
:1027200005003d001e00be0001f0a200008cbe00ae
:102730008904ea00020037003e1c78002e1478005d
:10274000090078004f0778004f06be004f05be0015
:102750004f04be00af00b10000000600889fbe001d
:102760008a9fbe008c9fbe000005be000001be0017
:1027700096fb07000004be000a01be0093fb0700a1
:102780000006be004288280083c023000800be0067
:102790008efb0700b2aa2a00a3e22300bef90700bd
:1027a0000001be000c00be0088fb07000001be0057
:1027b0000a00be00c1f907000005be000801be0006
:1027c0000800be0081fb07000001be000c00be0037
:1027d0007efb07000006be00c2c326006363230021
:1027e0000800be0079fb0700f27c2000039523005f
:1027f000a9f907000001be000c00be0073fb070032
:102800000001be000a00be00acf907004f06be0082
:102810004f05be004f04be0000000600af17b00019
:10282000889fbe008a9fbe008c9fbe008e1f7800ce
:10283000b0a79f0081af9f000204780003057800d5
:10284000f4a79f0004004200618c2100008040003a
:10285000100078006101b900b2af9f00c3af9f00c4
:102860000a00e9006102b90094af9f00a5af9f0084
:102870006300540082012000050009000200d80016
:102880006103b900d6a79f00e7a79f00e00f5300a0
:10289000e08f5b0003003d006000b800d0a79f0000
:1028a000e1a79f005fa19700efa197000280ea00d7
:1028b0008380ea008201200003002000000407005a
:1028c000cfc1de0000044400818449005fa297006c
:1028d000efa297001fab9700afab97000606520020
:1028e00087865a003fa89700cfa8970000024300b0
:1028f00081824b006eec2f000f074700c265dd00a0
:10290000e08c2100808545006011b8000803be00fe
:102910000a04be000205be00140037006000b800c3
:10292000e00f5600e08f5e000a0035001900be007f
:10293000d4b79f00e5b79f00f6b79f0087bf9f0001
:1029400039f907008fbb97007fb39700efb297006c
:102950005fb2970000afbe0061054500e0854d0005
:1029600061064600e0864e00e4844400840f550072
:10297000858f5d00e9ff34000805780064f62f00bc
:102980000f0242006011b800b2b79f00c3b79f00aa
:10299000840678001e0037003c00be004b01be00dc
:1029a000d4b79f00e5b79f00f6b79f0087bf9f0091
:1029b00006fb07000001be000800be003ff907004b
:1029c0000004be005fb29700efb2970061024200c0
:1029d000e0824a008fbb97007fb397001fa8970043
:1029e000afa89700800f5200818f5a00eaff340091
:1029f00088aebe003fb19700cfb1970061014100a2
:102a0000e0814900b2b79f00c3b79f000a05e80004
:102a10003fb29700cfb297003fa89700cfa897008a
:102a2000800f5200818f5a0008003c003fa697009b
:102a3000c255dd00a1ec2f008f8040008b85400047
:102a40006044b8006022b800e4ff37003fa9970057
:102a5000cfa99700b2b79f00c3b79f0096b79f005a
:102a6000a7b79f00bfb297004228dd00a6e72f005e
:102a70000f0343000000430000bc900090bc900096
:102a80006de72f008f8646003fb09700cfb09700cc
:102a900061005000e0805800f0af9f0081b79f00b8
:102aa000c205dd00a1f62f008f8040008b8540001d
:102ab0000d0578003fb39700cfb397000d0778005e
:102ac0001900370002002000033823000800be0070
:102ad000f6b79f0087bf9f00bcfa070096f8070073
:102ae000d1f807000006be000200200003b8240051
:102af000b6fa07000001be000800be00e6f80700b5
:102b00008df8070000adbe002b00be000c01be001a
:102b1000eaf807000004be007fb397008fbb970060
:102b200061035300e0835b00e00f5300e08f5b0024
:102b3000e4ff3c008e0678001fb697000c01780079
:102b40000800be00340307000004be00020020009d
:102b500003e023009dfa0700d002070002002000d6
:102b60000310240099fa07000001be000800be000f
:102b7000c9f807000005be006ff807000004be009a
:102b8000a9f807000001be000a00be00c2f8070055
:102b90000005be001fb19700afb19700e00f5100d4
:102ba000e08f590022003400ffa997004218dd0091
:102bb000a4e72f000f024200000042001002be00f6
:102bc000f80016000401be00010378000603e900c6
:102bd000030033008381d1000281d300fbff370063
:102be00008044100898449008100e90003003300a2
:102bf0000201410083814900fbff370002015200be
:102c000083815a000288be00770016000202be00cf
:102c10000000e900030033008582d1000482d30064
:102c2000fbff3700d4af9f00e5af9f001d003700ca
:102c30001fb39700afb39700e00f5300e08f5b0026
:102c40000b003a00ffab97004238dd00a1e72f00f0
:102c50008f804000008040001000be004789de00e9
:102c6000d2af9f00cf89de00e3af9f000d00370099
:102c70000200200003f023002df8070024002000ac
:102c800005002000d4af9f00e5af9f000000e000ea
:102c900009003d006033b800d6af9f00e7af9f004a
:102ca000620037005fa89700efa89700e00f500080
:102cb000e08f58005d00340061044400e0844c0063
:102cc0006000b8006022b800120037005d01be004d
:102cd000e00f5200e08f5a0006003a00e00f51006a
:102ce000e08f590009003200040020000510200088
:102cf00002003700f4ff2f00f50f2000821e520063
:102d000083965a0014002000050020006100400056
:102d1000e08048003fb19700cfb19700820f50008c
:102d2000838f5800e9ff35001fb39700afb39700ba
:102d3000e00f5300e08f5b0023003400e10f5300ed
:102d4000e08f5b0004003200e20f5300e08f5b0075
:102d50001d003a000e003700ffab97004238dd003f
:102d6000a1e72f008f804000008040001001be00ce
:102d700003037800f607b200a6a79f00820378003d
:102d800097a79f001fa19700afa197000d003700e4
:102d9000ffa997004218dd00a6e72f000f034300ac
:102da000000043001001be0083037800f703b20067
:102db00087a79f0082007800f19f9f007f9997006e
:102dc0008fa197000288be005fab9700efab970022
:102dd000e20f5300e08f5b0014003a000a01be00ce
:102de0000000200001f82300d4b79f00e5b79f0042
:102df00029f807000005be005fb29700efb2970008
:102e0000e00f5200e08f5a00080032000c017800f9
:102e10000000200001f823007f0207000001be002f
:102e20000a00be001cf807000005be006011b800d3
:102e30000a00be00bcf707000000e00082003a0074
:102e40003fb09700cfb09700ffab9700423add004c
:102e5000a2e72f000f014100040241006011b800f9
:102e6000030037002403be00060171008781710052
:102e700061005000e08058003fab9700cfab970057
:102e8000860f5000878f5800f6ff3d00e00f51007d
:102e9000e08f59007a003a0061005300e0805b0047
:102ea0004200dd00a7e72f008f834300008043002e
:102eb0001200200003002000f2af9f0083b79f00a4
:102ec00012002000030020000200370061014100d1
:102ed000e08149002002be00e00f5200e08f5a005e
:102ee000faff3200f2af9f0083b79f003fb3970015
:102ef000cfb3970061024300e0824b004226dd0021
:102f0000a7f62f008f8343000c8643005fa1970034
:102f1000efa1970061004100e08049003fb39700b6
:102f2000cfb397000000430081804b00c204dd0056
:102f3000e08c2100808444001fa99700afa997006e
:102f400061004100e08049000000430081804b00a7
:102f50004201dd00a3ec2f008f81410082814100fe
:102f6000c3a79f000004e8000907780088067800de
:102f70000404be00280037003e00be00aaf7070088
:102f80004fa29700009abe00c4a79f003fa29700df
:102f9000c26add00a6ec2f000f0343008502430048
:102fa0006033b8006055b800d89f9f00e99f9f002c
:102fb0000404be000d0037003800be004901be0009
:102fc000f6b79f0087bf9f0080f907000001be0091
:102fd0000a00be00b9f707000005be007fb39700e6
:102fe0008fbb970061034300e0834b001fa997004c
:102ff000afa99700820f5300838f5b00eeff340070
:103000005f9c9700ef9c97000a9ebe0061044400fd
:10301000e0844c008d06e8007faa97008fb29700ed
:103020003fb39700cfb397000400430085804b0067
:10303000800f5400818f5c00cfff3400b0b79f0039
:10304000c1b79f0087fe370098af9f00a9af9f00d0
:103050001fb49700afb497000c01ea000a00be004d
:10306000ed0107000005be000200200003b82400a7
:103070002ff707000000e00020003d00430037006c
:1030800098af9f00a9af9f001fb49700afb49700ff
:103090003fb09700cfb0970061005000e08058002b
:1030a000b0b79f00c1b79f0078045400e0845c0073
:1030b000bfb097004208dd00a2e72f000f014100da
:1030c000000041003fb19700cfb1970004003700e6
:1030d00061015100e081590078045400e0845c00f3
:1030e0002002be00e00f5200e08f5a00f8ff3200cd
:1030f000b2b79f00c3b79f002c003700020020002a
:10310000033823000a00be0030f907000af7070061
:1031100045f707000006be00bfb29700422fdd0052
:10312000a6e72f000f0343000e0743000200200014
:1031300003b8240025f907000001be000a00be0004
:1031400055f70700fcf60700008fbe003fb0970060
:10315000cfb0970061004000e0804800b0b79f000a
:10316000c1b79f0078044400e0844c004205dd00b4
:10317000a1e72f008f8040000a8540000c00be00b0
:10318000edf60700008dbe00080037003fb1970044
:103190004216dd00a3e72f008f8141000c8641001d
:1031a0000a00be00e4f60700008ebe0008017800a9
:1031b0000000200001f82300970107000004be0072
:1031c0003fb29700f4af9f008402e80095b79f00dc
:1031d000c22ddd00a6e72f000f0343000b054300bf
:1031e000a7f62f008f8343008b8543003fb69700df
:1031f000cfb697000d0037004a00be000af707005f
:103200000001be000800be00f0f8070080a5be0067
:1032100002002000033823000800be00ebf807007e
:103220000004be0061065600e0865e00e00f560016
:10323000e08f5e00f0ff3d006df12f008f864600ad
:103240003fb59700cfb597001c0037005c01be006a
:103250005e00be00d4b79f00e5b79f00dbf8070013
:103260000001be000800be0014f707000004be0005
:1032700061054500e0854d00efb297005fb2970011
:103280003fa89700cfa89700800f5500818f5d0061
:1032900007003c003fb19700cfb1970004005100f8
:1032a00085805900800f5500818f5d00e7ff340055
:1032b00088aebe0061055200e0855a00e00f55005f
:1032c000e08f5d000b0035002e9d21000a06e9000d
:1032d0004266dd00a3f62f008f8141000c8641007d
:1032e0006044b8006000b8000a02be000005be00dd
:1032f000e3ff37007fa29700e20f520005003c0079
:10330000e10f520010003d000400e0001700320001
:10331000da003700ffa29700e38f5200d7003a008f
:103320003fb397004232dd00a7f12f008f834300a7
:1033300004824300040778003fb39700cfb397009f
:10334000b4af9f00700037001fb097004205dd004a
:10335000a1f12f008f8040000a8540003fb4970004
:10336000cfb497006000b8001d0037001fb1970070
:103370004214dd00a3f12f008f8141000884410039
:103380003fb59700cfb597006000b8000400370044
:103390004801be00c9f6070061055500e0855d00e3
:1033a000e00f5500e08f5d00f9ff3d005faa970038
:1033b000efaa9700e00f5200e08f5a0001003200a0
:1033c00001f0a2008faa9700808abe00ab003700f0
:1033d0004a01be00b9f6070061045400e0845c00b5
:1033e000e00f5400e08f5c00f9ff3d000001be00db
:1033f0005fab9700efab9700e00f5300e08f5b00ef
:103400000100320001f0a2008fab9700808bbe005c
:103410005f089700ef0897009ff60700aaf12f00ba
:103420000f054500180020000900200004003700a7
:103430005a01be00a1f6070061044400e0844c007c
:103440003fb19700cfb19700820f5400838f5c008b
:10345000f7ff34008fa99700648141005faa9700ad
:10346000efaa9700e00f5200e08f5a0001003200ef
:1034700001f0a2000089be0080003700c0ff2f00cd
:10348000ffaa970080a8b900000047003fb297004c
:10349000cfb2970061015200e0815a004211dd0075
:1034a000820240005506be000e0278005405be00a0
:1034b0000a01be000c00be00d4b79f00e5b79f0014
:1034c000f6b79f0087bf9f007cf607000004be0090
:1034d0000001be000c00be006ff607000001be0038
:1034e0000a00be0075f607005fb29700008abe00b2
:1034f000efb29700888abe007fb397008fbb97001a
:1035000061035300e0835b0064075700e00f530042
:10351000e08f5b00d9ff3c003faa97003fb39700c4
:10352000cfb397000404780023003700c0ff2f00ba
:10353000ffaa970080a8b900000044003fb297009e
:10354000cfb2970061015200e0815a00c214dd0041
:10355000890440005902be00080778005e06be00dc
:103560000c01be000400be00d4b79f00e5b79f0069
:10357000f6b79f0087bf9f0050f607000005be000a
:103580000001be005fb29700efb297000400be00da
:1035900041f607000001be000c00be0047f6070020
:1035a000008fbe008a8cbe007fb397008fbb970050
:1035b00061035300e0835b0064045400e10f530097
:1035c000e08f5b00d9ff3c009fb29700422cdd00ea
:1035d000a6f12f000f034300080443003fb59700f6
:1035e000cfb597006000b800040037004801be0066
:1035f00032f6070061055500e0855d00e10f5500da
:10360000e08f5d00f9ff3c005fa99700efa99700ec
:10361000e00f5100e08f59000b003a000fa997000e
:103620005f0a9700ef0a97000499be007f0b97008e
:103630008f1397000689be008fab9700c0039800d8
:10364000d10398000d0037005f0a9700ef0a97003a
:1036500005f0a2000fa997000499be007f0a970009
:103660008f12970005f0a2000489be0001f0a200ad
:103670000fa9970040019800510198009fa9970059
:10368000678061004f0778004f06be004f05be00ff
:103690004f04be00af17b100000006000c00fa0096
:1036a000889fbe008a9fbe008c1f78000004be0069
:1036b0006000b8006011b800f0b79f0081bf9f00a4
:1036c00092bf9f00a3bf9f00f8b79f0089bf9f00d4
:1036d0007fb297008fba97001fbb9700afbb9700d0
:1036e000443ade00f07f2000000662002043200004
:1036f000800f560042003c006011b8000800be0078
:1037000089f507000000e0003d0032007fb097001f
:103710008fb897001fb99700afb99700e00f50001e
:10372000e08f5800e00f5900e08f590008003d007d
:103730000200200003b024000800be00d6f50700f8
:103740000200200003b02400dcf50700070037006a
:103750000200200003b024000800be00d7f50700d7
:103760000200200003b02400cbf507000801be00d2
:10377000c9f507000005be00e03f2000800f56009d
:103780000f003c00dab79f00ebb79f006044b80021
:103790007fb097008fb897001fb99700afb9970017
:1037a000e00f5000e08f5800e00f5900e08f590003
:1037b00013003d000800200009f82b00100037001e
:1037c0006011b8000a00be0059f507000000e000d3
:1037d000070034000a01be000800be00b7f507006c
:1037e0000200200003f82300abf5070003003700b8
:1037f0000a01be000800be00b0f507000004be00cc
:103800000800be004f0678004f05be004f04be0002
:103810000080fa0000000600889fbe008a9fbe005c
:1038200002047800f93f2000890f54000d00340095
:103830000200200003f8270064f70700f83fb100fa
:10384000890f5400150034000200200003f82700ff
:103850005ef70700f83fb100890f54000e003c00ee
:103860000e00370029c02f00890f54000b003d00c7
:103870006011b80055f70700983cb000890f54005c
:1038800006003d006011b80050f70700983cb000fa
:10389000890f540001003d0009047800f83fb00092
:1038a000cfc4de00614db9006044b8000801be001d
:1038b00046f707004f05be004f04be00000006009b
:1038c000020ab900001bb9000200b80081004200e2
:0838d000810043000000060026
:020000040000fa
:1038d800aa440000c84400000000000000000000e6
:1038e8008a420000ae420000d24200000000000000
:1038f80066440000f6420000b84300009e41000004
:10390800a6410000ae410000b6410000be410000e3
:10391800c6410000f6410000504200005842000035
:1039280060420000684200007c44000094440000ab
:103938006c9c00005a52000088520000b2520000ed
:10394800ba520000c2520000ce520000000000002f
:1039580000000000da520000e2520000fa520000b3
:10396800105300003e5300006853000070530000dd
:10397800785300008453000000000000000000009d
:103988009053000098530000b0530000c653000045
:10399800f45300001e540000265400002e5400006a
:1039a8003a540000000000000000000046540000e7
:1039b8004e54000066540000e435000070360000e4
:1039c80088360000ea3600004e370000ca3700008b
:1039d8009c380000ac3800000e39000000000000e0
:1039e8007c540000a8540000d6540000e2540000a3
:1039f800ee540000fa540000000000004056000099
:103a080052560000605600006c56000076560000c2
:103a1800825600000000000068020000000000005c
:103a2800000000009a560000ba560000124b000031
:103a3800344b0000f04a0000904a0000504a000051
:103a4800a64c0000c04c0000844c0000244c000030
:103a5800e44b0000e2440000024500004645000037
:043a68002a450000eb
:020000040000fa
:103a6c000000fa0020e984000000010051e9840004
:103a7c00f226210033a82300a0d42100010001006c
:103a8c000080fa00000006000000fa00708c800034
:103a9c000000e800708c88000080fa00000006002e
:103aac000a00fa000e82e800000a78006400470061
:103abc00010878006600470002087800680047009b
:103acc000348780068004700104178006600470002
:103adc00900078000e80e800100078008a03070040
:103aec000004e00017003200908c8000000fe90009
:103afc008e31ef000d00370000f82400210120006a
:103b0c00d91c0700838580001e01780064004700e3
:103b1c009000780010c0b300030001000004e00026
:103b2c000200320010c0b30007003700718c800017
:103b3c0030062000808f5000efff36000040eb0075
:103b4c00010037000040eb000080fa000000060086
:103b5c000600fa000e81e8000009780064004700b6
:103b6c0001087800918580000e80e8001000780034
:103b7c00010001000004e00017003200908c80006e
:103b8c00000fe9008e31ef000d003700007c2200a1
:103b9c0091002000b41c0700838580001e01780072
:103bac00640047009000780010c0b30003000100cf
:103bbc000004e0000200320010c0b3000700370020
:103bcc00718c800030062000808f5000efff360093
:103bdc000040eb00010037000040eb000080fa00d1
:103bec00000006000000fa000001eb008000eb0072
:103bfc000040eb00020007000080fa000000060005
:103c0c00b000fa00a30a20008e81410080497800a0
:103c1c00c00a20000e00400001087800e00a2000d5
:103c2c000e004000020878000040eb00004f7800c6
:103c3c0033e7840000d0bf000080fb00f200470097
:103c4c0022032000030001000004e0008e02320079
:103c5c000000000070e78400000001000004e00098
:103c6c00fcff3a0060e7840000000100800078004f
:103c7c006c004700010878006c00470010007800c9
:103c8c000000e00080023a008000eb000e80e800ab
:103c9c00010878001200370094d1bf000080fb00af
:103cac008e80e80091007800010140000e80e80051
:103cbc00100078007200400000004700904078002f
:103ccc00a012210000004100014878000e80e8009d
:103cdc00100078008000e8000e80e80001087800f1
:103cec0094d1bf000080fb008e80e800910078002a
:103cfc008100400030062000808f500005003c0001
:103d0c000e80e8009000780010032000808f500097
:103d1c00e1ff34008000eb006400470001087800ec
:103d2c008000eb0066004700010878008000eb0083
:103d3c006800470001087800200237006600470041
:103d4c00100078000000e0001a003a0068004700fc
:103d5c0090007800a01221000080400010407800f4
:103d6c00e14f500013003a0064004700e8004700a0
:103d7c00110878006800470090007800a01221001c
:103d8c0000804000904078006600470010007800ea
:103d9c006004b0000000470001487800660047004e
:103dac00100078008000e8006600470001087800e9
:103dbc00fd0137006600470010007800e10f50004d
:103dcc0017003a006800470090007800a01221000c
:103ddc000080400010407800e24f500010003a0084
:103dec006800470090007800a0122100008040007d
:103dfc009040780066004700100078006004b00026
:103e0c000000470001487800660047001000780069
:103e1c008000e8006600470001087800e2013700e6
:103e2c006600470010007800e10f5000de013400fe
:103e3c006800470090007800a0122100008040002c
:103e4c009040780066004700100078006004b000d5
:103e5c000000470001487800660047001000780019
:103e6c008000e80066004700010878006600470003
:103e7c0010007800e70f5000cb013400b004200094
:103e8c000e004000104078000080fb0068004000ed
:103e9c00e600470091007800810f5000a9013a001c
:103eac006600470010007800004078000041e900ef
:103ebc0066004700100078000000e9006004b000c4
:103ecc000000470010407800610420008e80400004
:103edc00da0f07000004e000800132008000eb00e4
:103eec0066004700010878006100200040042000b3
:103efc000e00400001087800800420000e004000f5
:103f0c00104078000080fb0010808800a004200086
:103f1c000e004000104078000080fb00c800dd005f
:103f2c00900420000e004000104078000080fb0040
:103f3c00010070002080880010c0b300004f780092
:103f4c0010808000e70f50000b003a004004200066
:103f5c000e004000100078006004b0000000470024
:103f6c001040780001f0b7009185800030002000ef
:103f7c00010001004601370010808000e50f500061
:103f8c00c2003a00400420000e00400010007800ef
:103f9c00610420008e80400000804000410420001d
:103fac008e8040000f0f0700b0818800c18188000f
:103fbc00400420000e004000100078006104200036
:103fcc008e80400000804000410420008e80400024
:103fdc00040f0700f0818800018288004004200053
:103fec000e00400010007800610420008e8040001c
:103ffc0000804000410420008e804000f90e070034
:10400c001082880021828800400420000e004000ad
:10401c0010007800610420008e8040000080400079
:10402c00410420008e804000ee0e07004082880084
:10403c0051828800400420000e00400010007800df
:10404c00610420008e80400000804000410420006c
:10405c008e804000e30e0700608288007182880029
:10406c00400420000e004000100078006104200085
:10407c008e80400000804000410420008e80400073
:10408c00d80e0700808288009182880040062000ac
:10409c000e004000104078000080fb003082880049
:1040ac00500620000e004000104078000080fb00fd
:1040bc0090818800600620000e00400010407800bf
:1040cc000080fb00a081880010828000218280008b
:1040dc0002002000032724005af407000001be0050
:1040ec000000200001f8230056f407006e01470081
:1040fc000089be0030828000e30f500026003200a1
:10410c00e30f500005003e00e10f5000120032009a
:10411c00e10f500018003e0007003700e50f50007b
:10412c002d003200e50f500023003900e60f50003f
:10413c0031003200380037006e00470002002000ca
:10414c0003f023001000be001df50700c08288009c
:10415c00d1828800380037006e004700325c2f0097
:10416c0083ea23001000be0015f50700c08288000a
:10417c00d1828800300037006e004700020020001a
:10418c0003e823001000be000df50700c082880074
:10419c00d1828800280037006e004700d2cc2c005a
:1041ac00c3e423001000be0005f50700c0828800a0
:1041bc00d1828800200037006e004700325c2f004f
:1041cc0083f223001000be00fdf40700c0828800bb
:1041dc00d1828800180037006e00470002002000d2
:1041ec0003f423001000be00f5f40700c082880021
:1041fc00d1828800100037006e004700d2cc2c0012
:10420c00c3f423001000be00edf40700c082880048
:10421c00d1828800080037006e004700325c2f0006
:10422c0083ea23001000be00e5f40700c08288007a
:10423c00d182880000000000c0828000d182800002
:10424c006e0247000001be001400be000ff3070011
:10425c00e0828800f1828800e4828000f582800090
:10426c00c0828000d18280000001be000400be002c
:10427c000ff30700a0828800b1828800918580002e
:10428c003000200001000100810037001080800008
:10429c00e90f500055003a00400420000e00400089
:1042ac0010007800610420008e80400000804000e7
:1042bc00410420008e8040004a0e0700a080880038
:1042cc00b1808800400420000e00400010007800ef
:1042dc00610420008e8040000080400041042000da
:1042ec008e8040003f0e0700c0808800d18088007f
:1042fc00400420000e0040001000780061042000f3
:10430c008e80400000804000410420008e804000e0
:10431c00340e0700e0808800f18088004004200003
:10432c000e00400010007800610420008e804000d8
:10433c0000804000410420008e804000290e0700c0
:10434c006080880071808800400420000e004000ce
:10435c0010007800610420008e8040000080400036
:10436c00410420008e8040001e0e070080808800d3
:10437c0091808800400420000e004000100078005e
:10438c00610420008e804000008040004104200029
:10439c008e804000130e07004080880051808800fa
:1043ac00400420000e004000100078006104200042
:1043bc008e80400000804000410420008e80400030
:1043cc00080e0700008188001181880080062000fb
:1043dc000e0040001040780006f0b7009185800078
:1043ec0030002000010001002900370010808000ff
:1043fc00e80f50001e003a00400420000e00400060
:10440c0010007800610420008e8040000080400085
:10441c00410420008e804000f20d0700508188007e
:10442c0061818800400420000e00400010007800dc
:10443c00610420008e804000008040004104200078
:10444c008e804000e70d0700708188008181880014
:10445c00400520000e0040001040780024f0b7000a
:10446c009185800030002000010001000800370019
:10447c0010808000e30f5000050032009185800011
:10448c0040002000010001000040eb00004f7800cc
:10449c00a00a20000e004000104078000004e0004c
:1044ac004100320011808000c00a20000e00400044
:1044bc0010007800808f50003b003a002180800073
:1044cc00e00a20000e00400010007800808f5000a1
:1044dc0035003a0010c0b3006c003700b004200067
:1044ec000e004000104078000080fb006800400087
:1044fc00e600470091007800810f50002a003d0033
:10450c000b00370066004700100078008000e900bf
:10451c00660047000108780066004700100078002c
:10452c006004b0008040eb000000470001487800b8
:10453c0066004700100078000000e000f1ff3c002e
:10454c0019003700b00420000e0040001040780025
:10455c000080fb0068004000e600470091007800f6
:10456c00810f500010003d000b0037006600470023
:10457c00100078008000e900660047000108780010
:10458c0066004700100078006004b0008040eb002b
:10459c0000004700014878006600470010007800d2
:1045ac000000e000f1ff3c006800470010007800bc
:1045bc008000e800680047000108780068004700a8
:1045cc009000780030062000808f5000dbfd340016
:1045dc0066004700100078000000e000280034005e
:1045ec008000eb006a0047000108780014003700d7
:1045fc006400470090007800a01221000080400069
:10460c00904078006a00470010017800a012210049
:10461c000000410001487800640047001000780059
:10462c008000e80064004700010878006a00470039
:10463c00100078008000e8006a004700010878004c
:10464c00640047009000780020062000808f500006
:10465c00e7ff34006a004700100078000040780043
:10466c000040e80094f1b700411921009140780016
:10467c0040c6b30080cf500001003a009471ef00a7
:10468c001e407800010037000040eb000080fa006b
:10469c00000006003800fa00610320008e80400004
:1046ac0080087800600320000e00400010007800a5
:1046bc00e40f500005003200600320000e004000a3
:1046cc0010007800e20f500009003a000040eb00a7
:1046dc00004f78000041eb008e0078006003200052
:1046ec000e004000100078008700070077003700ac
:1046fc00600320000e00400010007800ec0f50000a
:10470c000e003a0050838000618380000e02e800a6
:10471c000001be0004007800680d07000e00e800e0
:10472c0042c0b30080007800600320000e004000ff
:10473c00100078007400070064003700600320004c
:10474c000e00400010007800e30f50000c003a00ff
:10475c001080800080407800650047000148780098
:10476c006500470012c0b300800078006003200091
:10477c000e00400010007800630007005300370063
:10478c00600320000e00400010007800e60f50007f
:10479c004d003a0050838000618380006602470020
:1047ac000001be0004007800440d0700b2838000b5
:1047bc00c383800066004700640040003f0d070083
:1047cc0092838000a383800066004700680040004d
:1047dc003a0d070032848000438480006600470055
:1047ec006c004000350d070052848000638480000b
:1047fc006600470070004000300d0700f283800017
:10480c000384800066004700740040002b0d0700f5
:10481c0012848000238480006600470078004000ea
:10482c00260d070012858000238580006600470056
:10483c007c004000210d0700b2848000c3848000fe
:10484c00660047000002b0001c0d0700f2848000d7
:10485c0003858000660047004002b000170d07007a
:10486c003285800043858000660047008002b000de
:10487c00120d0700aad0bf00804078002003200052
:10488c000e0040000148780091062100914078000c
:10489c00300320000e004000014878008106210002
:1048ac0091407800400320000e0040000148780041
:1048bc0066004700f2c2b300800078006000200060
:1048cc0011000700010037000040eb000080fa00e7
:1048dc00000006000400fa008e80e80080087800d2
:1048ec000e80e8001000780000407800004f78003f
:1048fc0012c0b3008e0078001000200002000700e8
:10490c000080fa00000006000e00fa00889fbe002e
:10491c008a1f7800e8014700800978006a00470088
:10492c00010878006c004700024878000f047800fa
:10493c000f007800800478006c004700104078006d
:10494c000080fb00680040000001e9008e80e80058
:10495c00820878000000e8000000e8000000d100a8
:10496c00800040000f007800818747000000e800bd
:10497c000000d10000004000e400470080087800ef
:10498c00640047009000780010c0b30080487800a5
:10499c00640047001000780021c0b3000000e8005c
:1049ac0001487800680047001000780080407800cb
:1049bc0064004700100078000080e800014878008f
:1049cc00908c8000804078006400470010007800d4
:1049dc006300400001487800908c80004800de00a5
:1049ec0080407800640047001000780064004000ac
:1049fc000148780064004700100078006500400012
:104a0c00ec004700114878000000eb00000f780024
:104a1c000f0037009e00780066804000ea004700d7
:104a2c0091007800914078006401470012017800f1
:104a3c0000004100014878006a004700100078002f
:104a4c008000e8006a004700010878001e0fe800ab
:104a5c006c004700104078000080fb009e0f500057
:104a6c00ecff3c006c004700104078000080fb001d
:104a7c0066004000e4004700910078000080400090
:104a8c0031c0b300014878006c004700104078003a
:104a9c000080fb00670540006c0047001040780068
:104aac0067404000e4004700110178008040780026
:104abc0002007800a60c0700e40047009100780083
:104acc008a8040008048780024e784006c0047000e
:104adc00104078000080fb006800400080007800e7
:104aec00640047009001780000d0bf000080fb00fc
:104afc000101780083007800040001000004e0004c
:104b0c0015003200908c80000000e800908c88002a
:104b1c000000000070e78400000001000004e000c9
:104b2c00fcff3a0060e78400000001008000780080
:104b3c006600470001087800660047001000780006
:104b4c000000e00002003a0010c0b3000300370080
:104b5c000000eb00000f78000040eb0089077800a4
:104b6c00880778004f0578004f04be000080fa00db
:104b7c00000006000400fa00889fbe008a9fbe0059
:104b8c00250107000004e0001f013200b185800000
:104b9c00100020000100010001d0bf000004a100a2
:104bac0001f0b7000e01370022d1bf000080fb00de
:104bbc004500de00004078000080fb0061006000d2
:104bcc00004078000004e0000b003200908f800061
:104bdc000000010070858000000001000004e0006e
:104bec00020032000040eb006701070022d1bf0039
:104bfc000054a10022f1b70022d1bf000080fb00bd
:104c0c004600de00004078000080fb006100600080
:104c1c00004078000004e0001400320001d0bf0016
:104c2c00e34f500008003a0080db800091db8000ed
:104c3c00508388006183880091858000c00020002b
:104c4c00010001000600370001d0bf00e24f500008
:104c5c0003003a00918580006000200001000100f3
:104c6c0022d1bf000064a10022f1b70001d0bf0027
:104c7c00e34f50004f003a00818f800010c0b3000a
:104c8c0001000100838580000001eb0091002000f1
:104c9c0010c0b300030001000004e0001700320054
:104cac0010c0b3003801070006d0bf00e44f50001d
:104cbc0003003a0010c0b30026f1b7000100370022
:104ccc002671ef0006d0bf00e34f500003003a00fe
:104cdc0010c0b30028f1b700010037002871ef00b5
:104cec0006d0bf00e54f500003003a0010c0b300df
:104cfc0027f1b700010037002771ef0026d1bf0064
:104d0c000004e00002003200b0da80000000010074
:104d1c0027d1bf000004e00002003200c0da80009e
:104d2c000000010028d1bf000004e000ac003200fc
:104d3c0022d1bf000080fb004200de000040780062
:104d4c000080fb0061006000004078000004e0007f
:104d5c00150032009f02070090838000a183800021
:104d6c0062e62900f353240015f207008226220084
:104d7c008306240045f0070060db880071db8800a7
:104d8c0060db800071db800002002000832c24009b
:104d9c002cf1070060db880071db880022d1bf009a
:104dac000024a10022f1b70080da8000000001008d
:104dbc008b00370001d0bf00e24f500085003a0055
:104dcc0022d1bf000080fb004200de0000407800d2
:104ddc000080fb0061006000004078000004e000ef
:104dec00040032007b02070022d1bf000024a10086
:104dfc0022f1b700818f800010c0b30001000100c8
:104e0c0022d1bf000080fb006100600000407800f0
:104e1c000004e0007200320069d0bf00e14f500086
:104e2c000b003a0022d1bf000080fb004400de00e2
:104e3c00004078000080fb00610060000000e00092
:104e4c0003003a0022d1bf000044a00022f1b700b9
:104e5c0069d0bf00e24f500010003a0022d1bf00d1
:104e6c000080fb004400de00004078000080fb0066
:104e7c0061006000004078000004e0000700320090
:104e8c00b0848000c1848000f08488000185880093
:104e9c0022d1bf000044a10022f1b700020107009b
:104eac00008fbe0084da8000f081800001828000d7
:104ebc000001be001e00be00040001000004e00062
:104ecc00280032003086800041868000f2262100c6
:104edc0033a82300baf10700f0858800018688000a
:104eec00f485800005868000d0858000e1858000f7
:104efc000001be000400be00e4ef0700308588000e
:104f0c0041858800b8848000c98480003a8580007f
:104f1c004b8580005083800061838000020020005c
:104f2c0003272400c7f007000001be000a00be00e2
:104f3c00a3f1070002002000a3472400a0f1070002
:104f4c000001be000800be00d9ef0700b084880045
:104f5c00c1848800f085800001868000d08588009f
:104f6c00e185880069d0bf00e14f500003003a0092
:104f7c0050de8000000001000700370069d0bf0040
:104f8c00e24f500004003a0062de80006082800034
:104f9c007182800002000100d0d28000000001006c
:104fac000004e0000700320080d2800091d2800023
:104fbc00508388006183880091858000c0002000a8
:104fcc000100010022d1bf000004a10022f1b700b2
:104fdc0003003700818f80000040eb0001000100ce
:104fec0001d0bf00e14f5000effe3a0001d0bf00ee
:104ffc000004a10001f0b700b1858000d0082000aa
:10500c0001000100defe3700b185800020898000a0
:10501c0001000100dafe37000400fa0083170700d4
:10502c00c0858000000001006285800031002000f6
:10503c0020002000020001000004e0004e003200bd
:10504c0020e984000000010051e98400f2262100cf
:10505c0033a8230040a522000100010070da800073
:10506c000000010020898800208980000000e000f9
:10507c0039003a000040eb00004f78001500370073
:10508c000e00e8001e487800a48580000e00e800a1
:10509c0013c0b3000001780091002000b000200084
:1050ac00040001000004e000040032000040eb00aa
:1050bc00350007001e4fe8000600370000092000ed
:1050cc0020898800b18580002089800001000100c2
:1050dc00030037001e407800e64f5000e8ff360012
:1050ec00208980000000e0001b003a000040eb002b
:1050fc00004f7800150037000e80e8001e4878003d
:10510c00a48580000e80e80013c0b3000001780075
:10511c0081002000a0002000040001000004e00039
:10512c00040032000040eb00170007001e4fe8009f
:10513c00060037001009200020898800b185800006
:10514c002089800001000100030037001e40780018
:10515c00e74f5000e8ff360080de800000000100c1
:10516c00208980000000e00003003a0010c0b3006a
:10517c000080fa000000060000602400313c220090
:10518c0039170700a8ff37000200fa00004f78001b
:10519c0010808000e90f500015003a0006d0bf00c7
:1051ac00e54f50000b003e0092da800006d0bf00a5
:1051bc00fc874700fc805700830021000d0009008c
:1051cc00b3187800c101b1009e40780002000100c4
:1051dc00fc87570006d0bf00e64f500004003a0091
:1051ec00e10d2100820021000d000900b2187800a9
:1051fc0010808000e80f500024003a0024d0bf003b
:10520c00e54f50000b003e00a7da80007281800051
:10521c0083818000508180006181800046022100e2
:10522c00164378000202be000001be000640780062
:10523c000700010024d0bf00e64f500008003a00e0
:10524c005081800061818000b08f8800c18f880000
:10525c007081800081818000d0888800e18888007e
:10526c0024d0bf00e74f500008003a005081800066
:10527c0061818000d08f8800e18f88007081800070
:10528c0081818000f088880001898800108080006e
:10529c00e70f500002003a0001d0bf0001f0b70048
:1052ac000080fa00000006000000fa00889fbe0093
:1052bc008a9fbe0069d0bf00e14f50006d003a00dc
:1052cc0090818000e10f500055003a00a0818000d1
:1052dc00e10f500013003a00b0818000c1818000c2
:1052ec0002002000a3472400d6ef07000004be00f4
:1052fc00c0828000d182800002002000032724009d
:10530c00d0ef07000001be000800be00cdef070083
:10531c00d0818800e1818800d0818000e18180000b
:10532c005a003700a0818000e20f500037003a008d
:10533c00c0828000d182800002002000032724005c
:10534c00c0ef07000001be000000200001f82300a0
:10535c00bcef07002083880031838800b081800077
:10536c00c181800002002000a3472400b5ef070094
:10537c000004be00c0828000d18280000001be000b
:10538c00cbee07000001be000800be00adef070029
:10539c0000838800118388000083800011838000c3
:1053ac00f2282c0053d7230085f007000004be0020
:1053bc002083800031838000b2fd20009304240000
:1053cc007ff007000005be0030868000418680001b
:1053dc00f226210033a8230079f007000001be005b
:1053ec000a00be0076f00700dbf307000001be00e8
:1053fc000800be0072f00700d0818800e1818800af
:10540c00d0818000e181800020003700a0818000e5
:10541c00e30f50001c003a006000b8001b0037007e
:10542c0090818000e20f500017003a00408280000b
:10543c0051828000b0868800c1868800b0838000cd
:10544c00c1838000d0868800e1868800e0d22900e4
:10545c006400400090007800600d21000100010004
:10546c000004e00008003200b0888000c188800091
:10547c000600370069d0bf00e24f500002003a002e
:10548c006000b800010037006000b8004f05be0096
:10549c004f04be000080fa00000006000000fa0075
:1054ac00881f780010868000218680000200200072
:1054bc0003f823007eee0700108688002186880002
:1054cc0050868000618680000200200003f82300d3
:1054dc0077ee070050868800618688007086800011
:1054ec00818680000200200003f8230070ee070084
:1054fc00708688008186880090868000a186800056
:10550c000200200003f8230069ee07009086880053
:10551c00a18688007086800081868000f22621009a
:10552c0033a8230026f0070018c0b300a2702d008a
:10553c0033ca2300fbed07000000e00001003d0032
:10554c000044eb000804e0000600320022d1bf004a
:10555c000064a00022f1b7006000b80070868800db
:10556c008186880090868000a1868000f22621002a
:10557c0033a8230012f0070018c0b300020020006b
:10558c0003f82300e7ed07000000e00001003d00f8
:10559c000044eb000804e0000600320022d1bf00fa
:1055ac000054a00022f1b7006000b800908688007b
:1055bc00a18688005086800061868000f22621003a
:1055cc0033a82300feef070018c0b300f226210019
:1055dc0033a82300d3ed07000000e00001003d00dc
:1055ec000044eb000804e0000600320022d1bf00aa
:1055fc000004a00022f1b7006000b80050868800bb
:10560c00618688001086800021868000f2262100a9
:10561c0033a82300eaef070018c0b30002002000f3
:10562c0003e82300bfed07000000e00001003d008f
:10563c000044eb000804e0000600320022d1bf0059
:10564c000024a00022f1b7006000b800108688008a
:10565c002186880001d0bf00e24f50005a003a006a
:10566c0030868000418680000200200003f8230071
:10567c000fee070030868800418688003086800057
:10568c0041868000f226210033a82300ccef0700ce
:10569c000002be00c0828000d182800018c0b3001e
:1056ac000001be000400be009ced07000000e000fd
:1056bc00010034000044eb000804e0000300320059
:1056cc0010c0b30069f0b7003f003700308680008f
:1056dc0041868000f226210033a82300b8ef070092
:1056ec000002be00c0828000d182800018c0b300ce
:1056fc000001be000400be008aed07000000e000bf
:10570c0001003c000044eb000804e00014003200ef
:10571c003086800041868000f226210033a82300c9
:10572c00a7ef07000002be00a0828000b1828000bb
:10573c0018c0b3000001be000400be0077ed0700e6
:10574c000000e000010034000044eb000804e0001d
:10575c000300320020c0b30069f0b7001a00370014
:10576c003086800041868000f226210033a8230079
:10577c0093ef07000002be00a0828000b18280007f
:10578c0018c0b3000001be000400be0065ed0700a8
:10579c000000e00001003c000044eb000804e000c5
:1057ac000900320068d0bf000040e80068f0b70084
:1057bc006000b800b0848800c18488006000b80024
:1057cc0030868800418688004f0478000080fa00fb
:1057dc00000006000800fa006000b80064014700f1
:1057ec000089be0011c0b30010c7b30059110700e7
:1057fc000004e0004b003200f4d1bf00e40047008d
:10580c000101780080407800e0c6b300fd1007006d
:10581c000004e0003a003200640047001000be00b3
:10582c00325c2f0083f2230098ed0700b27b22003c
